:020000040800F2
:10000000500600209D010008F33900081F37000842
:10001000F139000841080008D34000080000000042
:10002000000000000000000000000000EF3B00089E
:10003000F508000800000000F53900086D3C0008D4
:10004000B7010008B7010008B7010008B7010008B0
:10005000B7010008B7010008B7010008911C0008AB
:10006000B7010008CD1C0008091D0008B7010008F1
:10007000B7010008B7010008B7010008B701000880
:10008000B7010008B7010008B7010008B701000870
:10009000B7010008B7010008B7010008451D0008B6
:1000A000B7010008B7010008B7010008B701000850
:1000B000453D0008893D0008953D0008B70100084E
:1000C000B7010008B7010008B7010008F9390008B6
:1000D000B7010008B7010008B7010008B701000820
:1000E000B7010008B7010008B7010008B701000810
:1000F000B7010008B7010008B7010008B701000800
:10010000B7010008B7010008B7010008B7010008EF
:10011000B7010008B7010008B7010008B7010008DF
:1001200045080008B7010008B7010008B70100083A
:10013000B7010008B7010008B7010008B7010008BF
:10014000B7010008B7010008B7010008B7010008AF
:10015000B7010008B7010008B7010008B70100089F
:10016000B7010008B7010008B7010008B70100088F
:10017000B7010008B7010008B7010008000000003F
:10018000B7010008B7010008DFF80CD000F046FB0B
:1001900000480047154100085006002006488047E7
:1001A00006480047FEE7FEE7FEE7FEE7FEE7FEE75C
:1001B000FEE7FEE7FEE7FEE7F13C000889010008E4
:1001C0002DE9F05F0546002092469B46884606468C
:1001D000814640241BE0284641464746224600F01F
:1001E00066FA53465A46C01A914110D31146184632
:1001F000224600F04DFA2D1A67EB01084F462246C1
:100200000120002100F044FA17EB00094E41201EA6
:10021000A4F10104DFDC484631462A464346BDE8E6
:10022000F09FD2B201E000F8012B491EFBD27047CB
:100230000022F6E710B513460A4604461946FFF7B2
:10024000F0FF204610BD2DE9FE4F804681EA0300F5
:10025000C00F0C46009021F0004123F00045B8EBA0
:100260000200A94105D24046214690461C460B4655
:10027000024623F00040104347D0270DC7F30A0081
:10028000C3F30A510290401A019040286BDAC3F37D
:10029000130040F4801B0098924620B10023D2EB5B
:1002A000030A63EB0B0B01985946C0F1400250461C
:1002B00000F0EEF906460D4650465946019A00F008
:1002C00006FA10EB08006141002487EA115284EA23
:1002D000E7731A4340D0009A62B3019A012A4FEAA9
:1002E000075215DC001B61EB02014FF0004202EAED
:1002F0000752CDE90042001C41F5801132462B46E1
:1003000000F03DFA03B0BDE8F08F40462146F9E722
:10031000001B61EB0201001C41F5801300185B41DA
:100320002018A2F5001747EB030140EAD570B61973
:100330006D4111E06D084FEA360645EAC0754FEA97
:100340000752001B61EB0201001C41F580114908B6
:100350004FEA30000019514132462B4603B0BDE848
:10036000F04F00F0FDB90098012240000023D0EBCF
:10037000020263EBE073009821464FEAE074B8EBA9
:10038000000061EB0401E9E783F000435BE781F0E3
:10039000004158E72DE9FE4F81EA030404F00044D0
:1003A00021F0004100944FF0000B23F0004350EA8D
:1003B00001045ED052EA03045BD0C3F30A54C1F3D4
:1003C0000A552C44A4F2F3340194A0FB0254C1F367
:1003D000130141F48011C3F3130343F4801301FBB1
:1003E000024400FB034E840A970A44EA815447EA18
:1003F0008357A4FB076802958D0A05FB07854FEA22
:10040000932C04FB0C542705029D4FEA065847EA3B
:100410001637B5EB08056EEB070C870E920E47EA10
:10042000811742EA8312A7FB0201B6EB0B0164EBD2
:1004300000042B0D43EA0C335E1844EB1C50DA46E3
:100440005146E7FB0201C5F313044FEA0B3343EABD
:1004500014534FEA0432019C43EA0603A4F10C044E
:100460000294009CCDE900B400F089F903B0BDE826
:10047000F08F00200146F9E72DE9F04D81EA0304F1
:1004800004F0004B21F0004514464FF0000A23F021
:10049000004150EA050220D054EA01021DD0C5F304
:1004A0000A570246C5F31303C1F31300C1F30A56FA
:1004B00040F4801543F48013A7EB0608101BD646C2
:1004C00008F2FD3873EB050002D308F1010801E0E2
:1004D00092185B41B8F1000F03DA00200146BDE835
:1004E000F08D00204FF48011064684460EE0171B65
:1004F00073EB050705D3121B63EB050306434CEAB8
:10050000010C49084FEA300092185B4150EA01079C
:10051000EDD152EA030012D082EA040083EA050119
:10052000084305D0101BAB4106D20122002306E090
:1005300000224FF0004302E06FF0010253101AEB6B
:1005400006004CEB085110EB0A0041EB0B01BDE833
:10055000F04D00F005B90EB5C10F80EAE070084417
:10056000CA07002140F233438DE80E000A460B46CD
:1005700000F005F903B000BD0EB540F23341029121
:100580000021CDE900110A460B4600F0F8F803B04F
:1005900000BD70B5C1F30A5201F000450024C1F35B
:1005A000130140F2FF3341F480119A4201DA002036
:1005B00070BD40F233439A42A2F2334203DC52420E
:1005C00000F075F800E090402C43F1D0404270BD3F
:1005D00000F0004230F000400AD0C10D01F560711A
:1005E000C0F3160042EA0151C208400711437047A8
:1005F000002001467047000030B5041E71F1000470
:1006000004DB4FF00044404264EB0101141E73F11F
:10061000000405DB1C464FF00043524263EB040329
:100620008B4208BF824230BD30B5041E71F1000418
:1006300004DB4FF00044404264EB0101141E73F1EF
:10064000000405DB1C464FF00043524263EB0403F9
:10065000994208BF904230BD01F0004330B421F010
:10066000004150EA010206D00A0DA2F56072C1F302
:100670001301002A02DC30BC00207047440F44EA1A
:10068000C104C100E01830BC00EBC25000F031B82A
:10069000202A04DB203A00FA02F100207047914042
:1006A000C2F1200320FA03F3194390407047202A37
:1006B00004DB203A21FA02F00021704721FA02F30C
:1006C000D040C2F120029140084319467047202AC9
:1006D00006DBCB17203A41FA02F043EAE07306E06A
:1006E00041FA02F3D040C2F120029140084319467A
:1006F00070470029A8BF7047401C490008BF20F080
:100700000100704710B4B0FA80FC00FA0CF050EA17
:10071000010404BF10BC704749B1CCF1200421FA98
:1007200004F411FA0CF118BF012121430843A3EB93
:100730000C01CB1D4FEA00614FEA102042BF0020A0
:1007400010BC704700EBC35010440029A4BF10BC7C
:100750007047401C490008BF20F0010010BC7047E2
:1007600010B5141E73F1000408DA401C41F10001B9
:1007700092185B411A4301D120F0010010BD2DE910
:10078000F04D92469B4611B1B1FA81F202E0B0FA07
:1007900080F220329046FFF77BFF04460F4640EA86
:1007A0000A0041EA0B0153465A46084313D011464A
:1007B00053EA010019D0C8F140025046FFF777FF15
:1007C00005460E46504659464246FFF761FF08432C
:1007D00005D0012004E020463946BDE8F08D002018
:1007E000054346EAE0762C4337430A986305E40A5A
:1007F000A0EB08000022FD0A44EA47540A3002D563
:1008000000200146E9E7010510196941DDE90845C5
:1008100000196941BDE8F04DA2E70000064C074D04
:1008200006E0E06840F0010394E8070098471034C0
:10083000AC42F6D3FFF7ACFCD0420008F04200080F
:10084000FEE70000014801F0AFBA0000F00100200F
:1008500001681823CAB2103AB2FBF3F2054B6FF3EA
:100860000901032A9B5CC36500D9091D81650846FF
:1008700070470000B842000810B5014600208B699F
:100880008A6A4FF0C07453B1B3F5005F15D072B1EE
:10089000012A0CD0022A0AD0032A09D104E01AB195
:1008A000012A06D0022A03D1C96AC90100D5012054
:1008B00010BDC96AA142FAD010BD002AF7D0012AA2
:1008C000F2D0022AF3D0032AF3D010BD30B5046869
:1008D000256825F480252560046863608368402BC3
:1008E000036803D099600068C26030BD9A600068F8
:1008F000C16030BD7047000010B52DED040B2DED2B
:10090000108BAEB0B0EE408AF0EE608A9FEDFE9B99
:10091000B0EE494AF0EE694A9FEDFDABB0EE4A3ABF
:10092000F0EE6A3A9FEDFC1BB0EE412AF0EE612A30
:1009300003F04EFCB0EE40FAF0EE60FA9FEDF84B9B
:10094000B0EE493AF0EE693AB0EE492AF0EE692A83
:10095000B0EE4A1AF0EE6A1AB0EE480AF0EE680AF3
:1009600003F036FCB0EE40EAF0EE60EA9FEDEE4BAD
:100970009FEDEB3B9FEDEA2BB0EE491AF0EE691AC2
:10098000B0EE480AF0EE680A03F022FCB0EE40DA5E
:10099000F0EE60DA9FEDE6ABB0EE4A4AF0EE6A4A5E
:1009A0009FEDE13B9FEDE02B9FEDDD1BB0EE480A94
:1009B000F0EE680A03F00CFCB0EE40CAF0EE60CA3C
:1009C0009FEDDD9BB0EE4A2AF0EE6A2AB0EE494A6E
:1009D000F0EE694AB0EE493AF0EE693A9FEDD21B6B
:1009E000B0EE480AF0EE680A03F0F2FBB0EE40BA4F
:1009F000F0EE60BA9FEDD28BB0EE493AF0EE693A74
:100A0000B0EE484AF0EE684A9FEDCF1B9DED400BDB
:100A1000B0EE412AF0EE612A03F0DAFBB0EE40AA14
:100A2000F0EE60AA9FEDCA4BB0EE483AF0EE683A9D
:100A3000B0EE482AF0EE682AB0EE491AF0EE691AD4
:100A40009DED400B03F0C4FBB0EE409AF0EE609ACF
:100A50009FEDC13BB0EE434AF0EE634A9FEDBC2BE5
:100A6000B0EE481AF0EE681A9DED400B03F0B0FBB3
:100A7000B0EE408AF0EE608A9FEDB90B8DED280B49
:100A80009FEDB90B8DED220B9FEDB90B8DED260B74
:100A90009FEDA30B8DED200B9FEDA30B8DED1E0B9A
:100AA0009FEDB50B8DED1C0B9FEDB50B53EC1A2B89
:100AB0008DED1A0B51EC1F0BFFF76CFC41EC100B8A
:100AC00053EC192B8DED2A0B51EC1F0BFFF762FC39
:100AD00041EC100B53EC182B8DED180B51EC1F0B48
:100AE000FFF758FC41EC100B53EC1A2B8DED160B55
:100AF00051EC1E0BFFF74EFC41EC1F0B53EC192B76
:100B000051EC1E0BFFF746FC41EC100B53EC182B7D
:100B10008DED120B51EC1E0BFFF73CFC41EC100B62
:100B200053EC1A2B8DED100B51EC1D0BFFF732FC23
:100B300041EC100B53EC192B8DED0E0B51EC1D0BF2
:100B4000FFF728FC41EC100B53EC182B8DED0C0B30
:100B500051EC1D0BFFF71EFC41EC100B53EC1A2B54
:100B60008DED0A0B51EC1C0BFFF714FC41EC100B44
:100B700053EC192B8DED080B51EC1C0BFFF70AFC05
:100B800041EC100B53EC182B8DED060B51EC1C0BAC
:100B9000FFF700FC41EC100B53EC1A2B8DED040B0E
:100BA00051EC1B0BFFF7F6FB41EC100B53EC192B30
:100BB0008DED020B51EC1B0BFFF7ECFB41EC1A0B1C
:100BC00053EC182B51EC1B0BFFF7E4FB41EC190B1A
:100BD0009DED2A8BB0EE4F1AF0EE6F1A9DED180BBB
:100BE00003F0D8FAB0EE40EAF0EE60EA9DED121B99
:100BF0009DED160B03F0CEFA9DED0E1B03F0CAFA25
:100C0000B0EE40DAF0EE60DA9DED0C1B9DED100BBE
:100C100003F0C0FA9DED081B03F0BCFAB0EE40CA29
:100C2000F0EE60CA9DED061B9DED0A0B03F0B2FAD3
:100C30009DED021B03F0AEFAB0EE40BAF0EE60BAE2
:100C4000B0EE4A1AF0EE6A1A9DED040B03F0A2FA18
:100C5000B0EE40AAF0EE60AA53EC1A2B51EC190B3F
:100C6000FFF7F1FA53EC1B2BFFF7EDFA53EC1C2BBB
:100C7000FFF7E9FA53EC1D2BFFF7E5FA53EC1E2BB7
:100C8000FFF7E1FA53EC182BFFF7DDFA9DED1A0B95
:100C900041EC1F0B53EC182B51EC100BFFF77AFBB8
:100CA0009DED1C0B41EC1E0B53EC182B51EC100B63
:100CB000FFF770FB9DED1E0B41EC180B53EC1D2B49
:100CC00051EC100BFFF766FB9DED200B41EC1D0B6B
:100CD00053EC1C2B51EC100BFFF75CFB9DED260B2E
:100CE00041EC1C0B53EC1B2B51EC100BFFF752FB90
:100CF0009DED220B41EC1B0B53EC1A2B51EC100B0E
:100D0000FFF748FB40E0000000000000000034C096
:100D100000000000000044C00000000000004EC0C1
:100D2000000000000000000000000000000034404F
:100D300000000000000044400000000000004E40A1
:100D40000000000000C0524000000000000059C038
:100D500000000000008056400000000000005940E4
:100D600000000000008066C00000000000405AC083
:100D70000000000000003EC0000000000080514064
:100D80000000000000005E409DED280B41EC1A0BB6
:100D900053EC192B51EC100BFFF7FCFA53EC1A2B08
:100DA000FFF751FA53EC1B2BFFF74DFA53EC1C2BBA
:100DB000FFF749FA53EC1D2BFFF745FA53EC182BBC
:100DC000FFF741FA53EC1E2BFFF73DFA53EC1F2BB4
:100DD000FFF752FB2EB041EC100BBDEC108B1FBD8A
:100DE00010B52DED040B2DED108BAEB0B0EE408A9A
:100DF000F0EE608A9FEDFE9BB0EE494AF0EE694A44
:100E00009FEDFDABB0EE4A3AF0EE6A3A9FEDFC1B67
:100E1000B0EE412AF0EE612A03F0DAF9B0EE40BA02
:100E2000F0EE60BA9FEDF84BB0EE493AF0EE693A59
:100E3000B0EE492AF0EE692AB0EE4A1AF0EE6A1ACC
:100E4000B0EE480AF0EE680A03F0C2F9B0EE40FADC
:100E5000F0EE60FA9FEDEE4B9FEDEB3B9FEDEA2B42
:100E6000B0EE491AF0EE691AB0EE480AF0EE680AE0
:100E700003F0AEF9B0EE40EAF0EE60EA9FEDE6ABCB
:100E8000B0EE4A4AF0EE6A4A9FEDE13B9FEDE02B5F
:100E90009FEDDD1BB0EE480AF0EE680A03F098F90A
:100EA000B0EE40DAF0EE60DA9FEDDD9BB0EE4A2A5C
:100EB000F0EE6A2AB0EE494AF0EE694AB0EE493ADD
:100EC000F0EE693A9FEDD21BB0EE480AF0EE680AE8
:100ED00003F07EF9B0EE40CAF0EE60CA9FEDD28B0F
:100EE000B0EE493AF0EE693AB0EE484AF0EE684AA0
:100EF0009FEDCF1B9DED400BB0EE412AF0EE612A35
:100F000003F066F9B0EE40AAF0EE60AA9FEDCA4B7E
:100F1000B0EE483AF0EE683AB0EE482AF0EE682AB1
:100F2000B0EE491AF0EE691A9DED400B03F050F94E
:100F3000B0EE409AF0EE609A9FEDC13BB0EE434AAE
:100F4000F0EE634A9FEDBC2BB0EE481AF0EE681A43
:100F50009DED400B03F03CF9B0EE408AF0EE608A64
:100F60009FEDB90B8DED280B9FEDB90B8DED240B8B
:100F70009FEDB90B8DED220B9FEDA30B8DED260B95
:100F80009FEDA30B8DED200B9FEDB50B8DED1E0B93
:100F90009FEDB50B53EC1A2B8DED1C0B51EC1B0B7D
:100FA000FFF7F8F941EC100B53EC192B8DED0C0BFE
:100FB00051EC1B0BFFF7EEF941EC100B53EC182B27
:100FC0008DED120B51EC1B0BFFF7E4F941EC1B0B01
:100FD00053EC1A2B51EC1F0BFFF7DCF941EC100B13
:100FE00053EC192B8DED160B51EC1F0BFFF7D2F9BB
:100FF00041EC100B53EC182B8DED140B51EC1F0B27
:10100000FFF7C8F941EC100B53EC1A2B8DED100BC8
:1010100051EC1E0BFFF7BEF941EC1F0B53EC192BE3
:1010200051EC1E0BFFF7B6F941EC100B53EC182BEB
:101030008DED0E0B51EC1E0BFFF7ACF941EC100BD4
:1010400053EC1A2B8DED0A0B51EC1D0BFFF7A2F997
:1010500041EC1E0B53EC192B51EC1D0BFFF79AF9C9
:1010600041EC100B53EC182B8DED060B51EC1D0BC6
:10107000FFF790F941EC100B53EC1A2B8DED040B9C
:1010800051EC1C0BFFF786F941EC1A0B53EC192BB2
:1010900051EC1C0BFFF77EF941EC190B53EC182BAC
:1010A00051EC1C0BFFF776F941EC180BB0EE491A26
:1010B000F0EE691AB0EE4E0AF0EE6E0A03F06AF82E
:1010C000B0EE40DAF0EE60DA9DED061BB0EE4F0AAE
:1010D000F0EE6F0A03F05EF8B0EE481AF0EE681A10
:1010E00003F058F8B0EE40EAF0EE60EA9DED0E1B1A
:1010F0009DED160B03F04EF89DED041B03F04AF82E
:10110000B0EE40CAF0EE60CA9DED141B9DED0C0BD5
:1011100003F040F89DED0A1B03F03CF8B0EE409A56
:10112000F0EE609A9DED101B9DED120B03F032F86E
:10113000B0EE408AF0EE608A53EC182B51EC1B0B9A
:10114000FFF781F853EC192BFFF77DF853EC1C2BBC
:10115000FFF779F853EC1E2BFFF775F853EC1D2BB6
:10116000FFF771F853EC1A2BFFF76DF89DED1C0B90
:1011700041EC1F0B53EC1A2B51EC100BFFF70AF943
:101180009DED1E0B41EC1D0B53EC1A2B51EC100B7B
:10119000FFF700F99DED200B41EC1A0B53EC1E2BD1
:1011A00051EC100BFFF7F6F89DED260B41EC1E0BF2
:1011B00053EC1C2B51EC100BFFF7ECF89DED220BC0
:1011C00041EC1C0B53EC192B51EC100BFFF7E2F820
:1011D0009DED240B41EC190B53EC182B51EC100B2B
:1011E000FFF7D8F841EC180B53EC1B2B40E0000044
:1011F00000000000000034C000000000000044C0F7
:101200000000000000004EC00000000000000000D0
:1012100000000000000034400000000000004440D6
:101220000000000000004E400000000000C05240DE
:1012300000000000000059C000000000008056407F
:10124000000000000000594000000000008066C05F
:101250000000000000405AC00000000000003EC036
:1012600000000000008051400000000000005E40CF
:101270009DED280B51EC100BFFF78CF853EC182B5D
:10128000FEF7E1FF53EC192BFEF7DDFF53EC1C2BAF
:10129000FEF7D9FF53EC1E2BFEF7D5FF53EC1A2BAC
:1012A000FEF7D1FF53EC1D2BFEF7CDFF53EC1F2BA8
:1012B000FFF7E2F82EB041EC100BBDEC108B1FBD18
:1012C00010B52DED040B2DED108BAEB0B0EE408AB5
:1012D000F0EE608A9FEDFEABB0EE4A4AF0EE6A4A4D
:1012E0009FEDFD9BB0EE493AF0EE693A9FEDFC1B95
:1012F000B0EE412AF0EE612A02F06AFFB0EE40FA49
:10130000F0EE60FA9FEDF84BB0EE4A3AF0EE6A3A32
:10131000B0EE4A2AF0EE6A2AB0EE491AF0EE691AE7
:10132000B0EE480AF0EE680A02F052FFB0EE40EA72
:10133000F0EE60EA9FEDEE9BB0EE494AF0EE694AAE
:101340009FEDE93B9FEDE82BB0EE4A1AF0EE6A1AEA
:10135000B0EE480AF0EE680A02F03AFFB0EE40DA6A
:10136000F0EE60DA9FEDE4ABB0EE493AF0EE693AA8
:10137000B0EE4A4AF0EE6A4AB0EE492AF0EE692A27
:101380009FEDD91BB0EE480AF0EE680A02F020FF8C
:10139000B0EE40CAF0EE60CA9FEDD93BB0EE4A2AEB
:1013A000F0EE6A2AB0EE434AF0EE634AB0EE491A14
:1013B000F0EE691AB0EE480AF0EE680A02F008FF93
:1013C000B0EE40BAF0EE60BA9FEDC74B9FEDCE8B0A
:1013D000B0EE483AF0EE683A9FEDCD1B9DED400B24
:1013E000B0EE412AF0EE612A02F0F2FEB0EE40AA21
:1013F000F0EE60AA9FEDC84B9FEDBB3B9FEDBA2B73
:10140000B0EE481AF0EE681A9DED400B02F0E0FED7
:10141000B0EE409AF0EE609A9FEDC13BB0EE434AC9
:10142000F0EE634A9FEDBC2B9FEDAF1B9DED400B93
:1014300002F0CEFEB0EE408AF0EE608A9FEDBA0B6D
:101440008DED280B9FEDBA0B8DED220B9FEDBA0BA6
:101450008DED260B9FEDA40B8DED200B9FEDB80BB2
:101460008DED1E0B9FEDB80B8DED1C0B9FEDB80B9A
:1014700053EC1A2B8DED1A0B51EC1F0BFEF78AFF64
:1014800041EC100B53EC192B8DED2A0B51EC1F0B7B
:10149000FEF780FF41EC100B53EC182B8DED180B71
:1014A00051EC1F0BFEF776FF41EC100B53EC1A2B9F
:1014B0008DED160B51EC1E0BFEF76CFF41EC1F0B74
:1014C00053EC192B51EC1E0BFEF764FF41EC100B93
:1014D00053EC182B8DED120B51EC1E0BFEF75AFF3F
:1014E00041EC1E0B53EC1A2B51EC1D0BFEF752FF77
:1014F00041EC100B53EC192B8DED0E0B51EC1D0B29
:10150000FEF748FF41EC100B53EC182B8DED0C0B44
:1015100051EC1D0BFEF73EFF41EC100B53EC1A2B68
:101520008DED0A0B51EC1C0BFEF734FF41EC100B58
:1015300053EC192B8DED080B51EC1C0BFEF72AFF19
:1015400041EC100B53EC182B8DED060B51EC1C0BE2
:10155000FEF720FF41EC100B53EC1A2B8DED040B22
:1015600051EC1B0BFEF716FF41EC1A0B53EC192B39
:1015700051EC1B0BFEF70EFF41EC190B53EC182B33
:1015800051EC1B0BFEF706FF41EC1B0B9DED2A8B6C
:10159000B0EE4F1AF0EE6F1A9DED180B02F0FAFD47
:1015A000B0EE40DAF0EE60DA9DED121B9DED160B09
:1015B00002F0F0FD9DED0E1B02F0ECFDB0EE40CA16
:1015C000F0EE60CA9DED0C1BB0EE4E0AF0EE6E0A16
:1015D00002F0E0FD9DED081B02F0DCFDB0EE40EAFC
:1015E000F0EE60EA9DED061B9DED0A0B02F0D2FDC8
:1015F000B0EE4A1AF0EE6A1A02F0CCFDB0EE40AA44
:10160000F0EE60AAB0EE491AF0EE691A9DED040BF7
:1016100002F0C0FDB0EE409AF0EE609A53EC192B48
:1016200051EC1B0BFEF70FFE53EC1A2BFEF70BFED3
:1016300053EC1E2BFEF707FE53EC1C2BFEF703FEAC
:1016400053EC1D2BFEF7FFFD53EC182BFEF7FBFDB3
:101650009DED1A0B41EC1F0B53EC182B51EC100BAA
:10166000FEF798FE9DED1C0B41EC1D0B53EC182B67
:1016700051EC100BFEF78EFE9DED1E0B41EC180B8E
:1016800053EC1C2B51EC100BFEF784FE9DED200B50
:1016900041EC1C0B53EC1E2B51EC100BFEF77AFEA9
:1016A0009DED260B41EC1E0B53EC1A2B51EC100B4D
:1016B000FEF770FE9DED220B41EC1A0B53EC192B3B
:1016C00051EC100BFEF766FE41EC190B44E00000F4
:1016D00000000000004060C00000000000C062C0C8
:1016E00000000000008066C0000000000000000054
:1016F00000000000004060400000000000C06240A8
:10170000000000000080664000000000000049C0AA
:1017100000000000000059C0000000000000494027
:10172000000000000000594000000000000008C058
:1017300000000000000000C0000000000000F0BF3A
:1017400000000000000014400000000000002440E1
:101750000000000000002E409DED280B53EC1B2BD9
:1017600051EC100BFEF716FE53EC192BFEF76BFD38
:1017700053EC1A2BFEF767FD53EC1E2BFEF763FDAF
:1017800053EC1C2BFEF75FFD53EC182BFEF75BFDB3
:1017900053EC1D2BFEF757FD53EC1F2BFEF76CFE91
:1017A0002EB041EC100BBDEC108B1FBD10B52DED14
:1017B000040B2DED108BAEB0B0EE408AF0EE608AD7
:1017C0009FEDFEABB0EE4A4AF0EE6A4A9FEDFD9BFC
:1017D000B0EE493AF0EE693A9FEDFC1BB0EE412ABB
:1017E000F0EE612A02F0F4FCB0EE40BAF0EE60BA1E
:1017F0009FEDF84BB0EE4A3AF0EE6A3AB0EE4A2A64
:10180000F0EE6A2AB0EE491AF0EE691AB0EE480A14
:10181000F0EE680A02F0DCFCB0EE40FAF0EE60FA9E
:101820009FEDEE9BB0EE494AF0EE694A9FEDE93B31
:101830009FEDE82BB0EE4A1AF0EE6A1AB0EE480AB5
:10184000F0EE680A02F0C4FCB0EE40EAF0EE60EAA6
:101850009FEDE4ABB0EE493AF0EE693AB0EE4A4A99
:10186000F0EE6A4AB0EE492AF0EE692A9FEDD91BE4
:10187000B0EE480AF0EE680A02F0AAFCB0EE40DAD8
:10188000F0EE60DA9FEDD93BB0EE4A2AF0EE6A2A1C
:10189000B0EE434AF0EE634AB0EE491AF0EE691A30
:1018A000B0EE480AF0EE680A02F092FCB0EE40CAD0
:1018B000F0EE60CA9FEDC74B9FEDCE8BB0EE483A7D
:1018C000F0EE683A9FEDCD1B9DED400BB0EE412A46
:1018D000F0EE612A02F07CFCB0EE40AAF0EE60AAC5
:1018E0009FEDC84B9FEDBB3B9FEDBA2BB0EE481A66
:1018F000F0EE681A9DED400B02F06AFCB0EE409AE3
:10190000F0EE609A9FEDC13BB0EE434AF0EE634AC1
:101910009FEDBC2B9FEDAF1B9DED400B02F058FCE3
:10192000B0EE408AF0EE608A9FEDBA0B8DED280B89
:101930009FEDBA0B8DED240B9FEDBA0B8DED220BB5
:101940009FEDA40B8DED260B9FEDB80B8DED200BBD
:101950009FEDB80B8DED1E0B9FEDB80B53EC1A2BC2
:101960008DED1C0B51EC1B0BFEF714FD41EC100B25
:1019700053EC192B8DED0C0B51EC1B0BFEF70AFDF4
:1019800041EC100B53EC182B8DED120B51EC1B0B93
:10199000FEF700FD41EC1B0B53EC1A2B51EC1F0B17
:1019A000FEF7F8FC41EC100B53EC192B8DED160BE8
:1019B00051EC1F0BFEF7EEFC41EC100B53EC182B17
:1019C0008DED140B51EC1F0BFEF7E4FC41EC100BFA
:1019D00053EC1A2B8DED100B51EC1E0BFEF7DAFCBD
:1019E00041EC1F0B53EC192B51EC1E0BFEF7D2FCF4
:1019F00041EC100B53EC182B8DED0E0B51EC1E0B24
:101A0000FEF7C8FC41EC100B53EC1A2B8DED0A0BC2
:101A100051EC1D0BFEF7BEFC41EC1E0B53EC192BD9
:101A200051EC1D0BFEF7B6FC41EC100B53EC182BE0
:101A30008DED060B51EC1D0BFEF7ACFC41EC100BD1
:101A400053EC1A2B8DED040B51EC1C0BFEF7A2FC92
:101A500041EC1A0B53EC192B51EC1C0BFEF79AFCC2
:101A600041EC190B53EC182B51EC1C0BFEF792FCBC
:101A700041EC180BB0EE491AF0EE691AB0EE4E0ABE
:101A8000F0EE6E0A02F086FBB0EE40DAF0EE60DABD
:101A90009DED061BB0EE4F0AF0EE6F0A02F07AFBE6
:101AA000B0EE481AF0EE681A02F074FBB0EE40EAAD
:101AB000F0EE60EA9DED0E1B9DED160B02F06AFB49
:101AC0009DED041B02F066FBB0EE40CAF0EE60CA6A
:101AD0009DED141B9DED0C0B02F05CFB9DED0A1BB4
:101AE00002F058FBB0EE409AF0EE609A9DED101BAC
:101AF0009DED120B02F04EFBB0EE408AF0EE608AD4
:101B000053EC182B51EC1B0BFEF79DFB53EC192BE0
:101B1000FEF799FB53EC1C2BFEF795FB53EC1E2BA9
:101B2000FEF791FB53EC1D2BFEF78DFB53EC1A2BAC
:101B3000FEF789FB9DED1C0B41EC1F0B53EC1A2BA0
:101B400051EC100BFEF726FC9DED1E0B41EC1D0B1E
:101B500053EC1A2B51EC100BFEF71CFC9DED200BE7
:101B600041EC1A0B53EC1E2B51EC100BFEF712FC40
:101B70009DED260B41EC1E0B53EC1C2B51EC100B76
:101B8000FEF708FC9DED220B41EC1C0B53EC192BCE
:101B900051EC100BFEF7FEFB9DED240B41EC190BF5
:101BA00053EC182B51EC100BFEF7F4FB41EC180B27
:101BB00053EC1B2B9DED280B44E0000000000000BF
:101BC000004060C00000000000C062C000000000D3
:101BD000008066C00000000000000000000000005F
:101BE000004060400000000000C0624000000000B3
:101BF0000080664000000000000049C000000000B6
:101C0000000059C000000000000049400000000032
:101C10000000594000000000000008C00000000063
:101C2000000000C0000000000000F0BF0000000045
:101C300000001440000000000000244000000000EC
:101C400000002E4051EC100BFEF7A4FB53EC182BB8
:101C5000FEF7F9FA53EC192BFEF7F5FA53EC1C2BAF
:101C6000FEF7F1FA53EC1E2BFEF7EDFA53EC1A2BAC
:101C7000FEF7E9FA53EC1D2BFEF7E5FA53EC1F2BA8
:101C8000FEF7FAFB2EB041EC100BBDEC108B1FBD24
:101C900010B50221094800F0E3FA094A094B002176
:101CA00018B101201060196003E01868064B186035
:101CB0001160BDE81040022000F0EEB900040240BF
:101CC00078000020000000201400002010B508213A
:101CD000094800F0C5FA094A094B002118B1012052
:101CE0001060196003E01868064B18601160BDE8C9
:101CF0001040082000F0D0B900040240800000200D
:101D0000080000201C00002010B51021094800F038
:101D1000A7FA094A094B002118B101201060196087
:101D200003E01868064B18601160BDE810401020F1
:101D300000F0B2B900040240840000200C00002032
:101D40002000002010B52021094800F089FA094A36
:101D5000094B002118B101201060196003E01868D8
:101D6000064B18601160BDE81040202000F094B9C7
:101D7000000402407C000020040000201800002025
:101D8000704790F83510022903D080214165012069
:101D90007047052180F835100068016821F00101C5
:101DA00001600020704700002DE9F84304464FF021
:101DB0000009CDF8009063484FF41651A56D0068F6
:101DC000B0FBF1F72E6894F85C10082000FA01F1DE
:101DD00031420FD021680A6852070BD50A6822F0F9
:101DE00004020A6094F85C108840A860606D40F0BE
:101DF0000100606594F85C104FF0010808FA01F0EA
:101E0000304208D021684969090604D5A860606D90
:101E100040F00200606594F85C1004208840304275
:101E200008D021680968890704D5A860606D40F072
:101E30000400606594F85C1010208840304218D08F
:101E400021680968090714D5A8602068016849035A
:101E500004D50068000308D5A16C07E00168C90536
:101E600003D4016821F008010160216C09B120460A
:101E7000884794F85C1020208840304231D0216897
:101E80000968C9062DD5A86094F835000528206892
:101E9000016806D0490347D5006800031DD4616C72
:101EA0001CE021F0160101602068416921F08001E9
:101EB0004161206C08B9A06C20B12068016821F054
:101EC0000801016094F85C103F208840A86084F805
:101ED000349084F83580216D1FE0E16B09B1204614
:101EE0008847606D00282BD0606DC00714D0052096
:101EF00084F835002068016821F001010160009834
:101F0000401C0090B84203D820680068C007F6D192
:101F100084F8349084F83580E16C002910D001B049
:101F20002046BDE8F04308470168C905D5D40168DB
:101F300021F01001016084F8349084F83580CCE7FA
:101F4000BDE8F883940000202DE9F041044600F03C
:101F500091F906465CB1002584F83450022084F8DB
:101F600035002068016821F0010101600DE00120C9
:101F7000BDE8F08100F07EF9801B052805D92020FE
:101F80006065032084F83500F2E720680068C00728
:101F9000F0D12268116820480140D4E901031843B8
:101FA000D4E903363343184363691843A3691843DC
:101FB000E3691843236A18430843616A042903D17B
:101FC000D4E90B1319430843106020684069666A1E
:101FD00020F0070130460E43012704280CD1A06AE7
:101FE0000643E06A40B12046FEF746FC20B140209F
:101FF000606584F83570BAE7206846612046FEF7D0
:1020000027FC94F85C203F2191408160656584F84D
:1020100035700020ACE700003F8010F02DE9F04162
:102020000446866D90F83400002501280DD001206B
:1020300084F8340094F835700020012F07D084F81C
:10204000340002252846BDE8F0810220FBE7022784
:1020500084F8357060652046FEF738FC94F85C1013
:102060003F208840B0602068016841F0160101609F
:102070002068416941F080014161206C20B12068F5
:10208000016841F0080101602068016841F0010128
:102090000160D7E770470000044910B50A680242A2
:1020A00002D00860FFF7F6FF10BD0000143C0140AD
:1020B0002DE9F84FDFF87CB100224FF001084FF016
:1020C000030A4FF00F090BF1040E00BF0B6808FA6A
:1020D00002F42340A3426ED14D68022D01D0122D8F
:1020E0000ED1D50800EB850CDCF820505607F70E12
:1020F00009FA07F6B5430E69BE402E43CCF82060BE
:10210000066855000F790AFA05FC07F0030726EA6E
:102110000C06AF40374307604E68012E05D0022EF3
:1021200003D0112E01D0122E0ED18668CF6826EA78
:102130000C06AF40374387604668A6430C79C4F36A
:102140000014944034434460C6688C6826EA0C0648
:10215000AC403443C4604C68E40065D5364C256817
:1021600045F480452560246822F0030504F480448A
:102170000094324C2E19D6F8084895072F0F09FA0B
:1021800007F5AC432E4DA84201D1002524E02D4D8A
:10219000A84201D101251FE02B4DA84201D1022503
:1021A0001AE02A4DA84201D1032515E0284DA84286
:1021B00002D1042510E037E0264DA84201D10525C3
:1021C0000AE0254DA84201D1062505E0234DA8428D
:1021D00001D1072500E00825BD402543C6F8085871
:1021E000DBF800405D464E689C43F60300D51C4377
:1021F0002C60DEF8004075464E689C43B60300D55F
:102200001C432C600B4D08352C684E689C43F6022D
:1022100000D51C432C60074D0C352C684E689C4340
:10222000B60200D51C432C60521C102AFFF44EAF9E
:10223000BDE8F88F003C01404438024000300140C6
:10224000000002400004024000080240000C02406E
:10225000001002400014024000180240001C02401E
:102260000069084000D0012070470AB181617047C1
:102270000904FBE7014880687047000088000020DF
:10228000024881680278114481607047880000200C
:102290000B4810B5016841F400710160016841F418
:1022A00080610160016841F480710160032000F0E9
:1022B0006FF8002000F006F800F024F8002010BDB0
:1022C000003C024070B50D4D04464FF47A712878F9
:1022D000B1FBF0F00A490968B1FBF0F000F0E6FC50
:1022E00048B9102C07D200222146501E00F030F8C9
:1022F00000206C6070BD012070BD000088000020CF
:10230000940000200A4808B5016841F4804101604A
:10231000006800F4804000900548001F016841F00B
:1023200080510160006800F08050009008BD0000FE
:1023300044380240002809DB00F01F0201219140CF
:102340004009800000F1E020C0F800117047000053
:10235000F0B40E4B1B680C46C3F30223C3F1070510
:10236000042D00D90425191D072901D2002300E0FE
:10237000DB1E012606FA05F1491E214099409E40C8
:10238000761E16403143F0BC01F0A4BE0CED00E017
:10239000064900F0070208684FF6FF03184040EABC
:1023A0000220034A10430860704700000CED00E073
:1023B0000000FA052DE9F0470E46050065D0DFF86C
:1023C0001481D8F80000F7B200F00F00B04207D235
:1023D00088F80070D8F8000000F00F00B04254D127
:1023E00028683D4C810712D5400703D5206840F48A
:1023F000E05020602878000703D5206840F4604052
:1024000020602068A96820F0F00008432060287848
:10241000C0072DD0304968680839012812D0022839
:1024200013D0032811D00968890700292DDA216803
:1024300021F0030101432160FFF71CFF814641F2B7
:10244000883A0EE009688903EFE709688901ECE73B
:10245000FFF710FFA0EB0901514502D90320BDE8A9
:10246000F0872068696800F00C00B0EB810FEFD1B5
:10247000D8F80010404601F00F01B14207D90770AB
:10248000006800F00F00B04201D00120E7E7287893
:10249000400705D52068E96820F4E0500843206033
:1024A0002878000706D52068296920F4604040EAB2
:1024B000C100206000F016F82168084AC1F303113A
:1024C000515CC840064908600020FFF7FBFE002071
:1024D000C5E70000003C024008380240C042000846
:1024E00094000020154810B5006810F00C02144844
:1024F00013D01449042A0FD0082A0ED10F4C241FE0
:102500002268236802F03F025B0207D52068C0F30F
:102510008810A0FB010106E0084610BD2168C1F348
:102520008811A1FB00010023FDF74AFE2168C1F3D9
:102530000141491C4900B0FBF1F010BD08380240D0
:102540000024F40040787D012DE9F84F050076D095
:102550002878DFF8F8B2BE4CC00749D0DBF800108D
:102560005846C1F38101012908D00068C0F38100F9
:1025700002280AD1201D0068400206D52068800389
:1025800036D568680028E2D032E06868B0F5803F50
:1025900010D0B0F5A02F206810D020F4803020603B
:1025A000206820F4802020606868A0B1FFF762FEF8
:1025B00006460CE0206840F48030F4E740F48020C8
:1025C0002060F7E7FFF756FE801B642873D8206869
:1025D0008003F7D50CE0FFF74DFE064605E000BF8F
:1025E000FFF748FE801B6428F0D820688003F7D4EA
:1025F0002878DFF8608280074FF000093ED5DBF8CD
:102600000010584611F00C0F09D00068C0F381008B
:1026100002280BD18D48001F0068400206D42068B4
:10262000800715D5E868012809D111E0E868B8B13C
:102630000120C8F80000FFF71DFE064605E002E194
:10264000FFF718FE801B0228C0D820688007F7D546
:102650002068296920F0F80040EAC10020600DE000
:10266000C8F80090FFF706FE064604E0FFF702FEFA
:10267000801B02281FD820688007F7D4287800071D
:1026800022D5724E744869696C3671B101210160BE
:10269000FFF7F0FD074604E0FFF7ECFDC01B022842
:1026A00009D830688007F7D50EE0C0F80090FFF732
:1026B000E1FD074605E083E0FFF7DCFDC01B0228D3
:1026C0007ED830688007F7D42878400768D5DFF8CF
:1026D0007CA100270AF1380ADAF80000C0000BD408
:1026E000DAF8001041F08051CAF80010DAF8000062
:1026F000012700F080500090584E3068C00510D47B
:10270000306840F480703060FFF7B4FD009005E061
:10271000FFF7B0FD0099401A022851D83068C00573
:10272000F6D54A4EA868683601280FD005283068CB
:1027300010D020F001003060306820F004003060DC
:10274000A868B8B1FFF796FD00900FE0306840F040
:102750000100F4E740F004003060F7E7FFF78AFD7E
:102760000099411A41F28830814264D8306880076C
:10277000F4D50EE0FFF77EFD009007E0FFF77AFD4D
:102780000099411A41F28830814254D8306880075C
:10279000F4D42FB1DAF8001021F08051CAF80010FB
:1027A000A869C0B3DBF80010C1F3810102294AD047
:1027B0000228484607D0C8F86000FFF75BFD00E03C
:1027C00039E005463AE04746C8F86000FFF752FD99
:1027D000064604E0FFF74EFD801B02282BD8206838
:1027E0008001F7D4D5E907010843A96A1C4A4908C2
:1027F00002EB01416A6A41EA8211084395F82C1004
:1028000040EA01611148001F016001203866FFF7AE
:1028100031FD054605E014E0FFF72CFD401B0228C2
:1028200009D820688001F7D50BE000BFFFF722FD33
:10283000401B022802D90320BDE8F88F20688001E0
:10284000F4D40020F8E70120F6E700000838024041
:102850000038024000004742800E474200700040AE
:102860000000FFFF7047000038B5016804464A6861
:102870008868C043430606D5C30704D1D3435B062B
:1028800001D4216C05E0830708D4D3431B0605D48B
:10289000616C01B02046BDE830400847830603D58F
:1028A000430601D5C30551D4D3439B064ED44306FA
:1028B0000AD494F85130032B49D0636D43F00403DC
:1028C0006365CB688B680093830609D4636D43F01E
:1028D000010363658B6800930B6823F040030B6072
:1028E000C00506D4606D40F008006065206880680F
:1028F0000090606D002829D02068416821F0E00137
:102900004160012084F85100900701D4D00722D003
:102910002068416821F003014160114DE06C40B135
:102920000565E06CFFF72DFA18B1606D40F04000CE
:102930006065A06C002809D00565A06CFFF721FA3E
:10294000002803D0606D40F04000606538BDC86865
:102950008868009038BD2046FFF784FF38BD00002E
:10296000053A000870B5040005D00025A56294F86A
:10297000510010B106E0012070BD84F8505020468F
:1029800000F030F8022084F851002068016821F03E
:1029900040010160D4E901010843D4E90312114365
:1029A000084361690843218B01F400710843E16920
:1029B0000843216A0843A16A084321680860A069A6
:1029C000042101EA1040616A0843216848602068D8
:1029D000C16921F40061C1616565012084F851007D
:1029E000002070BD70B586B0064614216846FDF71C
:1029F0001FFC24493068884241D1234800250168E2
:102A000041F480510160006800F4805005901E4838
:102A10001438016841F0010101600068694600F066
:102A200001000590F02000900220CDE9010503206F
:102A30000390052004901548FFF73AFB154C144805
:102A400020604FF0C060C4E901054FF48060C4E924
:102A5000035080106561C4E9065025622046656216
:102A6000FFF772FA08B1FFF78BF9F4640022114600
:102A70002320A663FFF76CFC2320FFF75BFC06B066
:102A800070BD0000003001404438024000000240A8
:102A900010640240F00100202DE9F04104460026B8
:102AA0008068042318B96568B5F5827F0ED094F864
:102AB0005050012D13D0012784F8507094F851C064
:102AC0000025BCF1010F0DD002264FE084F85130F3
:102AD0002046BDE8F04113460A4600F053B80220F4
:102AE000BDE8F08171B16AB184F851306565A163C8
:102AF000A287E28725646564A586E586B0F5004F68
:102B000002D006E0012631E02068016821F480410E
:102B10000160E16C17480864E16C1748C863E16C18
:102B20001648C864E06C0565E38F2168A26B0C3120
:102B3000E06CFFF773FA38B1606D40F0100060652B
:102B4000012684F8517011E020680168490603D419
:102B5000016841F0400101602068416841F02001B6
:102B600041602068416841F00101416084F85050A3
:102B70003046B5E7373A00084B3A0008153A0008E6
:102B8000704770472DE9F041044690F85000002648
:102B900001280DD0012784F8507094F851000025C9
:102BA000D4F804C001280FD0BCF5827F0AD102E01E
:102BB0000220BDE8F081D4F808C0BCF1000F01D1BB
:102BC000042801D0022660E049B342B33BB394F835
:102BD0005100042802D0052084F851006565216366
:102BE000A386E386A263A387E3872564656494F8DC
:102BF0005100042815D0E16C264808642648E16C91
:102C0000C863E16C2548C864E06C0565E38F216802
:102C1000A26B0C31E06CFFF701FAE0B906E0012687
:102C200033E0E16C1E4808641E48E8E7206841680C
:102C300041F001014160A06C0564A06CC563A06C0B
:102C4000C564A06C0565E38E2268216B0C32A06C14
:102C5000FFF7E4F938B1606D40F0100060650126BF
:102C600084F8517011E020680168490603D40168B6
:102C700041F0400101602068416841F0200141605D
:102C80002068416841F00201416084F850503046AC
:102C90008FE70000413A00089F3A0008153A000803
:102CA000373A00084B3A00087047704710B5401E8D
:102CB000B0F1807F01D3012010BD4FF0E0246061AE
:102CC0000F21601701F006FA0020A06107202061A3
:102CD000002010BD7047704710B590F83C20012AC5
:102CE00022D0012280F83C20CA688C6822F440720D
:102CF00022434C6822F4806222430C6822F4006272
:102D000022430C6922F4805222434C6922F400527F
:102D10002243C969002322F480420A4301684A64BD
:102D200080F83C30002010BD022010BD70B590F836
:102D30003C20012A19D0012400F83C4F02224270A5
:102D400050F83C3C5A689D6822F070060A68496851
:102D5000324325F0800529435A6050F83C2C91609D
:102D6000447000210170084670BD022070BD10B58E
:102D7000040003D094F83D0010B107E0012010BD1D
:102D8000002084F83C00204600F00CF8022084F873
:102D90003D00211D206801F033F8012084F83D003A
:102DA000002010BD08B501682348814209D123489D
:102DB000016841F001010160006800F0010000902D
:102DC00008BD1E48001FB1F1804F11D01C4A91422E
:102DD0001DD1016841F0020101600068002200F08D
:102DE0000200009011461D20FFF7B2FA1D201FE0DF
:102DF000016841F0010101600068002200F001005B
:102E0000009011461C20FFF7A3FA1C2010E00D4A89
:102E10009142D5D1016841F00401016000680022AF
:102E200000F00400009011461E20FFF791FA1E20CA
:102E3000BDE80840FFF77EBA000001404438024078
:102E400000040040000800400168CA6842F0010226
:102E5000CA600068816801F00701062903D0016893
:102E600041F001010160002070470168CA6822F04A
:102E70000102CA600068016A41F21112114207D1D1
:102E8000016A9210114203D1016821F00101016031
:102E90000020704770B5044690F83C00012817D018
:102EA000012584F83C50022084F83D0020688268A7
:102EB00022F0770222F47F4282600868502830D0E6
:102EC0000DDC20284DD005DC98B310283BD148E01C
:102ED000022070BD302844D0402834D139E0602829
:102EE00028D0702806D0B0F5805F2CD0B0F5005FF8
:102EF00029D10AE0CB68D1E90121206800F0F1FF77
:102F00002068816841F0770109E0CB68D1E90121AF
:102F1000206800F0E6FF2068816841F4804181600C
:102F200011E0CA684968206801F0B0F850212068B3
:102F300007E016E0CA684968206801F0B8F8602127
:102F4000206800F0D8FF84F83D50002084F83C0051
:102F500070BDCA684968206801F098F8402120686F
:102F6000EFE7226801461046EBE7704770B504466C
:102F7000006801694FF00005C943890715D4C1688D
:102F8000C943890711D4E91E016101202077206817
:102F900080698007204602D0FFF7E7FF04E000F0D9
:102FA000C3F8204600F045F9257720680169C94338
:102FB000490717D4C168C943490713D46FF0040106
:102FC0000161022020772068806910F4407F20464C
:102FD00002D0FFF7CAFF04E000F0A6F8204600F098
:102FE00028F9257720680169C943090716D4C16803
:102FF000C943090712D46FF008010161042020774A
:103000002068C0698007204602D0FFF7AEFF04E0C9
:1030100000F08AF8204600F00CF925772068016955
:10302000C943C90617D4C168C943C90613D46FF090
:1030300010010161082020772068C06910F4407FEA
:10304000204602D0FFF791FF04E000F06DF8204623
:1030500000F0EFF8257720680169C943C90708D156
:10306000C168C943C90704D1891E0161204600F027
:103070001BF920680169C943090609D4C168C9431D
:10308000090605D46FF0800101612046FFF722FE9A
:1030900020680169C943490609D4C168C943490682
:1030A00005D46FF040010161204600F037FB206835
:1030B0000169C94389060BD4C168C943890607D48D
:1030C0006FF0200101612046BDE87040FFF703BEAC
:1030D00070BD000010B586B0044614216846FDF7A7
:1030E000A7F80E492068884216D10D4800210268D1
:1030F00042F010020260006800F0100005904FF4EA
:10310000085000900220CDE901010120CDE9031013
:1031100069460448FEF7CCFF06B010BD0000014030
:103120003038024000100240704770B5044690F8F5
:103130003C000D4601280DD0012684F83C60022099
:1031400084F83D0042B1042A18D0082A2AD00C2A5B
:103150004DD139E0022070BD206800F0D5FE206816
:10316000816941F0080181612068816921F00401D1
:103170008161206881692A69114311E0206800F0AB
:10318000F3FE2068816941F40061816120688169F2
:1031900021F480618161206881692A6941EA022104
:1031A000816124E0206800F015FF2068C16941F0CA
:1031B0000801C1612068C16921F00401C161206872
:1031C000C1692A69114311E0206800F037FF2068C7
:1031D000C16941F40061C1612068C16921F4806165
:1031E000C1612068C1692A6941EA0221C16184F88C
:1031F0003D60002084F83C0070BD10B5040003D091
:1032000094F83D0010B107E0012010BD002084F8C3
:103210003C00204600F00CF8022084F83D00211DFF
:10322000206800F0EDFD012084F83D00002010BD75
:103230007047704710B50268044631B1042908D0C0
:10324000082925D00C2908D126E0D06840F00200DA
:1032500002E0D06840F00400D0600122206800F055
:1032600033FE0F492068884202D00E49884203D1BC
:10327000416C41F4004141642068816801F007011C
:10328000062903D0016841F001010160002010BD52
:10329000D06840F00800DFE7D06840F01000DBE7BE
:1032A00000000140000401402DE9F041FF492DEDEF
:1032B000068B0068096888427DD1FD4C01220221FD
:1032C0002046FEF7D2FF012208212046FEF7CDFF5F
:1032D000012210212046FEF7C8FF012220212046AE
:1032E000FEF7C3FFF1484038FFF7AEFDEF48072275
:1032F000F049D838FFF7D0FBEE480025A0F14C0488
:103300000178217001290CD09FEDEB0B84ED160B99
:1033100084ED180B606B401C6063606B0A287CD2E4
:10332000A9E1A16B491CA1636563256330F9011F05
:10333000E163B0F902002064A06B0A28F0D3606852
:10334000FDF71AF99FEDDE9B53EC192BFDF722F8E0
:103350009FEDDD8B53EC182BFDF71CF89FEDDCABDC
:1033600053EC1A2BFDF716F8FDF776F900EE100A6C
:1033700084ED050AA068FDF7FFF853EC192BFDF763
:1033800009F853EC182BFDF705F853EC1A2BFDF751
:1033900001F8FDF761F900EE100A84ED060AE06815
:1033A000FDF7EAF853EC192BFCF7F4FF53EC182B5C
:1033B000FCF7F0FF00E0ADE153EC1A2BFCF7EAFF5D
:1033C000FDF74AF900EE100A84ED070A2069FDF7BF
:1033D000D3F853EC192BFCF7DDFF53EC182BFCF75B
:1033E000D9FF53EC1A2BFCF7D5FFFDF735F900EEAA
:1033F000100AB94984ED080A94ED080A10EE100A83
:10340000884203DD94ED050A84ED080A94ED0B0A69
:10341000D4ED050AB8EE401A00E033E1F4EEC10A3B
:10342000F1EE10FA76DDB8EE401AD4ED060AF4EEAD
:10343000C10AF1EE10FA6DDDB8EE401AD4ED070ABC
:10344000F4EEC10AF1EE10FA64DDB8EE400AD4EDF4
:10345000080AF4EEC00AF1EE10FA5BDD9FED9F0A58
:1034600084ED090A206CFDF776F841EC180BE06B4F
:10347000FDF771F841EC100BB0EE481AF0EE681A47
:10348000FDF71EFF94ED161B51EC100B53EC112BA6
:10349000FCF7D9FE41EC100B84ED160B206CFDF708
:1034A0005AF841EC180BE06BFDF755F841EC100BA6
:1034B000B0EE481AF0EE681AFEF778F994ED181B92
:1034C00051EC100B53EC112BFCF7BDFE41EC100B33
:1034D00084ED180B94ED160B51EC100BFDF759F819
:1034E000C0EBC00000EB800041F664163044642756
:1034F00090FBF7F0606494ED180B51EC100BFDF7A6
:1035000048F8C0EBC00000EB8000304490FBF7F0BF
:1035100088E0FFE794ED050ADFED710A94ED061AE5
:1035200020EE200AF3EE0E0A01EE600A94ED071A6F
:1035300001EE200AD4ED080A9FED6A8A94ED061A7E
:1035400000EE880AD4ED050A70EE810A94ED071AA0
:1035500070EE810A94ED081A70EE810A80EE201A4E
:1035600084ED091A94ED090A10EE100AFDF730F8FF
:1035700041EC100B94ED161BFDF7BEF994ED161BF4
:1035800051EC100B53EC112BFCF75DFE41EC100BD2
:1035900084ED160B94ED090A10EE100AFDF718F8E9
:1035A00041EC100B94ED181BFDF71AFC94ED181B61
:1035B00051EC100B53EC112BFCF745FE41EC100BBA
:1035C000494884ED180B94ED050A10EE101A81425B
:1035D0001BDD94ED0B0AD4ED060AB8EE401AF4EEAA
:1035E000C10AF1EE10FA10D2B8EE400AD4ED070A83
:1035F000F4EEC00AF1EE10FA07D294ED080A10EECC
:10360000101A814201DD84ED098A94ED160B51EC0C
:10361000100BFCF7BEFF606494ED180B51EC100B1F
:10362000FCF7B7FFA064E06B002800DA40420A28EC
:1036300007DA206C002800DA40420A2801DA6564C3
:10364000A564606C6321632800DD6164626C6FF0C7
:103650006200824200DA6064A26C632A00DDA16429
:10366000A16C814200DAA0640021606C00F0C0FA15
:103670000121A06C48E00021084600F0B9FA0121C0
:10368000002041E0206B401C2063206B6FF045065A
:10369000C828F0D2A56394ED180B53EC102B94EDD1
:1036A000160B51EC100BFCF7BFFF1FE07001002060
:1036B000000C02405C000020000000000000000040
:1036C0002D431CEBE2361A3F00000000004075401D
:1036D000000000000000E03F000070420000000019
:1036E000000070C200007042000048424FF000012C
:1036F00005D2304600F07CFA0121462004E0462045
:1037000000F076FA01213046BDEC068BBDE8F041B1
:1037100000F06EBABDEC068BBDE8F0817047FEE7A5
:103720002DE9F04186B014216846FCF781FD374849
:103730000024016841F001010160016801F001010C
:103740000591016841F002010160016801F0020188
:103750000591016841F010010160016801F010015C
:103760000591016841F0080101600068284F00F0F0
:1037700008004FF490460590002231463846FEF787
:1037800074FDDFF8908000223A214046FEF76DFD7F
:103790003A2521480095CDE9010469461F48FEF706
:1037A00087FC00960126CDE90164694638460394FA
:1037B000FEF77EFC0095CDE901646946404603941E
:1037C000FEF776FC002211460720FEF7C1FD072018
:1037D000FEF7B0FD002211460920FEF7B9FD0920D1
:1037E000FEF7A8FD002211460A20FEF7B1FD0A20CF
:1037F000FEF7A0FD002211461720FEF7A9FD1720B5
:10380000FEF798FD06B0BDE8F081000030380240B8
:1038100000100240000C0240000031100004024081
:10382000094808490160002141608160C16001616F
:10383000416181610162416281620A21C162FFF7D7
:1038400091B80000003001409800002010B596B0FB
:1038500000240F9410941194129413941C21684620
:103860001494FCF7E5FC202107A8FCF7E1FC2248B2
:10387000204901600A21C0E9011440F28F11C0E91A
:10388000031444618461FFF772FA4FF480500F9083
:103890000FA91948FFF7FEFA1748FFF7AEFC13947B
:1038A00013A915481494FFF741FA6020CDE90004EC
:1038B0000294039404940594002269460E480694E9
:1038C000FFF733FC082269460B48FFF72EFC0794EC
:1038D000089409944FF400500A94CDE90B4007A9CD
:1038E00005480E94FFF7F8F90348FFF7F3FB16B00D
:1038F00010BD000000000140F000002010B586B0AF
:1039000000241148009401940294039404944FF00D
:103910008041059401602921C0E901141321C0E907
:1039200003148461FFF723FA4FF480500090694636
:103930000548FFF7AFFA049404A903480594FFF77C
:10394000F5F906B010BD00003001002010B586B0BA
:1039500000241248009401940294039404940E49A4
:103960000594016042F2CF01C0E9011440F2E73151
:10397000C0E903148461FFF7FAF94FF48050009016
:1039800069460648FFF786FA049404A9034805949B
:10399000FFF7CCF906B010BD000400407001002014
:1039A00010B586B000241148009401940294039449
:1039B00004940D49059401602921C0E901140121F5
:1039C000C0E903148461FFF7D2F94FF480500090EE
:1039D00069460648FFF75EFA049404A90348059473
:1039E000FFF7A4F906B010BD00080040B0010020A8
:1039F000FEE77047704700000148FEF735BF000042
:103A00009800002010B5806B0021C187C186FEF7A9
:103A100029FF10BD10B5806B01684A6822F00302CF
:103A20004A60416D41F010014165012180F851105B
:103A3000FEF718FF10BD10B5806BFFF7A2F810BDA0
:103A400010B5806BFFF731F910BD70B50546846B7A
:103A5000FEF710FC024628680068C0051BD42068E9
:103A6000416821F0200141602068416821F0030194
:103A700041606421204600F03FF808B120206065D5
:103A80000020E087012084F85100606D18B12046C5
:103A9000FEF7E8FE70BD2046FFF772F870BD70B506
:103AA0000546846BFEF7E6FB024628680068C00501
:103AB0001ED42068416821F0200141606421204625
:103AC00000F03BF818B1606D40F0200060652068A0
:103AD000416821F0030141600020E086E087012079
:103AE00084F85100606D18B12046FEF7BBFE70BD32
:103AF0002046FFF7D9F870BD38B504464068B0F5E8
:103B0000827F0BD1A068B0F5004F02D0B0F5806F76
:103B100004D12068036823F0400303600B46009241
:103B200000228021204600F018F8002804D0606DA3
:103B300040F020006065032038BD38B50B46009288
:103B400004460022802100F008F8002804D0606DAF
:103B500040F020006065032038BD2DE9F0411D468E
:103B600017460E460446DDF8188008E0681C06D0AB
:103B7000FEF780FBA0EB0800A8420BD255B12068ED
:103B8000806836EA000030D00020B842EED1002034
:103B9000BDE8F0812068416821F0E0014160606883
:103BA000B0F5827F0BD1A068B0F5004F02D0B0F520
:103BB000806F04D12068016821F040010160A06A93
:103BC000B0F5005F09D12068016821F4005101605F
:103BD0002068016841F400510160012084F851001F
:103BE000002084F850000320D2E70120CDE7704781
:103BF00070B54242104C01290AD04FF4804500288C
:103C00000FDB024608210D4800F01AF800220DE0F3
:103C10004FF40065002802DB02460021F3E7002193
:103C200000E00821054800F00BF801222946204653
:103C3000BDE87040FEF719BB00100240F000002004
:103C4000094B00689B6A53436422B3FBF2F229B12B
:103C5000042905D0082905D00264704742637047E3
:103C600082637047C263704710000020FEF708BBF4
:103C700030B593B030216846FCF7DAFA14210CA86D
:103C8000FCF7D6FA18480025016841F08051016020
:103C9000006800F0805011901448016841F48041A0
:103CA00001600068022400F480401190012003901C
:103CB00010200490009406940820CDE90750542069
:103CC000CDE9090404200B906846FEF73DFC0CA9E1
:103CD0000F2081E83100E002CDE90F0502210CA898
:103CE000FEF768FB13B030BD403802400070004062
:103CF0001048016841F4700101600F48016841F00B
:103D0000010101600C4A00210832116002680B4B6E
:103D10001A400260031D0A4A1A60026822F48022D7
:103D2000026005480C30016002495806803908607D
:103D30007047000088ED00E000380240FFFFF6FE0B
:103D40001030002410B50E4C002202212046FEF750
:103D50008CFA002208212046FEF787FA0022102163
:103D60002046FEF782FA002220212046FEF77DFA47
:103D70000448FFF77AF8BDE810400248FFF7F6B8AC
:103D8000000C0240300100200148FFF7EFB80000AE
:103D90007001002011480068012803D11048016813
:103DA000491C01600F480068012803D10E480168D2
:103DB000491C01600D480068012803D10C480168C6
:103DC000491C01600B480068012803D10A480168BA
:103DD000491C01600948FFF7C9B8000078000020BD
:103DE000000000207C000020040000208000002053
:103DF00008000020840000200C000020B0010020FA
:103E0000F0B50268254C264D264E274F274B4FF024
:103E1000804CA04209D0604507D0A84205D0B042EE
:103E200003D0B84201D0984204D122F0700E4A6803
:103E300042EA0E02A0421BD0604519D0A84217D01A
:103E4000B04215D0B84213D0984211D0184DA842B4
:103E50000ED0184DA8420BD0174DA84208D0174DD0
:103E6000A84205D0164DA84202D0164DA84203D153
:103E700022F44075CA682A434D6922F080022A4321
:103E800002608A68C2620A688262A04201D09842D7
:103E900001D10969016301214161F0BD00000140C8
:103EA0000004004000080040000C004000040140F5
:103EB000004001400044014000480140001800401B
:103EC000001C00400020004010B501F01F0301213C
:103ED000046A99408C430462016A9A40114301626A
:103EE00010BD10B5846842EA032224F47F440A43DB
:103EF0002243826010BD826822F070020A4342F0C1
:103F00000701816070470000F0B5026A22F00102EB
:103F10000262036A42688469124E24F073050C68D9
:103F20002C4323F002058B682B430D4DA84201D092
:103F3000B04205D123F00807CB683B4323F00403CC
:103F4000A84201D0B04205D14D6922F44072154318
:103F50008A692A4342608461496841630362F0BD13
:103F60000000014000040140F0B5026A22F0100296
:103F70000262026A436884690D6824F4E64444EAF4
:103F800005248D6822F0200242EA05120F4D104EE2
:103F9000A84201D0B04206D1CF6822F0800242EAA6
:103FA000071222F04002A84201D0B04207D14D6969
:103FB00023F4406343EA85038D6943EA8503436044
:103FC0008461496881630262F0BD00000000014025
:103FD00000040140F0B5026A22F480720262026AB3
:103FE0004368C46922F4007224F073050C68124E11
:103FF0002C438D6842EA05220E4DA84201D0B04202
:1040000006D1CF6822F4006242EA072222F48062DD
:10401000A84201D0B04207D14D6923F4405343EA8E
:1040200005138D6943EA05134360C4614968C163A0
:104030000262F0BD000001400004014030B5026A98
:1040400022F480520262046A4268C3690D6823F454
:10405000E64343EA05238D6824F4005444EA05341A
:10406000084DA84202D0084DA84204D14D6922F45F
:10407000804242EA85124260C36149680164046279
:1040800030BD0000000001400004014010B5036A8B
:10409000046A24F001040462846924F0F00444EA10
:1040A000021423F00A020A438461026210BD10B5B3
:1040B000036A23F0100303628369046A23F47043E4
:1040C00043EA023224F0A00343EA01118261016253
:1040D00010BDFEE70907090E002804DB00F1E0200F
:1040E00080F80014704700F00F0000F1E02080F825
:1040F000141D704702E008C8121F08C1002AFAD137
:1041000070477047002001E001C1121F002AFBD157
:104110007047000008B5FEF7BBF8FFF7A9FDFFF7F1
:10412000FFFA1A48016841F480010160006800222A
:1041300000F48000009011463820FEF709F938207D
:10414000FEF7F8F8FFF7DAFBFFF700FCFFF728FCB3
:10415000FFF766FBFFF77AFB00210D48FFF76AF8CF
:1041600008210B48FFF766F809488030FEF76CFE1F
:104170000748C030FEF768FE00210846FFF738FD0B
:1041800001210020FFF734FDFEE700003038024037
:10419000F000002010B52DED048BB0EE418AF0EE5A
:1041A000618AB0EE409AF0EE609A53EC182B51EC15
:1041B000190BFCF739FA06D2B0EE490AF0EE690A9B
:1041C000BDEC048B10BDB0EE480AF0EE680AF7E7CC
:1041D00010B52DED0C8BB0EE41AAF0EE61AAB0EE59
:1041E000408AF0EE608AB0EE449AF0EE649AB0EE47
:1041F00043BAF0EE63BAB0EE42CAF0EE62CA9FED87
:104200002ADB53EC1A2B51EC180BFCF7F5F906D20C
:10421000B0EE4D0AF0EE6D0ABDEC0C8B10BD53EC08
:104220001C2B51EC180BFCF7E7F912D253EC1A2BAC
:1042300051EC1C0BFCF7A8F841EC190B53EC1A2BB2
:1042400051EC180BFCF7A0F841EC100B53EC192BB8
:1042500022E053EC1B2B51EC180BFCF7CDF902D2EA
:104260009FED130BD8E753EC192B51EC180BFCF70F
:10427000C3F9CDD253EC1B2B51EC190BFCF784F88E
:1042800041EC1A0B53EC192B51EC180BFCF77FF88F
:1042900053EC1A2B41EC100B51EC100BFCF7ECF823
:1042A00041EC100BB8E70000000000000000000027
:1042B000000000000000F03F000610160006101677
:1042C00000000000000000000102030406070809C6
:1042D000F04200080000002098000000F4400008B0
:1042E0008843000898000020B80500000441000839
:1042F00000000000000000000000000000000000BE
:1043000000000000000000000000000000000000AD
:10431000000000000000000000000000000000009D
:1043200000000000000000008F0100000F000000EE
:10433000000000000000000000000000000000007D
:10434000000000000000000000000000000000006D
:10435000000000000000000000000000000000005D
:10436000000000000000000000000000000000004D
:10437000000000000000000001000000100000002C
:08438000000000000024F4001D
:040000050800018965
:00000001FF
