:020000040800F2
:10000000300600209D010008632B0008B32800087B
:10001000612B00081D0800081B30000800000000CC
:10002000000000000000000000000000852B000818
:10003000A908000800000000652B0008B52B000887
:10004000B7010008B7010008B7010008B7010008B0
:10005000B7010008B7010008B70100083D12000809
:10006000B701000879120008B5120008B7010008AE
:10007000B7010008B7010008B7010008B701000880
:10008000B7010008B7010008B7010008B701000870
:10009000B7010008B7010008B7010008F112000815
:1000A000B7010008B7010008B7010008B701000850
:1000B0008D2C0008D12C0008DD2C0008B7010008A9
:1000C000B7010008B7010008B7010008692B000854
:1000D000B7010008B7010008B7010008B701000820
:1000E000B7010008B7010008B7010008B701000810
:1000F000B7010008B7010008B7010008B701000800
:10010000B7010008B7010008B7010008B7010008EF
:10011000B7010008B7010008B7010008B7010008DF
:1001200021080008B7010008B7010008B70100085E
:10013000B7010008B7010008B7010008B7010008BF
:10014000B7010008B7010008B7010008B7010008AF
:10015000B7010008B7010008B7010008B70100089F
:10016000B7010008B7010008B7010008B70100088F
:10017000B7010008B7010008B7010008000000003F
:10018000B7010008B7010008DFF80CD000F034FB1D
:10019000004800475D3000083006002006488047D0
:1001A00006480047FEE7FEE7FEE7FEE7FEE7FEE75C
:1001B000FEE7FEE7FEE7FEE7392C000889010008AC
:1001C0002DE9F05F0546002092469B46884606468C
:1001D000814640241BE0284641464746224600F01F
:1001E00054FA53465A46C01A914110D31146184644
:1001F000224600F03BFA2D1A67EB01084F462246D3
:100200000120002100F032FA17EB00094E41201EB8
:10021000A4F10104DFDC484631462A464346BDE8E6
:10022000F09FD2B201E000F8012B491EFBD27047CB
:100230000022F6E710B513460A4604461946FFF7B2
:10024000F0FF204610BD2DE9FE4F804681EA0300F5
:10025000C00F0C46009021F0004123F00045B8EBA0
:100260000200A94105D24046214690461C460B4655
:10027000024623F00040104347D0270DC7F30A0081
:10028000C3F30A510290401A019040286BDAC3F37D
:10029000130040F4801B0098924620B10023D2EB5B
:1002A000030A63EB0B0B01985946C0F1400250461C
:1002B00000F0DCF906460D4650465946019A00F01A
:1002C000F4F910EB08006141002487EA115284EA36
:1002D000E7731A4340D0009A62B3019A012A4FEAA9
:1002E000075215DC001B61EB02014FF0004202EAED
:1002F0000752CDE90042001C41F5801132462B46E1
:1003000000F02BFA03B0BDE8F08F40462146F9E734
:10031000001B61EB0201001C41F5801300185B41DA
:100320002018A2F5001747EB030140EAD570B61973
:100330006D4111E06D084FEA360645EAC0754FEA97
:100340000752001B61EB0201001C41F580114908B6
:100350004FEA30000019514132462B4603B0BDE848
:10036000F04F00F0EBB90098012240000023D0EBE1
:10037000020263EBE073009821464FEAE074B8EBA9
:10038000000061EB0401E9E783F000435BE781F0E3
:10039000004158E72DE9FE4F81EA030404F00044D0
:1003A00021F0004100944FF0000B23F0004350EA8D
:1003B00001045ED052EA03045BD0C3F30A54C1F3D4
:1003C0000A552C44A4F2F3340194A0FB0254C1F367
:1003D000130141F48011C3F3130343F4801301FBB1
:1003E000024400FB034E840A970A44EA815447EA18
:1003F0008357A4FB076802958D0A05FB07854FEA22
:10040000932C04FB0C542705029D4FEA065847EA3B
:100410001637B5EB08056EEB070C870E920E47EA10
:10042000811742EA8312A7FB0201B6EB0B0164EBD2
:1004300000042B0D43EA0C335E1844EB1C50DA46E3
:100440005146E7FB0201C5F313044FEA0B3343EABD
:1004500014534FEA0432019C43EA0603A4F10C044E
:100460000294009CCDE900B400F077F903B0BDE838
:10047000F08F00200146F9E72DE9F04D81EA0304F1
:1004800004F0004B21F0004514464FF0000A23F021
:10049000004150EA050220D054EA01021DD0C5F304
:1004A0000A570246C5F31303C1F31300C1F30A56FA
:1004B00040F4801543F48013A7EB0608101BD646C2
:1004C00008F2FD3873EB050002D308F1010801E0E2
:1004D00092185B41B8F1000F03DA00200146BDE835
:1004E000F08D00204FF48011064684460EE0171B65
:1004F00073EB050705D3121B63EB050306434CEAB8
:10050000010C49084FEA300092185B4150EA01079C
:10051000EDD152EA030012D082EA040083EA050119
:10052000084305D0101BAB4106D20122002306E090
:1005300000224FF0004302E06FF0010253101AEB6B
:1005400006004CEB085110EB0A0041EB0B01BDE833
:10055000F04D00F0F3B80EB540F2334102910021A6
:10056000CDE900110A460B4600F0F7F803B000BDD4
:1005700070B5C1F30A5201F000450024C1F3130124
:1005800040F2FF3341F480119A4201DA002070BD3D
:1005900040F233439A42A2F2334203DC524200F06B
:1005A00074F800E090402C43F1D0404270BD00F060
:1005B000004230F000400AD0C10D01F56071C0F377
:1005C000160042EA0151C20840071143704700205B
:1005D0000146704730B5041E71F1000404DB4FF092
:1005E0000044404264EB0101141E73F1000405DB7A
:1005F0001C464FF00043524263EB04038B4208BF9A
:10060000824230BD30B5041E71F1000404DB4FF0AE
:100610000044404264EB0101141E73F1000405DB49
:100620001C464FF00043524263EB0403994208BF5B
:10063000904230BD01F0004330B421F0004150EA57
:10064000010206D00A0DA2F56072C1F31301002A5F
:1006500002DC30BC00207047440F44EAC104C100F2
:10066000E01830BC00EBC25000F031B8202A04DBA7
:10067000203A00FA02F1002070479140C2F12003B5
:1006800020FA03F3194390407047202A04DB203AF4
:1006900021FA02F00021704721FA02F3D040C2F1A2
:1006A00020029140084319467047202A06DBCB17E9
:1006B000203A41FA02F043EAE07306E041FA02F31D
:1006C000D040C2F1200291400843194670470029EA
:1006D000A8BF7047401C490008BF20F001007047C8
:1006E00010B4B0FA80FC00FA0CF050EA010404BF28
:1006F00010BC704749B1CCF1200421FA04F411FA7E
:100700000CF118BF012121430843A3EB0C01CB1DC1
:100710004FEA00614FEA102042BF002010BC704732
:1007200000EBC35010440029A4BF10BC7047401C0C
:10073000490008BF20F0010010BC704710B5141E1E
:1007400073F1000408DA401C41F1000192185B418A
:100750001A4301D120F0010010BD2DE9F04D924661
:100760009B4611B1B1FA81F202E0B0FA80F2203278
:100770009046FFF77BFF04460F4640EA0A0041EA35
:100780000B0153465A46084313D0114653EA010061
:1007900019D0C8F140025046FFF777FF05460E46D4
:1007A000504659464246FFF761FF084305D00120F5
:1007B00004E020463946BDE8F08D0020054346EAB6
:1007C000E0762C4337430A986305E40AA0EB08005F
:1007D0000022FD0A44EA47540A3002D500200146AF
:1007E000E9E7010510196941DDE90845001969418A
:1007F000BDE8F04DA2E70000064C074D06E0E068BA
:1008000040F0010394E8070098471034AC42F6D357
:10081000FFF7BEFC0832000828320008FEE700009F
:10082000014800F097BD0000D001002001681823A6
:10083000CAB2103AB2FBF3F2054B6FF30901032A77
:100840009B5CC36500D9091D81650846704700009F
:10085000F031000810B5014600208B698A6A4FF01C
:10086000C07453B1B3F5005F15D072B1012A0CD03A
:10087000022A0AD0032A09D104E01AB1012A06D0BB
:10088000022A03D1C96AC90100D5012010BDC96A75
:10089000A142FAD010BD002AF7D0012AF2D0022AD4
:1008A000F3D0032AF3D010BD7047000010B52DED32
:1008B000040B2DED108BAEB0B0EE408AF0EE608AE6
:1008C0009FEDFD4B9FEDFE9BB0EE493AF0EE693A8D
:1008D0009FEDFD1BB0EE412AF0EE612A02F014FC00
:1008E000B0EE40BAF0EE60BA9FEDF94B9FEDF23BEF
:1008F0009FEDF12BB0EE491AF0EE691AB0EE480AFE
:10090000F0EE680A02F000FCB0EE40FAF0EE60FA99
:100910009FEDF14B9FEDEE3B9FEDED2B9FEDE61B29
:10092000B0EE480AF0EE680A02F0EEFBB0EE40EAE4
:10093000F0EE60EA9FEDEAABB0EE4A4AF0EE6A4AAA
:100940009FEDE53B9FEDE42B9FEDE11BB0EE480AE8
:10095000F0EE680A02F0D8FBB0EE40DAF0EE60DAB2
:100960009FEDE19BB0EE4A2AF0EE6A2AB0EE494ACA
:10097000F0EE694AB0EE493AF0EE693A9FEDD61BC7
:10098000B0EE480AF0EE680A02F0BEFBB0EE40CAD4
:10099000F0EE60CA9FEDD68BB0EE493AF0EE693AC0
:1009A000B0EE484AF0EE684A9FEDC92B9FEDC81B98
:1009B0009DED400B02F0A8FBB0EE40AAF0EE60AA5D
:1009C0009FEDCD4BB0EE483AF0EE683AB0EE482AD3
:1009D000F0EE682AB0EE491AF0EE691A9DED400B70
:1009E00002F092FBB0EE409AF0EE609A9FEDC43BAD
:1009F000B0EE434AF0EE634A9FEDBF2BB0EE481ACB
:100A0000F0EE681A9DED400B02F07EFBB0EE408ADE
:100A1000F0EE608A9FEDA80B8DED280B9FEDBA0BD1
:100A20008DED220B9FEDBA0B8DED260B9FEDA80BE4
:100A30008DED200B9FEDB80B8DED1E0B9FEDB80BD0
:100A40008DED1C0B9FEDA40B53EC1A2B8DED1A0BA7
:100A500051EC1B0BFFF79EFC41EC100B53EC192BD8
:100A60008DED2A0B51EC1B0BFFF794FC41EC100BA6
:100A700053EC182B8DED180B51EC1B0BFFF78AFC78
:100A800041EC100B53EC1A2B8DED160B51EC1F0B98
:100A9000FFF780FC41EC100B53EC192B8DED140B80
:100AA00051EC1F0BFFF776FC41EC100B53EC182BAD
:100AB0008DED120B51EC1F0BFFF76CFC41EC100B92
:100AC00053EC1A2B8DED100B51EC1E0BFFF762FC53
:100AD00041EC100B53EC192B8DED0E0B51EC1E0B52
:100AE000FFF758FC41EC100B53EC182B51EC1E0B8C
:100AF000B0EE40FAF0EE60FAFFF74CFC41EC100B60
:100B000053EC1A2B8DED0A0B51EC1D0BFFF742FC39
:100B100041EC100B53EC192B8DED080B51EC1D0B18
:100B2000FFF738FC41EC100B53EC182B8DED060B46
:100B300051EC1D0BFFF72EFC41EC100B53EC1A2B64
:100B40008DED040B51EC1C0BFFF724FC41EC1A0B50
:100B500053EC192B51EC1C0BFFF71CFC41EC1D0B4B
:100B600053EC182B51EC1C0BFFF714FC41EC180B49
:100B70009DED2ABB9DED141B9DED180B02F0A6FA0E
:100B8000B0EE40EAF0EE60EA9DED121B9DED160B13
:100B900002F09CFA9DED0E1B02F098FAB0EE40CAEE
:100BA000F0EE60CAB0EE4F1AF0EE6F1A9DED100B2A
:100BB00002F08CFA9DED081B02F088FAB0EE409A24
:100BC000F0EE609A9DED061B9DED0A0B02F07EFA99
:100BD000B0EE4A1AF0EE6A1A02F078FAB0EE40AAC5
:100BE000F0EE60AAB0EE4D1AF0EE6D1A9DED040B1A
:100BF00002F06CFAB0EE40DAF0EE60DA53EC1D2B46
:100C000051EC180BFFF71FFB53EC1A2BFFF71BFBE4
:100C100053EC192BFFF717FB53EC1C2BFFF713FBBF
:100C200053EC1E2BFFF70FFB53EC1B2BFFF70BFBBB
:100C300041EC100B53EC1B2BB0EE40FAF0EE60FAD7
:100C40009DED1A0B51EC100BFFF7A4FB9DED1C0B57
:100C500041EC1E0B53EC1B2B51EC100BFFF79AFBD6
:100C60009DED1E0B41EC1B0B53EC1C2B51EC100BA0
:100C7000FFF790FB9DED200B41EC1C0B53EC192B67
:100C800051EC100BFFF786FB9DED260B41EC190B89
:100C900053EC1A2B51EC100BFFF77CFB9DED220B54
:100CA00041EC1A0B53EC1D2B51EC100BFFF772FBB0
:100CB00041EC1D0B38E000000000000000003EC0C9
:100CC00000000000008046C00000000000004EC090
:100CD00000000000000000000000000000003E4096
:100CE00000000000008046400000000000004E4070
:100CF0000000000000C0524000000000008056408C
:100D0000000000000000594000000000000034C056
:100D100000000000000024C000000000000024408B
:100D200000000000000034409DED280B53EC182B10
:100D300051EC100BFFF72EFB53EC1D2BFFF783FA42
:100D400053EC1A2BFFF77FFA53EC192BFFF77BFAC2
:100D500053EC1C2BFFF777FA53EC1B2BFFF773FABE
:100D600053EC1E2BFFF76FFAB0EE4F0AF0EE6F0A4E
:100D700053EC102BFFF780FB2EB041EC100BBDECB9
:100D8000108B1FBD10B52DED040B2DED108BAEB0EB
:100D9000B0EE408AF0EE608A9FEDFD4B9FEDFE9B2A
:100DA000B0EE493AF0EE693A9FEDFD1BB0EE412AF4
:100DB000F0EE612A02F0A8F9B0EE40BAF0EE60BAA7
:100DC0009FEDF94B9FEDF23B9FEDF12BB0EE491AF1
:100DD000F0EE691AB0EE480AF0EE680A02F094F9F3
:100DE000B0EE40FAF0EE60FA9FEDF14B9FEDEE3B76
:100DF0009FEDED2B9FEDE61BB0EE480AF0EE680A82
:100E000002F082F9B0EE40EAF0EE60EA9FEDEAAB64
:100E1000B0EE4A4AF0EE6A4A9FEDE53B9FEDE42BC7
:100E20009FEDE11BB0EE480AF0EE680A02F06CF9A3
:100E3000B0EE40DAF0EE60DA9FEDE19BB0EE4A2AC8
:100E4000F0EE6A2AB0EE494AF0EE694AB0EE493A4D
:100E5000F0EE693A9FEDD61BB0EE480AF0EE680A54
:100E600002F052F9B0EE40CAF0EE60CA9FEDD68BA8
:100E7000B0EE493AF0EE693AB0EE484AF0EE684A10
:100E80009FEDC92B9FEDC81B9DED400B02F03CF977
:100E9000B0EE40AAF0EE60AA9FEDCD4BB0EE483A1E
:100EA000F0EE683AB0EE482AF0EE682AB0EE491A41
:100EB000F0EE691A9DED400B02F026F9B0EE409A73
:100EC000F0EE609A9FEDC43BB0EE434AF0EE634A09
:100ED0009FEDBF2BB0EE481AF0EE681A9DED400B67
:100EE00002F012F9B0EE408AF0EE608A9FEDA80B96
:100EF0008DED280B9FEDBA0B8DED240B9FEDBA0BFA
:100F00008DED220B9FEDA80B8DED260B9FEDB80B01
:100F10008DED200B9FEDB80B8DED1E0B9FEDA40BFF
:100F200053EC1A2B8DED1C0B51EC1B0BFFF732FA17
:100F300041EC100B53EC192B8DED0C0B51EC1B0BF2
:100F4000FFF728FA41EC100B53EC182B8DED120B28
:100F500051EC1B0BFFF71EFA41EC1B0B53EC1A2B49
:100F600051EC1F0BFFF716FA41EC100B53EC192B49
:100F70008DED160B51EC1F0BFFF70CFA41EC100B2B
:100F800053EC182B8DED140B51EC1F0BFFF702FAED
:100F900041EC100B53EC1A2B8DED100B51EC1E0B8A
:100FA000FFF7F8F941EC100B53EC192B8DED180BF2
:100FB00051EC1E0BFFF7EEF941EC100B53EC182B24
:100FC0008DED0E0B51EC1E0BFFF7E4F941EC100B0D
:100FD00053EC1A2B8DED0A0B51EC1D0BFFF7DAF9D0
:100FE00041EC1F0B53EC192B51EC1D0BFFF7D2F901
:100FF00041EC1E0B53EC182B51EC1D0BFFF7CAF9FB
:1010000041EC100B53EC1A2B8DED040B51EC1C0B27
:10101000FFF7C0F941EC1A0B53EC192B51EC1C0BE8
:10102000FFF7B8F941EC190B53EC182B51EC1C0BE2
:10103000FFF7B0F941EC180BB0EE491AF0EE691A5F
:10104000B0EE4F0AF0EE6F0A02F040F8B0EE40DA70
:10105000F0EE60DAB0EE4E1AF0EE6E1A9DED180B5F
:1010600002F034F8B0EE481AF0EE681A02F02EF8EA
:10107000B0EE40EAF0EE60EA9DED0E1B9DED160B22
:1010800002F024F89DED041B02F020F8B0EE40CAF7
:10109000F0EE60CA9DED141B9DED0C0B02F016F8EE
:1010A0009DED0A1B02F012F8B0EE409AF0EE609A45
:1010B0009DED101B9DED120B02F008F8B0EE408A7A
:1010C000F0EE608A53EC182B51EC1B0BFFF7BBF8CA
:1010D00053EC192BFFF7B7F853EC1C2BFFF7B3F8C1
:1010E00053EC1E2BFFF7AFF853EC1D2BFFF7ABF8BB
:1010F00053EC1A2BFFF7A7F89DED1C0B41EC1F0BCF
:1011000053EC1A2B51EC100BFFF744F99DED1E0B1D
:1011100041EC1D0B53EC1A2B51EC100BFFF73AF975
:101120009DED200B41EC1A0B53EC1E2B51EC100BD8
:10113000FFF730F99DED260B41EC1E0B53EC1C2BF9
:1011400051EC100BFFF726F99DED220B41EC1C0B27
:1011500053EC192B51EC100BFFF71CF99DED240BF0
:1011600041EC190B53EC182B51EC100BFFF712F953
:101170009DED280B41EC180B53EC1B2B51EC100B85
:10118000FFF708F953EC182BFFF75DF838E0000083
:101190000000000000003EC000000000008046C0CB
:1011A0000000000000004EC0000000000000000031
:1011B0000000000000003E400000000000804640AB
:1011C0000000000000004E400000000000C052403F
:1011D0000000000000805640000000000000594060
:1011E00000000000000034C000000000000024C027
:1011F0000000000000002440000000000000344017
:1012000053EC192BFFF71FF853EC1C2BFFF71BF8BF
:1012100053EC1E2BFFF717F853EC1A2BFFF713F8BC
:1012200053EC1D2BFFF70FF853EC1F2BFFF724F99E
:101230002EB041EC100BBDEC108B1FBD10B5022180
:10124000094800F0A7FA094A094B002118B101200A
:101250001060196003E01868064B18601160BDE863
:101260001040022000F0B2B90004024058000020F3
:10127000000000201000002010B50821094800F0EF
:1012800089FA094A094B002118B101201060196040
:1012900003E01868064B18601160BDE81040082094
:1012A00000F094B900040240600000200800002013
:1012B0001800002010B51021094800F06BFA094A07
:1012C000094B002118B101201060196003E0186873
:1012D000064B18601160BDE81040102000F076B990
:1012E00000040240640000200C0000201C000020CC
:1012F00010B52021094800F04DFA094A094B002198
:1013000018B101201060196003E01868064B1860DE
:101310001160BDE81040202000F058B900040240E0
:101320005C0000200400002014000020704790F8AA
:101330003510022903D08021416501207047052125
:1013400080F835100068016821F00101016000207B
:10135000704700002DE9F84304464FF00009CDF82E
:10136000009063484FF41651A56D0068B0FBF1F78B
:101370002E6894F85C10082000FA01F131420FD079
:1013800021680A6852070BD50A6822F004020A6035
:1013900094F85C108840A860606D40F001006065C2
:1013A00094F85C104FF0010808FA01F0304208D0C0
:1013B00021684969090604D5A860606D40F0020003
:1013C000606594F85C1004208840304208D02168A1
:1013D0000968890704D5A860606D40F00400606565
:1013E00094F85C1010208840304218D021680968B9
:1013F000090714D5A86020680168490304D500686E
:10140000000308D5A16C07E00168C90503D4016891
:1014100021F008010160216C09B12046884794F849
:101420005C1020208840304231D021680968C9060C
:101430002DD5A86094F8350005282068016806D0ED
:10144000490347D5006800031DD4616C1CE021F0FE
:10145000160101602068416921F080014161206C22
:1014600008B9A06C20B12068016821F00801016072
:1014700094F85C103F208840A86084F8349084F889
:101480003580216D1FE0E16B09B120468847606D12
:1014900000282BD0606DC00714D0052084F83500DB
:1014A0002068016821F0010101600098401C009053
:1014B000B84203D820680068C007F6D184F8349099
:1014C00084F83580E16C002910D001B02046BDE8D9
:1014D000F04308470168C905D5D4016821F010011F
:1014E000016084F8349084F83580CCE7BDE8F88357
:1014F000740000202DE9F041044600F055F906463D
:101500005CB1002584F83450022084F8350020684E
:10151000016821F0010101600DE00120BDE8F081CA
:1015200000F042F9801B052805D9202060650320C2
:1015300084F83500F2E720680068C007F0D122681F
:10154000116820480140D4E901031843D4E9033667
:101550003343184363691843A3691843E369184385
:10156000236A18430843616A042903D1D4E90B13A1
:1015700019430843106020684069666A20F007013B
:1015800030460E43012704280CD1A06A0643E06AC6
:1015900040B12046FFF75EF920B14020606584F835
:1015A0003570BAE7206846612046FFF73FF994F8A6
:1015B0005C203F2191408160656584F83570002092
:1015C000ACE700003F8010F070470000044910B500
:1015D0000A68024202D00860FFF7F6FF10BD000063
:1015E000143C01402DE9F84FDFF87CB100224FF0A8
:1015F00001084FF0030A4FF00F090BF1040E00BF72
:101600000B6808FA02F42340A3426ED14D68022D04
:1016100001D0122D0ED1D50800EB850CDCF820503E
:101620005607F70E09FA07F6B5430E69BE402E437A
:10163000CCF82060066855000F790AFA05FC07F01F
:10164000030726EA0C06AF40374307604E68012EB9
:1016500005D0022E03D0112E01D0122E0ED1866895
:10166000CF6826EA0C06AF40374387604668A6433A
:101670000C79C4F30014944034434460C6688C6809
:1016800026EA0C06AC403443C4604C68E40065D5DF
:10169000364C256845F480452560246822F0030512
:1016A00004F480440094324C2E19D6F8084895076B
:1016B0002F0F09FA07F5AC432E4DA84201D10025A2
:1016C00024E02D4DA84201D101251FE02B4DA84259
:1016D00001D102251AE02A4DA84201D1032515E0C7
:1016E000284DA84202D1042510E037E0264DA8423B
:1016F00001D105250AE0254DA84201D1062505E0C6
:10170000234DA84201D1072500E00825BD4025430F
:10171000C6F80858DBF800405D464E689C43F60367
:1017200000D51C432C60DEF8004075464E689C4393
:10173000B60300D51C432C600B4D08352C684E6851
:101740009C43F60200D51C432C60074D0C352C68D9
:101750004E689C43B60200D51C432C60521C102AD4
:10176000FFF44EAFBDE8F88F003C01404438024022
:101770000030014000000240000402400008024026
:10178000000C024000100240001402400018024009
:10179000001C02400069084000D0012070470AB1D7
:1017A000816170470904FBE70148806870470000C9
:1017B0006800002002488168027811448160704707
:1017C000680000200B4810B5016841F40071016009
:1017D000016841F480610160016841F48071016039
:1017E000032000F06FF8002000F006F800F024F865
:1017F000002010BD003C024070B50D4D04464FF472
:101800007A712878B1FBF0F00A490968B1FBF0F071
:1018100000F0DAFB48B9102C07D200222146501EF6
:1018200000F030F800206C6070BD012070BD000039
:1018300068000020740000200A4808B5016841F4DF
:1018400080410160006800F4804000900548001F5E
:10185000016841F080510160006800F08050009004
:1018600008BD000044380240002809DB00F01F02D8
:10187000012191404009800000F1E020C0F80011F2
:1018800070470000F0B40E4B1B680C46C3F30223F4
:10189000C3F10705042D00D90425191D072901D21C
:1018A000002300E0DB1E012606FA05F1491E214057
:1018B00099409E40761E16403143F0BC01F0AEBB0D
:1018C0000CED00E0064900F0070208684FF6FF0340
:1018D000184040EA0220034A1043086070470000A5
:1018E0000CED00E00000FA052DE9F0470E4605007A
:1018F00065D0DFF81481D8F80000F7B200F00F00CF
:10190000B04207D288F80070D8F8000000F00F004D
:10191000B04254D128683D4C810712D5400703D509
:10192000206840F4E05020602878000703D5206844
:1019300040F4604020602068A96820F0F00008436F
:1019400020602878C0072DD0304968680839012800
:1019500012D0022813D0032811D009688907002962
:101960002DDA216821F0030101432160FFF71CFFFC
:10197000814641F2883A0EE009688903EFE7096879
:101980008901ECE7FFF710FFA0EB0901514502D9EF
:101990000320BDE8F0872068696800F00C00B0EB18
:1019A000810FEFD1D8F80010404601F00F01B1428D
:1019B00007D90770006800F00F00B04201D0012085
:1019C000E7E72878400705D52068E96820F4E0506B
:1019D000084320602878000706D52068296920F48C
:1019E000604040EAC100206000F016F82168084A13
:1019F000C1F30311515CC840064908600020FFF79D
:101A0000FBFE0020C5E70000003C02400838024011
:101A1000F831000874000020154810B5006810F077
:101A20000C02144813D01449042A0FD0082A0ED1EE
:101A30000F4C241F2268236802F03F025B0207D587
:101A40002068C0F38810A0FB010106E0084610BD25
:101A50002168C1F38811A1FB00010023FEF7B0FB50
:101A60002168C1F30141491C4900B0FBF1F010BDF0
:101A7000083802400024F40040787D012DE9F84F39
:101A8000050076D02878DFF8F8B2BE4CC00749D000
:101A9000DBF800105846C1F38101012908D0006825
:101AA000C0F3810002280AD1201D0068400206D53B
:101AB0002068800336D568680028E2D032E0686884
:101AC000B0F5803F10D0B0F5A02F206810D020F4E2
:101AD00080302060206820F4802020606868A0B1F9
:101AE000FFF762FE06460CE0206840F48030F4E721
:101AF00040F480202060F7E7FFF756FE801B642843
:101B000073D820688003F7D50CE0FFF74DFE06463A
:101B100005E000BFFFF748FE801B6428F0D820686E
:101B20008003F7D42878DFF8608280074FF000093F
:101B30003ED5DBF80010584611F00C0F09D00068B4
:101B4000C0F3810002280BD18D48001F00684002BD
:101B500006D42068800715D5E868012809D111E06E
:101B6000E868B8B10120C8F80000FFF71DFE06467E
:101B700005E002E1FFF718FE801B0228C0D82068AC
:101B80008007F7D52068296920F0F80040EAC100F5
:101B900020600DE0C8F80090FFF706FE064604E05E
:101BA000FFF702FE801B02281FD820688007F7D4A9
:101BB0002878000722D5724E744869696C3671B175
:101BC00001210160FFF7F0FD074604E0FFF7ECFD9F
:101BD000C01B022809D830688007F7D50EE0C0F88E
:101BE0000090FFF7E1FD074605E083E0FFF7DCFD2D
:101BF000C01B02287ED830688007F7D428784007B9
:101C000068D5DFF87CA100270AF1380ADAF800006D
:101C1000C0000BD4DAF8001041F08051CAF800106F
:101C2000DAF80000012700F080500090584E30682C
:101C3000C00510D4306840F480703060FFF7B4FD08
:101C4000009005E0FFF7B0FD0099401A022851D836
:101C50003068C005F6D54A4EA868683601280FD00E
:101C60000528306810D020F001003060306820F086
:101C700004003060A868B8B1FFF796FD00900FE04F
:101C8000306840F00100F4E740F004003060F7E70E
:101C9000FFF78AFD0099411A41F28830814264D8E9
:101CA00030688007F4D50EE0FFF77EFD009007E076
:101CB000FFF77AFD0099411A41F28830814254D8E9
:101CC00030688007F4D42FB1DAF8001021F0805189
:101CD000CAF80010A869C0B3DBF80010C1F3810195
:101CE00002294AD00228484607D0C8F86000FFF70A
:101CF0005BFD00E039E005463AE04746C8F8600081
:101D0000FFF752FD064604E0FFF74EFD801B022858
:101D10002BD820688001F7D4D5E907010843A96AC8
:101D20001C4A490802EB01416A6A41EA82110843F0
:101D300095F82C1040EA01611148001F0160012054
:101D40003866FFF731FD054605E014E0FFF72CFD8E
:101D5000401B022809D820688001F7D50BE000BF9E
:101D6000FFF722FD401B022802D90320BDE8F88FAF
:101D700020688001F4D40020F8E70120F6E7000095
:101D8000083802400038024000004742800E4742B7
:101D9000007000400000FFFF7047000038B5016888
:101DA00004464A688868C043430606D5C30704D181
:101DB000D3435B0601D4216C05E0830708D4D343E9
:101DC0001B0605D4616C01B02046BDE830400847D1
:101DD000830603D5430601D5C30551D4D3439B06DF
:101DE0004ED443060AD494F85130032B49D0636D86
:101DF00043F004036365CB688B680093830609D4C2
:101E0000636D43F0010363658B6800930B6823F0F7
:101E100040030B60C00506D4606D40F008006065AB
:101E2000206880680090606D002829D02068416893
:101E300021F0E0014160012084F85100900701D4B5
:101E4000D00722D02068416821F003014160114D84
:101E5000E06C40B10565E06CFFF769FA18B1606DA0
:101E600040F040006065A06C002809D00565A06CBA
:101E7000FFF75DFA002803D0606D40F04000606518
:101E800038BDC8688868009038BD2046FFF784FFD9
:101E900038BD0000752B000870B5040005D0002582
:101EA000A56294F8510010B106E0012070BD84F8DD
:101EB0005050204600F030F8022084F8510020688D
:101EC000016821F040010160D4E901010843D4E92F
:101ED00003121143084361690843218B01F4007127
:101EE0000843E1690843216A0843A16A084321685D
:101EF0000860A069042101EA1040616A0843216872
:101F000048602068C16921F40061C16165650120F4
:101F100084F85100002070BD70B586B006461421CB
:101F20006846FEF785F923493068884240D1224847
:101F30000025016841F480510160006800F4805080
:101F400005901D481438016841F0010101600068E6
:101F5000694600F001000590F02000900220CDE9D4
:101F6000010503200390052004901448FFF73AFB75
:101F7000144C134820604FF0C060C4E901054FF4D1
:101F80008060C4E903506561A561E5612562204672
:101F90006562FFF7AFFA08B1FFF7C8F9F4640022F1
:101FA00011462320A663FFF76DFC2320FFF75CFC9E
:101FB00006B070BD003001404438024000000240CD
:101FC00010640240D001002010B5401EB0F1807FA7
:101FD00001D3012010BD4FF0E02460610F21601794
:101FE00001F01CF80020A06107202061002010BD36
:101FF0007047704710B590F83C20012A22D001228A
:1020000080F83C20CA688C6822F4407222434C68F5
:1020100022F4806222430C6822F4006222430C699D
:1020200022F4805222434C6922F400522243C969AF
:10203000002322F480420A4301684A6480F83C305D
:10204000002010BD022010BD70B590F83C20012A80
:1020500019D0012400F83C4F0222427050F83C3C59
:102060005A689D6822F070060A684968324325F074
:10207000800529435A6050F83C2C9160447000213F
:102080000170084670BD022070BD10B5040003D079
:1020900094F83D0010B107E0012010BD002084F845
:1020A0003C00204600F00CF8022084F83D00211D81
:1020B000206800F049FE012084F83D00002010BD9A
:1020C00008B501682348814209D12348016841F0DD
:1020D00001010160006800F00100009008BD1E4889
:1020E000001FB1F1804F11D01C4A91421DD10168EF
:1020F00041F0020101600068002200F0020000903F
:1021000011461D20FFF7BEFB1D201FE0016841F0B6
:10211000010101600068002200F0010000901146FA
:102120001C20FFF7AFFB1C2010E00D4A9142D5D1D7
:10213000016841F0040101600068002200F0040021
:10214000009011461E20FFF79DFB1E20BDE80840B1
:10215000FFF78ABB00000140443802400004004001
:10216000000800400168CA6842F00102CA600068C5
:10217000816801F00701062903D0016841F00101DF
:102180000160002070470168CA6822F00102CA603D
:102190000068016A41F21112114207D1016A9210DE
:1021A000114203D1016821F0010101600020704754
:1021B00070B5044690F83C00012817D0012584F83A
:1021C0003C50022084F83D002068826822F07702AB
:1021D00022F47F4282600868502830D00DDC20282D
:1021E0004DD005DC98B310283BD148E0022070BDEB
:1021F000302844D0402834D139E0602828D07028D5
:1022000006D0B0F5805F2CD0B0F5005F29D10AE090
:10221000CB68D1E90121206800F007FE20688168C1
:1022200041F0770109E0CB68D1E90121206800F095
:10223000FCFD2068816841F48041816011E0CA683A
:102240004968206800F0C6FE5021206807E016E0CB
:10225000CA684968206800F0CEFE6021206800F05E
:10226000EEFD84F83D50002084F83C0070BDCA6843
:102270004968206800F0AEFE40212068EFE7226840
:1022800001461046EBE7704770B5044600680169E7
:102290004FF00005C943890715D4C168C9438907B0
:1022A00011D4E91E01610120207720688069800730
:1022B000204602D0FFF7E7FF04E000F0C3F8204615
:1022C00000F045F9257720680169C943490717D40B
:1022D000C168C943490713D46FF0040101610220AA
:1022E00020772068806910F4407F204602D0FFF7F5
:1022F000CAFF04E000F0A6F8204600F028F9257790
:1023000020680169C943090716D4C168C943090790
:1023100012D46FF008010161042020772068C069A1
:102320008007204602D0FFF7AEFF04E000F08AF8F5
:10233000204600F00CF9257720680169C943C906D9
:1023400017D4C168C943C90613D46FF010010161E5
:10235000082020772068C06910F4407F204602D012
:10236000FFF791FF04E000F06DF8204600F0EFF871
:10237000257720680169C943C90708D1C168C943E5
:10238000C90704D1891E0161204600F01BF92068AD
:102390000169C943090609D4C168C943090605D4BE
:1023A0006FF0800101612046FFF722FE206801697D
:1023B000C943490609D4C168C943490605D46FF029
:1023C00040010161204600F073FA20680169C943A9
:1023D00089060BD4C168C943890607D46FF0200170
:1023E00001612046BDE87040FFF703BE70BD0000EC
:1023F00010B586B0044614216846FDF719FF0E4952
:102400002068884216D10D480021026842F010026F
:102410000260006800F0100005904FF42850009012
:102420000220CDE901010120CDE9031069460448ED
:10243000FFF7D8F806B010BD000001403038024068
:1024400000100240704770B5044690F83C000D46FD
:1024500001280DD0012684F83C60022084F83D005C
:1024600042B1042A18D0082A2AD00C2A4DD139E0CA
:10247000022070BD206800F0EBFC2068816941F00B
:10248000080181612068816921F00401816120686F
:1024900081692A69114311E0206800F009FD206874
:1024A000816941F4006181612068816921F4806162
:1024B0008161206881692A6941EA0221816124E001
:1024C000206800F02BFD2068C16941F00801C1615E
:1024D0002068C16921F00401C1612068C1692A69CD
:1024E000114311E0206800F04DFD2068C16941F4FE
:1024F0000061C1612068C16921F48061C161206807
:10250000C1692A6941EA0221C16184F83D60002065
:1025100084F83C0070BD10B5040003D094F83D0071
:1025200010B107E0012010BD002084F83C002046D7
:1025300000F00CF8022084F83D00211D206800F016
:1025400003FC012084F83D00002010BD7047704757
:1025500010B50268044631B1042908D0082925D0F5
:102560000C2908D126E0D06840F0020002E0D068D3
:1025700040F00400D0600122206800F049FC0F49BF
:102580002068884202D00E49884203D1416C41F450
:10259000004141642068816801F00701062903D0E9
:1025A000016841F001010160002010BDD06840F0D9
:1025B0000800DFE7D06840F01000DBE700000140D2
:1025C0000004014070B5A9492DED0C8B0068096825
:1025D0009FEDA79B9FEDA8ABA94C88427DD1A94D4B
:1025E000012202212846FFF7DAF8012208212846B5
:1025F000FFF7D5F8012210212846FFF7D0F8012275
:1026000020212846FFF7CBF898484038FFF7AAFD6D
:102610002068FDF7A0FF9FED9CBB53EC1B2BFDF743
:10262000B9FE9FED9B8B53EC182BFDF7B3FE9FED8E
:102630009ACB53EC1C2BFDF7ADFE9FED99DB53ECD1
:102640001D2BFDF719FFFDF7F5FF00EE100A84EDD5
:10265000040A6068FDF77FFF53EC1B2BFDF79AFE21
:1026600053EC182BFDF796FE53EC1C2BFDF792FE56
:1026700053EC1D2BFDF700FFFDF7DCFF00EE100A09
:1026800084ED050AA068FDF766FF53EC1B2BFDF7F0
:1026900081FE53EC182BFDF77DFE53EC1C2BFDF750
:1026A00079FE53EC1D2BFDF7E7FEFDF7C3FF00EEAF
:1026B000100A84ED060AE068FDF74DFF53EC1B2B72
:1026C000FDF768FE53EC182BFDF764FE53EC1C2B52
:1026D000FDF760FE53EC1D2B00E0C3E0FDF7CCFEE0
:1026E000FDF7A8FF00EE100A84ED070A94ED040A36
:1026F000DFED6D0A94ED051A60EE200AB3EE0E0AC6
:1027000041EE400A94ED061A41EE000A94ED070AE4
:102710009FED661A40EE010A94ED040A94ED051A45
:1027200030EE010A94ED061A30EE010A94ED071A14
:1027300030EE010A80EE801A84ED081A94ED080A42
:1027400010EE100AFDF733FF41EC100B94ED0A1B5D
:10275000FEF7ACF884ED0E0B94ED080A10EE100AAB
:10276000FDF725FF41EC100B94ED0A1BFEF79EF8D8
:1027700094ED0A1B51EC100B53EC112BFDF763FD8C
:1027800041EC100B53EC192B84ED0A0B94ED0A0B62
:1027900051EC100BFDF736FF01D284ED0A9B94ED4E
:1027A0000A0B53EC1A2B51EC100BFDF713FF01D25F
:1027B00084ED0AAB94ED080A10EE100AFDF7F7FE5F
:1027C00041EC100B94ED0C1BFEF7DCFA84ED100BC2
:1027D00094ED080A10EE100AFDF7E9FE41EC100B2B
:1027E00094ED0C1BFEF7CEFA94ED0C1B51EC100B84
:1027F00053EC112BFDF727FD41EC100B53EC192B7B
:1028000084ED0C0B94ED0C0B51EC100BFDF7FAFE64
:1028100001D284ED0C9B94ED0C0B53EC1A2B51EC74
:10282000100BFDF7D7FE01D284ED0CAB94ED0A0B33
:1028300051EC100BFDF79CFE02460C48002180383D
:1028400000F0A2F994ED0C0B51EC100BFDF790FE8B
:10285000BDEC0C8B02460421BDE870400348803873
:1028600000F092B9BDEC0C8B70BD0000500100204F
:102870000000000000C05840000000000000000000
:1028800010000020000C02402D431CEBE2361A3FE2
:102890000000000000407540000000000000E03F24
:1028A0009A9999999999D93F000070C20000704295
:1028B0007047FEE770B586B014216846FDF7B8FC96
:1028C0002D480024016841F001010160016801F018
:1028D00001010591016841F002010160016801F008
:1028E00002010591016841F010010160016801F0E9
:1028F00010010591016841F00801016000681F4E58
:1029000000F00800059000223A213046FEF747FF0C
:102910003A251B480095CDE9010469461948FEF7A0
:1029200061FE01200095CDE901046946304603941B
:10293000FEF758FE002211460720FEF7A3FF0720EE
:10294000FEF792FF002211460920FEF79BFF0920A7
:10295000FEF78AFF002211460A20FEF793FF0A20A5
:10296000FEF782FF002211461720FEF78BFF17208B
:10297000FEF77AFF06B070BD30380240000C02400E
:10298000000031100004024009480849016000219C
:1029900041608160C16001614161816101624162A8
:1029A00081620A21C162FFF777BA0000003001405E
:1029B0007800002010B596B000240F941094119464
:1029C000129413941C2168461494FDF731FC2021C5
:1029D00007A8FDF72DFC2448224901601421C0E915
:1029E000011440F28F11C0E9031444618461FFF7C0
:1029F0004CFB4FF480500F900FA91B48FFF7D8FBFA
:102A00001948FFF788FD139413A917481494FFF78A
:102A10001BFB6020CDE90004029403940494059408
:102A20000022694610480694FFF70DFD042269460E
:102A30000D48FFF708FD082269460B48FFF703FD24
:102A40000794089409944FF400500A94CDE90B4080
:102A500007A905480E94FFF7CDFA0348FFF7C8FC15
:102A600016B010BD00000140D000002010B586B0A7
:102A700000241148009401940294039404944FF0AC
:102A80008041059401602921C0E901141321C0E9A6
:102A900003148461FFF7F9FA4FF4805000906946FF
:102AA0000548FFF785FB049404A903480594FFF744
:102AB000CBFA06B010BD00001001002010B586B0A2
:102AC00000241248009401940294039404940E4943
:102AD0000594016042F2CF01C0E9011440F2E731F0
:102AE000C0E903148461FFF7D0FA4FF480500090DE
:102AF00069460648FFF75CFB049404A90348059463
:102B0000FFF7A2FA06B010BD0004004050010020FB
:102B100010B586B0002411480094019402940394E7
:102B200004940D49059401602921C0E90114012193
:102B3000C0E903148461FFF7A8FA4FF480500090B5
:102B400069460648FFF734FB049404A9034805943A
:102B5000FFF77AFA06B010BD00080040900100208F
:102B6000FEE77047704700000148FFF717B9000003
:102B70007800002010B5806B0021C187C186FFF767
:102B80000BF910BD70470000094B00685B6A5343A6
:102B90006422B3FBF2F229B1042905D0082905D03B
:102BA000026470474263704782637047C263704734
:102BB00010000020FEF7FEBD30B593B0302168460E
:102BC000FDF736FB14210CA8FDF732FB1848002551
:102BD000016841F080510160006800F08050119060
:102BE0001448016841F4804101600068022400F447
:102BF00080401190012003901020049000940694CE
:102C00000820CDE907505420CDE9090404200B9099
:102C10006846FEF733FF0CA90F2081E83100E0027F
:102C2000CDE90F0502210CA8FEF75EFE13B030BD02
:102C300040380240007000401048016841F47001C3
:102C400001600F48016841F0010101600C4A002158
:102C50000832116002680B4B1A400260031D0A4AD9
:102C60001A60026822F48022026005480C3001607C
:102C700002495806803908607047000088ED00E07E
:102C800000380240FFFFF6FE1030002410B50E4C55
:102C9000002202212046FEF782FD00220821204664
:102CA000FEF77DFD002210212046FEF778FD002270
:102CB00020212046FEF773FD0448FFF764FABDE8C3
:102CC00010400248FFF7E0BA000C0240100100205B
:102CD0000148FFF7D9BA00005001002011480068F0
:102CE000012803D110480168491C01600F480068A1
:102CF000012803D10E480168491C01600D48006895
:102D0000012803D10C480168491C01600B48006888
:102D1000012803D10A480168491C01600948FFF7EE
:102D2000B3BA000058000020000000205C00002022
:102D30000400002060000020080000206400002043
:102D40000C00002090010020F0B50268254C264DB3
:102D5000264E274F274B4FF0804CA04209D06045AC
:102D600007D0A84205D0B04203D0B84201D0984263
:102D700004D122F0700E4A6842EA0E02A0421BD033
:102D8000604519D0A84217D0B04215D0B84213D030
:102D9000984211D0184DA8420ED0184DA8420BD021
:102DA000174DA84208D0174DA84205D0164DA8428D
:102DB00002D0164DA84203D122F44075CA682A43B6
:102DC0004D6922F080022A4302608A68C2620A6862
:102DD0008262A04201D0984201D1096901630121B8
:102DE0004161F0BD000001400004004000080040C7
:102DF000000C00400004014000400140004401403C
:102E00000048014000180040001C00400020004025
:102E100010B501F01F030121046A99408C4304623C
:102E2000016A9A401143016210BD10B5846842EAFC
:102E3000032224F47F440A432243826010BD826847
:102E400022F070020A4342F00701816070470000DF
:102E5000F0B5026A22F001020262036A42688469E4
:102E6000124E24F073050C682C4323F002058B6886
:102E70002B430D4DA84201D0B04205D123F00807E5
:102E8000CB683B4323F00403A84201D0B04205D1F4
:102E90004D6922F4407215438A692A434260846175
:102EA000496841630362F0BD000001400004014035
:102EB000F0B5026A22F010020262026A4368846975
:102EC0000D6824F4E64444EA05248D6822F02002CB
:102ED00042EA05120F4D104EA84201D0B04206D171
:102EE000CF6822F0800242EA071222F04002A84294
:102EF00001D0B04207D14D6923F4406343EA850312
:102F00008D6943EA85034360846149688163026295
:102F1000F0BD00000000014000040140F0B5026A6D
:102F200022F480720262026A4368C46922F4007269
:102F300024F073050C68124E2C438D6842EA05227A
:102F40000E4DA84201D0B04206D1CF6822F40062F3
:102F500042EA072222F48062A84201D0B04207D19F
:102F60004D6923F4405343EA05138D6943EA051381
:102F70004360C4614968C1630262F0BD0000014062
:102F80000004014030B5026A22F480520262046AF1
:102F90004268C3690D6823F4E64343EA05238D685C
:102FA00024F4005444EA0534084DA84202D0084DE8
:102FB000A84204D14D6922F4804242EA851242605F
:102FC000C36149680164046230BD00000000014033
:102FD0000004014010B5036A046A24F0010404628D
:102FE000846924F0F00444EA021423F00A020A433C
:102FF0008461026210BD10B5036A23F010030362FE
:103000008369046A23F4704343EA023224F0A00384
:1030100043EA01118261016210BDFEE70907090E52
:10302000002804DB00F1E02080F80014704700F075
:103030000F0000F1E02080F8141D704702E008C87E
:10304000121F08C1002AFAD170477047002001E022
:1030500001C1121F002AFBD17047000008B5FEF71E
:10306000B1FBFFF7A9FDFFF725FC1648016841F405
:10307000800101600068002200F480000090114689
:103080003820FEF7FFFB3820FEF7EEFBFFF7EEFCE3
:10309000FFF714FDFFF73CFDFFF776FCFFF78AFC16
:1030A00000210948FFF754FA04210748FFF750FAB6
:1030B00005488030FFF756F80348C030FFF752F854
:1030C000FEE7000030380240D000002010B52DEDA2
:1030D000048BB0EE418AF0EE618AB0EE409AF0EED9
:1030E000609A53EC182B51EC190BFDF78BFA06D2B2
:1030F000B0EE490AF0EE690ABDEC048B10BDB0EEEB
:10310000480AF0EE680AF7E710B52DED0C8BB0EE2B
:1031100041AAF0EE61AAB0EE408AF0EE608AB0EE0D
:10312000449AF0EE649AB0EE43BAF0EE63BAB0EEB1
:1031300042CAF0EE62CA9FED2ADB53EC1A2B51EC27
:10314000180BFDF747FA06D2B0EE4D0AF0EE6D0A05
:10315000BDEC0C8B10BD53EC1C2B51EC180BFDF788
:1031600039FA12D253EC1A2B51EC1C0BFDF70CF967
:1031700041EC190B53EC1A2B51EC180BFDF704F929
:1031800041EC100B53EC192B22E053EC1B2B51ECB0
:10319000180BFDF71FFA02D29FED130BD8E753EC83
:1031A000192B51EC180BFDF715FACDD253EC1B2B54
:1031B00051EC190BFDF7E8F841EC1A0B53EC192B05
:1031C00051EC180BFDF7E3F853EC1A2B41EC100B04
:1031D00051EC100BFDF750F941EC100BB8E7000073
:1031E0000000000000000000000000000000F03FB0
:1031F0000006101600061016000000000000000077
:103200000102030406070809283200080000002014
:10321000780000003C300008A03200087800002050
:10322000B80500004C30000800000000000000005D
:10323000000000000000000000000000000000008E
:10324000000000000000000000000000000000007E
:103250000000000000000000000000008F010000DE
:10326000000000000080514000000000008051403C
:10327000000000000000000000000000000000004E
:10328000000000000000000000000000000000003E
:103290000100000010000000000000000024F40005
:040000050800018965
:00000001FF
