:020000040800F2
:10000000280600209D0100081F2B00084B2800082F
:100010001D2B00081D080008273000080000000004
:10002000000000000000000000000000412B00085C
:10003000A908000800000000212B0008C12B0008BF
:10004000B7010008B7010008B7010008B7010008B0
:10005000B7010008B7010008B70100083D12000809
:10006000B701000879120008B5120008B7010008AE
:10007000B7010008B7010008B7010008B701000880
:10008000B7010008B7010008B7010008B701000870
:10009000B7010008B7010008B7010008F112000815
:1000A000B7010008B7010008B7010008B701000850
:1000B000992C0008DD2C0008E92C0008B701000885
:1000C000B7010008B7010008B7010008252B000898
:1000D000B7010008B7010008B7010008B701000820
:1000E000B7010008B7010008B7010008B701000810
:1000F000B7010008B7010008B7010008B701000800
:10010000B7010008B7010008B7010008B7010008EF
:10011000B7010008B7010008B7010008B7010008DF
:1001200021080008B7010008B7010008B70100085E
:10013000B7010008B7010008B7010008B7010008BF
:10014000B7010008B7010008B7010008B7010008AF
:10015000B7010008B7010008B7010008B70100089F
:10016000B7010008B7010008B7010008B70100088F
:10017000B7010008B7010008B7010008000000003F
:10018000B7010008B7010008DFF80CD000F034FB1D
:1001900000480047693000082806002006488047CC
:1001A00006480047FEE7FEE7FEE7FEE7FEE7FEE75C
:1001B000FEE7FEE7FEE7FEE7452C000889010008A0
:1001C0002DE9F05F0546002092469B46884606468C
:1001D000814640241BE0284641464746224600F01F
:1001E00054FA53465A46C01A914110D31146184644
:1001F000224600F03BFA2D1A67EB01084F462246D3
:100200000120002100F032FA17EB00094E41201EB8
:10021000A4F10104DFDC484631462A464346BDE8E6
:10022000F09FD2B201E000F8012B491EFBD27047CB
:100230000022F6E710B513460A4604461946FFF7B2
:10024000F0FF204610BD2DE9FE4F804681EA0300F5
:10025000C00F0C46009021F0004123F00045B8EBA0
:100260000200A94105D24046214690461C460B4655
:10027000024623F00040104347D0270DC7F30A0081
:10028000C3F30A510290401A019040286BDAC3F37D
:10029000130040F4801B0098924620B10023D2EB5B
:1002A000030A63EB0B0B01985946C0F1400250461C
:1002B00000F0DCF906460D4650465946019A00F01A
:1002C000F4F910EB08006141002487EA115284EA36
:1002D000E7731A4340D0009A62B3019A012A4FEAA9
:1002E000075215DC001B61EB02014FF0004202EAED
:1002F0000752CDE90042001C41F5801132462B46E1
:1003000000F02BFA03B0BDE8F08F40462146F9E734
:10031000001B61EB0201001C41F5801300185B41DA
:100320002018A2F5001747EB030140EAD570B61973
:100330006D4111E06D084FEA360645EAC0754FEA97
:100340000752001B61EB0201001C41F580114908B6
:100350004FEA30000019514132462B4603B0BDE848
:10036000F04F00F0EBB90098012240000023D0EBE1
:10037000020263EBE073009821464FEAE074B8EBA9
:10038000000061EB0401E9E783F000435BE781F0E3
:10039000004158E72DE9FE4F81EA030404F00044D0
:1003A00021F0004100944FF0000B23F0004350EA8D
:1003B00001045ED052EA03045BD0C3F30A54C1F3D4
:1003C0000A552C44A4F2F3340194A0FB0254C1F367
:1003D000130141F48011C3F3130343F4801301FBB1
:1003E000024400FB034E840A970A44EA815447EA18
:1003F0008357A4FB076802958D0A05FB07854FEA22
:10040000932C04FB0C542705029D4FEA065847EA3B
:100410001637B5EB08056EEB070C870E920E47EA10
:10042000811742EA8312A7FB0201B6EB0B0164EBD2
:1004300000042B0D43EA0C335E1844EB1C50DA46E3
:100440005146E7FB0201C5F313044FEA0B3343EABD
:1004500014534FEA0432019C43EA0603A4F10C044E
:100460000294009CCDE900B400F077F903B0BDE838
:10047000F08F00200146F9E72DE9F04D81EA0304F1
:1004800004F0004B21F0004514464FF0000A23F021
:10049000004150EA050220D054EA01021DD0C5F304
:1004A0000A570246C5F31303C1F31300C1F30A56FA
:1004B00040F4801543F48013A7EB0608101BD646C2
:1004C00008F2FD3873EB050002D308F1010801E0E2
:1004D00092185B41B8F1000F03DA00200146BDE835
:1004E000F08D00204FF48011064684460EE0171B65
:1004F00073EB050705D3121B63EB050306434CEAB8
:10050000010C49084FEA300092185B4150EA01079C
:10051000EDD152EA030012D082EA040083EA050119
:10052000084305D0101BAB4106D20122002306E090
:1005300000224FF0004302E06FF0010253101AEB6B
:1005400006004CEB085110EB0A0041EB0B01BDE833
:10055000F04D00F0F3B80EB540F2334102910021A6
:10056000CDE900110A460B4600F0F7F803B000BDD4
:1005700070B5C1F30A5201F000450024C1F3130124
:1005800040F2FF3341F480119A4201DA002070BD3D
:1005900040F233439A42A2F2334203DC524200F06B
:1005A00074F800E090402C43F1D0404270BD00F060
:1005B000004230F000400AD0C10D01F56071C0F377
:1005C000160042EA0151C20840071143704700205B
:1005D0000146704730B5041E71F1000404DB4FF092
:1005E0000044404264EB0101141E73F1000405DB7A
:1005F0001C464FF00043524263EB04038B4208BF9A
:10060000824230BD30B5041E71F1000404DB4FF0AE
:100610000044404264EB0101141E73F1000405DB49
:100620001C464FF00043524263EB0403994208BF5B
:10063000904230BD01F0004330B421F0004150EA57
:10064000010206D00A0DA2F56072C1F31301002A5F
:1006500002DC30BC00207047440F44EAC104C100F2
:10066000E01830BC00EBC25000F031B8202A04DBA7
:10067000203A00FA02F1002070479140C2F12003B5
:1006800020FA03F3194390407047202A04DB203AF4
:1006900021FA02F00021704721FA02F3D040C2F1A2
:1006A00020029140084319467047202A06DBCB17E9
:1006B000203A41FA02F043EAE07306E041FA02F31D
:1006C000D040C2F1200291400843194670470029EA
:1006D000A8BF7047401C490008BF20F001007047C8
:1006E00010B4B0FA80FC00FA0CF050EA010404BF28
:1006F00010BC704749B1CCF1200421FA04F411FA7E
:100700000CF118BF012121430843A3EB0C01CB1DC1
:100710004FEA00614FEA102042BF002010BC704732
:1007200000EBC35010440029A4BF10BC7047401C0C
:10073000490008BF20F0010010BC704710B5141E1E
:1007400073F1000408DA401C41F1000192185B418A
:100750001A4301D120F0010010BD2DE9F04D924661
:100760009B4611B1B1FA81F202E0B0FA80F2203278
:100770009046FFF77BFF04460F4640EA0A0041EA35
:100780000B0153465A46084313D0114653EA010061
:1007900019D0C8F140025046FFF777FF05460E46D4
:1007A000504659464246FFF761FF084305D00120F5
:1007B00004E020463946BDE8F08D0020054346EAB6
:1007C000E0762C4337430A986305E40AA0EB08005F
:1007D0000022FD0A44EA47540A3002D500200146AF
:1007E000E9E7010510196941DDE90845001969418A
:1007F000BDE8F04DA2E70000064C074D06E0E068BA
:1008000040F0010394E8070098471034AC42F6D357
:10081000FFF7BEFC4C3200086C320008FEE7000017
:10082000014800F097BD0000C801002001681823AE
:10083000CAB2103AB2FBF3F2054B6FF30901032A77
:100840009B5CC36500D9091D81650846704700009F
:100850003232000810B5014600208B698A6A4FF0D9
:10086000C07453B1B3F5005F15D072B1012A0CD03A
:10087000022A0AD0032A09D104E01AB1012A06D0BB
:10088000022A03D1C96AC90100D5012010BDC96A75
:10089000A142FAD010BD002AF7D0012AF2D0022AD4
:1008A000F3D0032AF3D010BD7047000010B52DED32
:1008B000040B2DED108BAEB0B0EE408AF0EE608AE6
:1008C0009FEDFD4B9FEDFE9BB0EE493AF0EE693A8D
:1008D0009FEDFD2B9FEDFC1B02F024FCB0EE40FAD7
:1008E000F0EE60FA9FEDFA4B9FEDF33B9FEDF22B9C
:1008F000B0EE491AF0EE691AB0EE480AF0EE680A56
:1009000002F010FCB0EE40EAF0EE60EA9FEDF29BE0
:10091000B0EE494AF0EE694A9FEDED3B9FEDEC2BBE
:100920009FEDE51BB0EE480AF0EE680A02F0FAFB14
:10093000B0EE40DAF0EE60DA9FEDE9ABB0EE493AA6
:10094000F0EE693AB0EE4A4AF0EE6A4AB0EE492A51
:10095000F0EE692A9FEDDE1BB0EE480AF0EE680A61
:1009600002F0E0FBB0EE40CAF0EE60CA9FEDDE4B55
:100970009FEDDD3BB0EE4A2AF0EE6A2AB0EE491A4E
:10098000F0EE691AB0EE480AF0EE680A02F0CAFB0F
:10099000B0EE40BAF0EE60BA9FEDCD4B9FEDD48B38
:1009A000B0EE483AF0EE683A9FEDD31B9DED400B58
:1009B000B0EE412AF0EE612A02F0B4FBB0EE40AA9C
:1009C000F0EE60AA9FEDCE4B9FEDC13B9FEDC02B9B
:1009D000B0EE481AF0EE681A9DED400B02F0A2FB53
:1009E000B0EE409AF0EE609A9FEDC73BB0EE434AFE
:1009F000F0EE634A9FEDC22B9FEDB51B9DED400BC2
:100A000002F090FBB0EE408AF0EE608A9FEDC00BE2
:100A10008DED280B9FEDAC0B8DED220B9FEDA60B02
:100A20008DED260B9FEDAA0B8DED200B9FEDBA0BE4
:100A30008DED1E0B9FEDBA0B8DED1C0B9FEDAA0BE0
:100A400053EC1A2B8DED1A0B51EC1F0BFFF7A2FC88
:100A500041EC100B53EC192B8DED2A0B51EC1F0BB5
:100A6000FFF798FC41EC100B53EC182B8DED180B95
:100A700051EC1F0BFFF78EFC41EC100B53EC1A2BC3
:100A80008DED160B51EC1E0BFFF784FC41EC100BA7
:100A900053EC192B8DED140B51EC1E0BFFF77AFC68
:100AA00041EC100B53EC182B51EC1E0BB0EE40FA3E
:100AB000F0EE60FAFFF76EFC41EC100B53EC1A2BD2
:100AC0008DED100B51EC1D0BFFF764FC41EC100B8E
:100AD00053EC192B8DED0E0B51EC1D0BFFF75AFC4F
:100AE00041EC100B53EC182B8DED0C0B51EC1D0B46
:100AF000FFF750FC41EC100B53EC1A2B8DED0A0B59
:100B000051EC1C0BFFF746FC41EC1E0B53EC192B70
:100B100051EC1C0BFFF73EFC41EC1D0B53EC182B6A
:100B200051EC1C0BFFF736FC41EC100B53EC1A2B6D
:100B30008DED040B51EC1B0BFFF72CFC41EC100B63
:100B400053EC192B8DED020B51EC1B0BFFF722FC24
:100B500041EC1A0B53EC182B51EC1B0BFFF71AFC52
:100B600041EC180B9DED2A9B9DED141B9DED180B80
:100B700002F0BAFA8DED140BB0EE4F1AF0EE6F1AC8
:100B80009DED160B02F0B0FA9DED0E1B02F0ACFAD3
:100B9000B0EE40BAF0EE60BA9DED0C1B9DED100B6F
:100BA00002F0A2FAB0EE4E1AF0EE6E1A02F09CFAC3
:100BB000B0EE40CAF0EE60CAB0EE4D1AF0EE6D1A1B
:100BC0009DED0A0B02F090FA9DED021B02F08CFAEB
:100BD000B0EE40DAF0EE60DAB0EE4A1AF0EE6A1AE1
:100BE0009DED040B02F080FAB0EE40AAF0EE60AA90
:100BF00053EC1A2B51EC180BFFF725FB53EC1D2B74
:100C0000FFF721FB53EC1C2BFFF71DFB53EC1B2BB9
:100C1000FFF719FB9DED140B53EC102BFFF713FBA3
:100C200053EC192BFFF70FFB41EC100B53EC192B76
:100C3000B0EE40FAF0EE60FA9DED1A0B51EC100B9D
:100C4000FFF7A8FB9DED1C0B41EC1E0B53EC192B81
:100C500051EC100BFFF79EFB9DED1E0B41EC190BA9
:100C600053EC1B2B51EC100BFFF794FB9DED200B6D
:100C700041EC1B0B53EC1C2B51EC100BFFF78AFBC8
:100C80009DED260B41EC1C0B53EC1D2B51EC100B76
:100C9000FFF780FB9DED220B41EC1D0B53EC1A2B53
:100CA00051EC100BFFF776FB41EC1A0B53EC182BB1
:100CB0009DED280B38E000000000000000003EC061
:100CC00000000000008046C00000000000004EC090
:100CD00000000000000000000000000000003E4096
:100CE00000000000008046400000000000004E4070
:100CF00000000000008051C000000000000059C04A
:100D00000000000000805140000000000000594039
:100D100000000000008056C00000000000003440C9
:100D2000000000000000444051EC100BFFF732FBC4
:100D300053EC1A2BFFF787FA53EC1D2BFFF783FABE
:100D400053EC1C2BFFF77FFA53EC1B2BFFF77BFABE
:100D500053EC192BFFF777FA53EC1E2BFFF773FABE
:100D6000B0EE4F0AF0EE6F0A53EC102BFFF784FB46
:100D70002EB041EC100BBDEC108B1FBD10B52DED4E
:100D8000040B2DED108BAEB0B0EE408AF0EE608A11
:100D90009FEDFD4B9FEDFE9BB0EE493AF0EE693AB8
:100DA0009FEDFD2B9FEDFC1B02F0BCF9B0EE40BAAD
:100DB000F0EE60BA9FEDFA4B9FEDF33B9FEDF22B07
:100DC000B0EE491AF0EE691AB0EE480AF0EE680A81
:100DD00002F0A8F9B0EE40FAF0EE60FA9FEDF29B57
:100DE000B0EE494AF0EE694A9FEDED3B9FEDEC2BEA
:100DF0009FEDE51BB0EE480AF0EE680A02F092F9AA
:100E0000B0EE40EAF0EE60EA9FEDE9ABB0EE493AB1
:100E1000F0EE693AB0EE4A4AF0EE6A4AB0EE492A7C
:100E2000F0EE692A9FEDDE1BB0EE480AF0EE680A8C
:100E300002F078F9B0EE40DAF0EE60DA9FEDDE4BCA
:100E40009FEDDD3BB0EE4A2AF0EE6A2AB0EE491A79
:100E5000F0EE691AB0EE480AF0EE680A02F062F9A4
:100E6000B0EE40CAF0EE60CA9FEDCD4B9FEDD48B43
:100E7000B0EE483AF0EE683A9FEDD31B9DED400B83
:100E8000B0EE412AF0EE612A02F04CF9B0EE40AA31
:100E9000F0EE60AA9FEDCE4B9FEDC13B9FEDC02BC6
:100EA000B0EE481AF0EE681A9DED400B02F03AF9E8
:100EB000B0EE409AF0EE609A9FEDC73BB0EE434A29
:100EC000F0EE634A9FEDC22B9FEDB51B9DED400BED
:100ED00002F028F9B0EE408AF0EE608A9FEDC00B78
:100EE0008DED280B9FEDAC0B8DED240B9FEDA60B2C
:100EF0008DED220B9FEDAA0B8DED260B9FEDBA0B0E
:100F00008DED200B9FEDBA0B8DED1E0B9FEDAA0B07
:100F100053EC1A2B8DED1C0B51EC1B0BFFF73AFA1F
:100F200041EC100B53EC192B8DED0C0B51EC1B0B02
:100F3000FFF730FA41EC100B53EC182B8DED120B30
:100F400051EC1B0BFFF726FA41EC1B0B53EC1A2B51
:100F500051EC1F0BFFF71EFA41EC100B53EC192B51
:100F60008DED160B51EC1F0BFFF714FA41EC100B33
:100F700053EC182B8DED140B51EC1F0BFFF70AFAF5
:100F800041EC100B53EC1A2B8DED100B51EC1E0B9A
:100F9000FFF700FA41EC100B53EC192B8DED180BF9
:100FA00051EC1E0BFFF7F6F941EC100B53EC182B2C
:100FB0008DED0E0B51EC1E0BFFF7ECF941EC100B15
:100FC00053EC1A2B8DED0A0B51EC1D0BFFF7E2F9D8
:100FD00041EC1F0B53EC192B51EC1D0BFFF7DAF909
:100FE00041EC1E0B53EC182B51EC1D0BFFF7D2F903
:100FF00041EC100B53EC1A2B8DED040B51EC1C0B38
:10100000FFF7C8F941EC1A0B53EC192B51EC1C0BF0
:10101000FFF7C0F941EC190B53EC182B51EC1C0BEA
:10102000FFF7B8F941EC180BB0EE491AF0EE691A67
:10103000B0EE4F0AF0EE6F0A02F056F8B0EE40DA6A
:10104000F0EE60DAB0EE4E1AF0EE6E1A9DED180B6F
:1010500002F04AF8B0EE481AF0EE681A02F044F8CE
:10106000B0EE40EAF0EE60EA9DED0E1B9DED160B32
:1010700002F03AF89DED041B02F036F8B0EE40CADB
:10108000F0EE60CA9DED141B9DED0C0B02F02CF8E8
:101090009DED0A1B02F028F8B0EE409AF0EE609A3F
:1010A0009DED101B9DED120B02F01EF8B0EE408A74
:1010B000F0EE608A53EC182B51EC1B0BFFF7C3F8D2
:1010C00053EC192BFFF7BFF853EC1C2BFFF7BBF8C1
:1010D00053EC1E2BFFF7B7F853EC1D2BFFF7B3F8BB
:1010E00053EC1A2BFFF7AFF841EC100B53EC1A2B13
:1010F000B0EE40FAF0EE60FA9DED1C0B51EC100BD7
:10110000FFF748F99DED1E0B41EC1D0B53EC1A2B1C
:1011100051EC100BFFF73EF99DED200B41EC1A0B43
:1011200053EC1E2B51EC100BFFF734F99DED260B01
:1011300041EC1E0B53EC1C2B51EC100BFFF72AF962
:101140009DED220B41EC1C0B53EC192B51EC100BB9
:10115000FFF720F99DED240B41EC190B53EC182BF4
:1011600051EC100BFFF716F99DED280B41EC180B15
:1011700053EC1B2B51EC100BFFF70CF953EC182B15
:10118000FFF761F838E000000000000000003EC0FA
:1011900000000000008046C00000000000004EC0BB
:1011A00000000000000000000000000000003E40C1
:1011B00000000000008046400000000000004E409B
:1011C00000000000008051C000000000000059C075
:1011D0000000000000805140000000000000594065
:1011E00000000000008056C00000000000003440F5
:1011F000000000000000444053EC192BFFF723F8D7
:1012000053EC1C2BFFF71FF853EC1E2BFFF71BF8BA
:1012100053EC1A2BFFF717F853EC1D2BFFF713F8BD
:10122000B0EE4F0AF0EE6F0A53EC102BFFF724F9E3
:101230002EB041EC100BBDEC108B1FBD10B5022180
:10124000094800F0A7FA094A094B002118B101200A
:101250001060196003E01868064B18601160BDE863
:101260001040022000F0B2B90004024050000020FB
:10127000000000201000002010B50821094800F0EF
:1012800089FA094A094B002118B101201060196040
:1012900003E01868064B18601160BDE81040082094
:1012A00000F094B90004024058000020080000201B
:1012B0001800002010B51021094800F06BFA094A07
:1012C000094B002118B101201060196003E0186873
:1012D000064B18601160BDE81040102000F076B990
:1012E000000402405C0000200C0000201C000020D4
:1012F00010B52021094800F04DFA094A094B002198
:1013000018B101201060196003E01868064B1860DE
:101310001160BDE81040202000F058B900040240E0
:10132000540000200400002014000020704790F8B2
:101330003510022903D08021416501207047052125
:1013400080F835100068016821F00101016000207B
:10135000704700002DE9F84304464FF00009CDF82E
:10136000009063484FF41651A56D0068B0FBF1F78B
:101370002E6894F85C10082000FA01F131420FD079
:1013800021680A6852070BD50A6822F004020A6035
:1013900094F85C108840A860606D40F001006065C2
:1013A00094F85C104FF0010808FA01F0304208D0C0
:1013B00021684969090604D5A860606D40F0020003
:1013C000606594F85C1004208840304208D02168A1
:1013D0000968890704D5A860606D40F00400606565
:1013E00094F85C1010208840304218D021680968B9
:1013F000090714D5A86020680168490304D500686E
:10140000000308D5A16C07E00168C90503D4016891
:1014100021F008010160216C09B12046884794F849
:101420005C1020208840304231D021680968C9060C
:101430002DD5A86094F8350005282068016806D0ED
:10144000490347D5006800031DD4616C1CE021F0FE
:10145000160101602068416921F080014161206C22
:1014600008B9A06C20B12068016821F00801016072
:1014700094F85C103F208840A86084F8349084F889
:101480003580216D1FE0E16B09B120468847606D12
:1014900000282BD0606DC00714D0052084F83500DB
:1014A0002068016821F0010101600098401C009053
:1014B000B84203D820680068C007F6D184F8349099
:1014C00084F83580E16C002910D001B02046BDE8D9
:1014D000F04308470168C905D5D4016821F010011F
:1014E000016084F8349084F83580CCE7BDE8F88357
:1014F0006C0000202DE9F041044600F055F9064645
:101500005CB1002584F83450022084F8350020684E
:10151000016821F0010101600DE00120BDE8F081CA
:1015200000F042F9801B052805D9202060650320C2
:1015300084F83500F2E720680068C007F0D122681F
:10154000116820480140D4E901031843D4E9033667
:101550003343184363691843A3691843E369184385
:10156000236A18430843616A042903D1D4E90B13A1
:1015700019430843106020684069666A20F007013B
:1015800030460E43012704280CD1A06A0643E06AC6
:1015900040B12046FFF75EF920B14020606584F835
:1015A0003570BAE7206846612046FFF73FF994F8A6
:1015B0005C203F2191408160656584F83570002092
:1015C000ACE700003F8010F070470000044910B500
:1015D0000A68024202D00860FFF7F6FF10BD000063
:1015E000143C01402DE9F84FDFF87CB100224FF0A8
:1015F00001084FF0030A4FF00F090BF1040E00BF72
:101600000B6808FA02F42340A3426ED14D68022D04
:1016100001D0122D0ED1D50800EB850CDCF820503E
:101620005607F70E09FA07F6B5430E69BE402E437A
:10163000CCF82060066855000F790AFA05FC07F01F
:10164000030726EA0C06AF40374307604E68012EB9
:1016500005D0022E03D0112E01D0122E0ED1866895
:10166000CF6826EA0C06AF40374387604668A6433A
:101670000C79C4F30014944034434460C6688C6809
:1016800026EA0C06AC403443C4604C68E40065D5DF
:10169000364C256845F480452560246822F0030512
:1016A00004F480440094324C2E19D6F8084895076B
:1016B0002F0F09FA07F5AC432E4DA84201D10025A2
:1016C00024E02D4DA84201D101251FE02B4DA84259
:1016D00001D102251AE02A4DA84201D1032515E0C7
:1016E000284DA84202D1042510E037E0264DA8423B
:1016F00001D105250AE0254DA84201D1062505E0C6
:10170000234DA84201D1072500E00825BD4025430F
:10171000C6F80858DBF800405D464E689C43F60367
:1017200000D51C432C60DEF8004075464E689C4393
:10173000B60300D51C432C600B4D08352C684E6851
:101740009C43F60200D51C432C60074D0C352C68D9
:101750004E689C43B60200D51C432C60521C102AD4
:10176000FFF44EAFBDE8F88F003C01404438024022
:101770000030014000000240000402400008024026
:10178000000C024000100240001402400018024009
:10179000001C02400069084000D0012070470AB1D7
:1017A000816170470904FBE70148806870470000C9
:1017B000600000200248816802781144816070470F
:1017C000600000200B4810B5016841F40071016011
:1017D000016841F480610160016841F48071016039
:1017E000032000F06FF8002000F006F800F024F865
:1017F000002010BD003C024070B50D4D04464FF472
:101800007A712878B1FBF0F00A490968B1FBF0F071
:1018100000F0DCFB48B9102C07D200222146501EF4
:1018200000F030F800206C6070BD012070BD000039
:10183000600000206C0000200A4808B5016841F4EF
:1018400080410160006800F4804000900548001F5E
:10185000016841F080510160006800F08050009004
:1018600008BD000044380240002809DB00F01F02D8
:10187000012191404009800000F1E020C0F80011F2
:1018800070470000F0B40E4B1B680C46C3F30223F4
:10189000C3F10705042D00D90425191D072901D21C
:1018A000002300E0DB1E012606FA05F1491E214057
:1018B00099409E40761E16403143F0BC01F0B4BB07
:1018C0000CED00E0064900F0070208684FF6FF0340
:1018D000184040EA0220034A1043086070470000A5
:1018E0000CED00E00000FA052DE9F0470E4605007A
:1018F00065D0DFF81481D8F80000F7B200F00F00CF
:10190000B04207D288F80070D8F8000000F00F004D
:10191000B04254D128683D4C810712D5400703D509
:10192000206840F4E05020602878000703D5206844
:1019300040F4604020602068A96820F0F00008436F
:1019400020602878C0072DD0304968680839012800
:1019500012D0022813D0032811D009688907002962
:101960002DDA216821F0030101432160FFF71CFFFC
:10197000814641F2883A0EE009688903EFE7096879
:101980008901ECE7FFF710FFA0EB0901514502D9EF
:101990000320BDE8F0872068696800F00C00B0EB18
:1019A000810FEFD1D8F80010404601F00F01B1428D
:1019B00007D90770006800F00F00B04201D0012085
:1019C000E7E72878400705D52068E96820F4E0506B
:1019D000084320602878000706D52068296920F48C
:1019E000604040EAC100206000F016F82168084A13
:1019F000C1F30311515CC840064908600020FFF79D
:101A0000FBFE0020C5E70000003C02400838024011
:101A10003A3200086C000020154810B5006810F03C
:101A20000C02144813D01449042A0FD0082A0ED1EE
:101A30000F4C241F2268236802F03F025B0207D587
:101A40002068C0F38810A0FB010106E0084610BD25
:101A50002168C1F38811A1FB00010023FEF7B0FB50
:101A60002168C1F30141491C4900B0FBF1F010BDF0
:101A7000083802400024F40040787D012DE9F84F39
:101A8000050076D02878DFF8F8B2BE4CC00749D000
:101A9000DBF800105846C1F38101012908D0006825
:101AA000C0F3810002280AD1201D0068400206D53B
:101AB0002068800336D568680028E2D032E0686884
:101AC000B0F5803F10D0B0F5A02F206810D020F4E2
:101AD00080302060206820F4802020606868A0B1F9
:101AE000FFF762FE06460CE0206840F48030F4E721
:101AF00040F480202060F7E7FFF756FE801B642843
:101B000073D820688003F7D50CE0FFF74DFE06463A
:101B100005E000BFFFF748FE801B6428F0D820686E
:101B20008003F7D42878DFF8608280074FF000093F
:101B30003ED5DBF80010584611F00C0F09D00068B4
:101B4000C0F3810002280BD18D48001F00684002BD
:101B500006D42068800715D5E868012809D111E06E
:101B6000E868B8B10120C8F80000FFF71DFE06467E
:101B700005E002E1FFF718FE801B0228C0D82068AC
:101B80008007F7D52068296920F0F80040EAC100F5
:101B900020600DE0C8F80090FFF706FE064604E05E
:101BA000FFF702FE801B02281FD820688007F7D4A9
:101BB0002878000722D5724E744869696C3671B175
:101BC00001210160FFF7F0FD074604E0FFF7ECFD9F
:101BD000C01B022809D830688007F7D50EE0C0F88E
:101BE0000090FFF7E1FD074605E083E0FFF7DCFD2D
:101BF000C01B02287ED830688007F7D428784007B9
:101C000068D5DFF87CA100270AF1380ADAF800006D
:101C1000C0000BD4DAF8001041F08051CAF800106F
:101C2000DAF80000012700F080500090584E30682C
:101C3000C00510D4306840F480703060FFF7B4FD08
:101C4000009005E0FFF7B0FD0099401A022851D836
:101C50003068C005F6D54A4EA868683601280FD00E
:101C60000528306810D020F001003060306820F086
:101C700004003060A868B8B1FFF796FD00900FE04F
:101C8000306840F00100F4E740F004003060F7E70E
:101C9000FFF78AFD0099411A41F28830814264D8E9
:101CA00030688007F4D50EE0FFF77EFD009007E076
:101CB000FFF77AFD0099411A41F28830814254D8E9
:101CC00030688007F4D42FB1DAF8001021F0805189
:101CD000CAF80010A869C0B3DBF80010C1F3810195
:101CE00002294AD00228484607D0C8F86000FFF70A
:101CF0005BFD00E039E005463AE04746C8F8600081
:101D0000FFF752FD064604E0FFF74EFD801B022858
:101D10002BD820688001F7D4D5E907010843A96AC8
:101D20001C4A490802EB01416A6A41EA82110843F0
:101D300095F82C1040EA01611148001F0160012054
:101D40003866FFF731FD054605E014E0FFF72CFD8E
:101D5000401B022809D820688001F7D50BE000BF9E
:101D6000FFF722FD401B022802D90320BDE8F88FAF
:101D700020688001F4D40020F8E70120F6E7000095
:101D8000083802400038024000004742800E4742B7
:101D9000007000400000FFFF7047000038B5016888
:101DA00004464A688868C043430606D5C30704D181
:101DB000D3435B0601D4216C05E0830708D4D343E9
:101DC0001B0605D4616C01B02046BDE830400847D1
:101DD000830603D5430601D5C30551D4D3439B06DF
:101DE0004ED443060AD494F85130032B49D0636D86
:101DF00043F004036365CB688B680093830609D4C2
:101E0000636D43F0010363658B6800930B6823F0F7
:101E100040030B60C00506D4606D40F008006065AB
:101E2000206880680090606D002829D02068416893
:101E300021F0E0014160012084F85100900701D4B5
:101E4000D00722D02068416821F003014160114D84
:101E5000E06C40B10565E06CFFF769FA18B1606DA0
:101E600040F040006065A06C002809D00565A06CBA
:101E7000FFF75DFA002803D0606D40F04000606518
:101E800038BDC8688868009038BD2046FFF784FFD9
:101E900038BD0000312B000870B5040005D00025C6
:101EA000A56294F8510010B106E0012070BD84F8DD
:101EB0005050204600F030F8022084F8510020688D
:101EC000016821F040010160D4E901010843D4E92F
:101ED00003121143084361690843218B01F4007127
:101EE0000843E1690843216A0843A16A084321685D
:101EF0000860A069042101EA1040616A0843216872
:101F000048602068C16921F40061C16165650120F4
:101F100084F85100002070BD70B586B006461421CB
:101F20006846FEF785F924493068884241D1234844
:101F30000025016841F480510160006800F4805080
:101F400005901E481438016841F0010101600068E5
:101F5000694600F001000590F02000900220CDE9D4
:101F6000010503200390052004901548FFF73AFB74
:101F7000154C144820604FF0C060C4E901054FF4CF
:101F80008060C4E9035080106561C4E90650256291
:101F900020466562FFF7AEFA08B1FFF7C7F9F464AF
:101FA000002211462320A663FFF76CFC2320FFF7D5
:101FB0005BFC06B070BD00000030014044380240B8
:101FC0000000024010640240C801002010B5401E0D
:101FD000B0F1807F01D3012010BD4FF0E02460619B
:101FE0000F21601701F020F80020A0610720206178
:101FF000002010BD7047704710B590F83C20012AB2
:1020000022D0012280F83C20CA688C6822F44072F9
:1020100022434C6822F4806222430C6822F400625E
:1020200022430C6922F4805222434C6922F400526C
:102030002243C969002322F480420A4301684A64AA
:1020400080F83C30002010BD022010BD70B590F823
:102050003C20012A19D0012400F83C4F0222427092
:1020600050F83C3C5A689D6822F070060A6849683E
:10207000324325F0800529435A6050F83C2C91608A
:10208000447000210170084670BD022070BD10B57B
:10209000040003D094F83D0010B107E0012010BD0A
:1020A000002084F83C00204600F00CF8022084F860
:1020B0003D00211D206800F04DFE012084F83D0008
:1020C000002010BD08B501682348814209D123488A
:1020D000016841F001010160006800F0010000901A
:1020E00008BD1E48001FB1F1804F11D01C4A91421B
:1020F0001DD1016841F0020101600068002200F07A
:102100000200009011461D20FFF7BCFB1D201FE0C0
:10211000016841F0010101600068002200F0010047
:10212000009011461C20FFF7ADFB1C2010E00D4A6B
:102130009142D5D1016841F004010160006800229C
:1021400000F00400009011461E20FFF79BFB1E20AC
:10215000BDE80840FFF788BB00000140443802405A
:1021600000040040000800400168CA6842F0010213
:10217000CA600068816801F00701062903D0016880
:1021800041F001010160002070470168CA6822F037
:102190000102CA600068016A41F21112114207D1BE
:1021A000016A9210114203D1016821F0010101601E
:1021B0000020704770B5044690F83C00012817D005
:1021C000012584F83C50022084F83D002068826894
:1021D00022F0770222F47F4282600868502830D0D3
:1021E0000DDC20284DD005DC98B310283BD148E009
:1021F000022070BD302844D0402834D139E0602816
:1022000028D0702806D0B0F5805F2CD0B0F5005FE4
:1022100029D10AE0CB68D1E90121206800F00BFE4A
:102220002068816841F0770109E0CB68D1E901219C
:10223000206800F000FE2068816841F480418160E0
:1022400011E0CA684968206800F0CAFE5021206881
:1022500007E016E0CA684968206800F0D2FE6021F5
:10226000206800F0F2FD84F83D50002084F83C0026
:1022700070BDCA684968206800F0B2FE402120683D
:10228000EFE7226801461046EBE7704770B5044659
:10229000006801694FF00005C943890715D4C1687A
:1022A000C943890711D4E91E016101202077206804
:1022B00080698007204602D0FFF7E7FF04E000F0C6
:1022C000C3F8204600F045F9257720680169C94325
:1022D000490717D4C168C943490713D46FF00401F3
:1022E0000161022020772068806910F4407F204639
:1022F00002D0FFF7CAFF04E000F0A6F8204600F085
:1023000028F9257720680169C943090716D4C168EF
:10231000C943090712D46FF0080101610420207736
:102320002068C0698007204602D0FFF7AEFF04E0B6
:1023300000F08AF8204600F00CF925772068016942
:10234000C943C90617D4C168C943C90613D46FF07D
:1023500010010161082020772068C06910F4407FD7
:10236000204602D0FFF791FF04E000F06DF8204610
:1023700000F0EFF8257720680169C943C90708D143
:10238000C168C943C90704D1891E0161204600F014
:102390001BF920680169C943090609D4C168C9430A
:1023A000090605D46FF0800101612046FFF722FE87
:1023B00020680169C943490609D4C168C94349066F
:1023C00005D46FF040010161204600F03DFA20681D
:1023D0000169C94389060BD4C168C943890607D47A
:1023E0006FF0200101612046BDE87040FFF703BE99
:1023F00070BD000010B586B0044614216846FDF794
:1024000017FF0E492068884216D10D480021026846
:1024100042F010020260006800F0100005904FF4D6
:10242000085000900220CDE901010120CDE9031000
:1024300069460448FFF7D6F806B010BD0000014019
:102440003038024000100240704770B5044690F8E2
:102450003C000D4601280DD0012684F83C60022086
:1024600084F83D0042B1042A18D0082A2AD00C2A48
:102470004DD139E0022070BD206800F0EFFC2068EB
:10248000816941F0080181612068816921F00401BE
:102490008161206881692A69114311E0206800F098
:1024A0000DFD2068816941F40061816120688169C6
:1024B00021F480618161206881692A6941EA0221F1
:1024C000816124E0206800F02FFD2068C16941F09F
:1024D0000801C1612068C16921F00401C16120685F
:1024E000C1692A69114311E0206800F051FD20689C
:1024F000C16941F40061C1612068C16921F4806152
:10250000C1612068C1692A6941EA0221C16184F878
:102510003D60002084F83C0070BD10B5040003D07D
:1025200094F83D0010B107E0012010BD002084F8B0
:102530003C00204600F00CF8022084F83D00211DEC
:10254000206800F007FC012084F83D00002010BD49
:102550007047704710B50268044631B1042908D0AD
:10256000082925D00C2908D126E0D06840F00200C7
:1025700002E0D06840F00400D0600122206800F042
:102580004DFC0F492068884202D00E49884203D191
:10259000416C41F4004141642068816801F0070109
:1025A000062903D0016841F001010160002010BD3F
:1025B000D06840F00800DFE7D06840F01000DBE7AB
:1025C000000001400004014010B590492DED088B3A
:1025D0000068096888427CD18D4C01220221204686
:1025E000FFF7DDF8012208212046FFF7D8F8012285
:1025F00010212046FFF7D3F8012220212046FFF7C3
:10260000CEF882484038FFF7AFFD824C2068FDF7D6
:10261000A2FF9FED819B53EC192BFDF7BBFE9FEDB5
:10262000808B53EC182BFDF7B5FE9FED7FAB53EC81
:102630001A2BFDF7AFFE9FED7EBB53EC1B2BFDF776
:10264000A9FEFDF7F7FF00EE100A84ED040A6068AA
:10265000FDF781FF53EC192BFDF79CFE53EC182B73
:10266000FDF798FE53EC1A2BFDF794FE53EC1B2B51
:10267000FDF790FEFDF7DEFF00EE100A84ED050A7F
:10268000A068FDF768FF53EC192BFDF783FE53ECB0
:10269000182BFDF77FFE53EC1A2BFDF77BFE53EC56
:1026A0001B2BFDF777FEFDF7C5FF00EE100A84ED4A
:1026B000060AE068FDF74FFF53EC192BFDF76AFEA1
:1026C00053EC182BFDF766FE53EC1A2BFDF762FE58
:1026D00000E098E053EC1B2BFDF75CFEFDF7AAFF32
:1026E00000EE100A84ED070A9FED530B84ED0C0BEE
:1026F00084ED0E0B94ED040ADFED510A94ED051AFA
:1027000020EE200AF3EE0E0A01EE600A94ED061A9E
:1027100001EE200AD4ED070A9FED4A1A00EE810A65
:10272000D4ED040A94ED051A70EE810A94ED061AB0
:1027300070EE810A94ED071A70EE810A80EE201A7D
:1027400084ED081A94ED080A10EE100AFDF72FFF29
:1027500041EC100B94ED0C1BFEF7A8F894ED0C1B4C
:1027600051EC100B53EC112BFDF76DFD41EC100BF0
:1027700084ED0C0B94ED080A10EE100AFDF717FF1C
:1027800041EC100B94ED0E1BFEF7F8FA94ED0E1BC6
:1027900051EC100B53EC112BFDF755FD41EC100BD8
:1027A00084ED0E0B94ED0C0B51EC100BFDF7E0FEDD
:1027B00000F02CFDA06294ED0E0B51EC100BFDF718
:1027C000D7FE00F023FDE062A06A6321632800DDEC
:1027D000A162A26A6FF06200824200DAA062E26A3D
:1027E000632A00DDE162E16A814200DAE0620021F1
:1027F000A06A00F0A7F9E06A0121BDEC088BBDE8F2
:10280000104000F09FB9BDEC088B10BD48010020BE
:10281000000C0240100000202D431CEBE2361A3F52
:102820000000000000407540000000000000E03F94
:102830000000000000000040000000000080514047
:10284000000070C2000070427047FEE72DE9F041C1
:1028500086B014216846FDF7EBFC37480024016878
:1028600041F001010160016801F001010591016879
:1028700041F002010160016801F002010591016867
:1028800041F010010160016801F01001059101683B
:1028900041F0080101600068284F00F008004FF483
:1028A00090460590002231463846FEF778FFDFF863
:1028B000908000223A214046FEF771FF3A252148D8
:1028C0000095CDE9010469461F48FEF78BFE00968E
:1028D0000126CDE90164694638460394FEF782FE7D
:1028E0000095CDE90164694640460394FEF77AFEFF
:1028F000002211460720FEF7C5FF0720FEF7B4FFB0
:10290000002211460920FEF7BDFF0920FEF7ACFFAB
:10291000002211460A20FEF7B5FF0A20FEF7A4FFA9
:10292000002211461720FEF7ADFF1720FEF79CFF8F
:1029300006B0BDE8F08100003038024000100240CF
:10294000000C024000003110000402400948084910
:102950000160002141608160C1600161416181616C
:102960000162416281620A21C162FFF795BA0000EB
:10297000003001407000002010B596B000240F9484
:1029800010941194129413941C2168461494FDF72A
:102990004FFC202107A8FDF74BFC2248204901608D
:1029A0000A21C0E9011440F28F11C0E90314446107
:1029B0008461FFF76CFB4FF480500F900FA919480A
:1029C000FFF7F8FB1748FFF7A8FD139413A9154864
:1029D0001494FFF73BFB6020CDE9000402940394BC
:1029E00004940594002269460E480694FFF72DFDD5
:1029F000082269460B48FFF728FD079408940994BC
:102A00004FF400500A94CDE90B4007A905480E94F5
:102A1000FFF7F2FA0348FFF7EDFC16B010BD000017
:102A200000000140C800002010B586B00024114805
:102A3000009401940294039404944FF0804105940F
:102A400001602921C0E901141321C0E90314846144
:102A5000FFF71DFB4FF48050009069460548FFF7D3
:102A6000A9FB049404A903480594FFF7EFFA06B004
:102A700010BD00000801002010B586B000241248E7
:102A8000009401940294039404940E490594016007
:102A900042F2CF01C0E9011440F2E731C0E903146A
:102AA0008461FFF7F4FA4FF48050009069460648BD
:102AB000FFF780FB049404A903480594FFF7C6FAC6
:102AC00006B010BD000400404801002010B586B0DB
:102AD00000241148009401940294039404940D4935
:102AE000059401602921C0E901140121C0E9031402
:102AF0008461FFF7CCFA4FF4805000906946064895
:102B0000FFF758FB049404A903480594FFF79EFAC5
:102B100006B010BD0008004088010020FEE77047A5
:102B2000704700000148FFF739B90000700000202D
:102B300010B5806B0021C187C186FFF72DF910BD4C
:102B40007047000070B54242104C01290AD04FF482
:102B5000804500280FDB024608210D4800F01AF8D6
:102B600000220DE04FF40065002802DB0246002140
:102B7000F3E7002100E00821054800F00BF80122EE
:102B800029462046BDE87040FEF709BE001002400D
:102B9000C8000020094B00685B6A53436422B3FB02
:102BA000F2F229B1042905D0082905D00264704742
:102BB0004263704782637047C26370471000002011
:102BC000FEF7F8BD30B593B030216846FDF730FB15
:102BD00014210CA8FDF72CFB18480025016841F0D2
:102BE00080510160006800F0805011901448016825
:102BF00041F4804101600068022400F4804011909B
:102C00000120039010200490009406940820CDE940
:102C100007505420CDE9090404200B906846FEF7C4
:102C20002DFF0CA90F2081E83100E002CDE90F054E
:102C300002210CA8FEF758FE13B030BD4038024008
:102C4000007000401048016841F4700101600F48B5
:102C5000016841F0010101600C4A00210832116055
:102C600002680B4B1A400260031D0A4A1A60026890
:102C700022F48022026005480C30016002495806A7
:102C8000803908607047000088ED00E0003802409D
:102C9000FFFFF6FE1030002410B50E4C002202217A
:102CA0002046FEF77CFD002208212046FEF777FD36
:102CB000002210212046FEF772FD0022202120462E
:102CC000FEF76DFD0448FFF760FABDE810400248CA
:102CD000FFF7DCBA000C0240080100200148FFF7B2
:102CE000D5BA00004801002011480068012803D12E
:102CF00010480168491C01600F480068012803D191
:102D00000E480168491C01600D480068012803D184
:102D10000C480168491C01600B480068012803D178
:102D20000A480168491C01600948FFF7AFBA000072
:102D3000500000200000002054000020040000206B
:102D400058000020080000205C0000200C0000203B
:102D500088010020F0B50268254C264D264E274FED
:102D6000274B4FF0804CA04209D0604507D0A842C5
:102D700005D0B04203D0B84201D0984204D122F02D
:102D8000700E4A6842EA0E02A0421BD0604519D07C
:102D9000A84217D0B04215D0B84213D0984211D0F3
:102DA000184DA8420ED0184DA8420BD0174DA8427E
:102DB00008D0174DA84205D0164DA84202D0164D96
:102DC000A84203D122F44075CA682A434D6922F013
:102DD00080022A4302608A68C2620A688262A04254
:102DE00001D0984201D10969016301214161F0BD1F
:102DF000000001400004004000080040000C0040BA
:102E000000040140004001400044014000480140EE
:102E100000180040001C00400020004010B501F0E8
:102E20001F030121046A99408C430462016A9A409D
:102E30001143016210BD10B5846842EA032224F4F4
:102E40007F440A432243826010BD826822F07002F0
:102E50000A4342F00701816070470000F0B5026A42
:102E600022F001020262036A42688469124E24F071
:102E700073050C682C4323F002058B682B430D4D22
:102E8000A84201D0B04205D123F00807CB683B43EC
:102E900023F00403A84201D0B04205D14D6922F4C9
:102EA000407215438A692A434260846149684163DC
:102EB0000362F0BD0000014000040140F0B5026A69
:102EC00022F010020262026A436884690D6824F4E9
:102ED000E64444EA05248D6822F0200242EA051205
:102EE0000F4D104EA84201D0B04206D1CF6822F05B
:102EF000800242EA071222F04002A84201D0B0420A
:102F000007D14D6923F4406343EA85038D6943EAA1
:102F1000850343608461496881630262F0BD0000FB
:102F20000000014000040140F0B5026A22F4807202
:102F30000262026A4368C46922F4007224F07305D5
:102F40000C68124E2C438D6842EA05220E4DA842B1
:102F500001D0B04206D1CF6822F4006242EA0722D3
:102F600022F48062A84201D0B04207D14D6923F417
:102F7000405343EA05138D6943EA05134360C46176
:102F80004968C1630262F0BD0000014000040140D5
:102F900030B5026A22F480520262046A4268C36950
:102FA0000D6823F4E64343EA05238D6824F40054B6
:102FB00044EA0534084DA84202D0084DA84204D185
:102FC0004D6922F4804242EA85124260C361496839
:102FD0000164046230BD00000000014000040140B3
:102FE00010B5036A046A24F001040462846924F0C1
:102FF000F00444EA021423F00A020A4384610262E4
:1030000010BD10B5036A23F0100303628369046ADC
:1030100023F4704343EA023224F0A00343EA01118F
:103020008261016210BDFEE70907090E002804DB7A
:1030300000F1E02080F80014704700F00F0000F16C
:10304000E02080F8141D704702E008C8121F08C174
:10305000002AFAD170477047002001E001C1121F19
:10306000002AFBD17047000008B5FEF7ABFBFFF765
:10307000A9FDFFF7EBFB1A48016841F480010160EC
:103080000068002200F48000009011463820FEF70E
:10309000F9FB3820FEF7E8FBFFF7C6FCFFF7ECFC76
:1030A000FFF714FDFFF752FCFFF766FC00210D4807
:1030B000FFF750FA08210B48FFF74CFA0948803017
:1030C000FFF752F80748C030FFF74EF800210846D6
:1030D000FFF738FD01210020FFF734FDFEE7000077
:1030E00030380240C800002010B52DED048BB0EE42
:1030F000418AF0EE618AB0EE409AF0EE609A53ECAD
:10310000182B51EC190BFDF77DFA06D2B0EE490AE7
:10311000F0EE690ABDEC048B10BDB0EE480AF0EE8B
:10312000680AF7E710B52DED0C8BB0EE41AAF0EE72
:1031300061AAB0EE408AF0EE608AB0EE449AF0EEFA
:10314000649AB0EE43BAF0EE63BAB0EE42CAF0EE63
:1031500062CA9FED2ADB53EC1A2B51EC180BFDF7DA
:1031600039FA06D2B0EE4D0AF0EE6D0ABDEC0C8BCA
:1031700010BD53EC1C2B51EC180BFDF72BFA12D29F
:1031800053EC1A2B51EC1C0BFDF7FEF841EC190B1C
:1031900053EC1A2B51EC180BFDF7F6F841EC100B21
:1031A00053EC192B22E053EC1B2B51EC180BFDF7C1
:1031B00011FA02D29FED130BD8E753EC192B51EC07
:1031C000180BFDF707FACDD253EC1B2B51EC190B62
:1031D000FDF7DAF841EC1A0B53EC192B51EC180BF4
:1031E000FDF7D5F853EC1A2B41EC100B51EC100BFA
:1031F000FDF742F941EC100BB8E7000000000000B9
:1032000000000000000000000000F03FC0EBC00123
:10321000642201EB8101002805DD41F664100844B9
:1032200090FBF2F07047A1F5C851643991FBF2F0C0
:10323000704700061016000610160000000000007F
:103240000000010203040607080900006C320008B0
:10325000000000207000000048300008DC32000848
:1032600070000020B8050000583000080000000081
:10327000000000000000000000000000000000004E
:10328000000000000000000000000000000000003E
:10329000000000000000000000000000000000002E
:1032A0008F0100000000000000000000000000008E
:1032B000000000000000000000000000000000000E
:1032C00000000000000000000000000001000000FD
:0C32D00010000000000000000024F400CA
:040000050800018965
:00000001FF
