:020000040800F2
:10000000F80400209D010008AF1200081311000839
:10001000AD120008090500081B16000800000000CA
:10002000000000000000000000000000B312000803
:100030000B05000800000000B1120008B51200080E
:10004000B7010008B7010008B7010008B7010008B0
:10005000B7010008B7010008B7010008B7010008A0
:10006000B70100080D05000849050008B7010008A0
:10007000B7010008B7010008B7010008B701000880
:10008000B7010008B7010008B7010008B701000870
:10009000B7010008B7010008B7010008B701000860
:1000A000B7010008B7010008B7010008B701000850
:1000B0008D130008C9130008AD140008B70100082B
:1000C000B7010008B7010008B7010008B701000830
:1000D000B7010008B7010008B7010008B701000820
:1000E000B7010008B7010008B7010008B701000810
:1000F000B7010008B7010008B7010008B701000800
:10010000B7010008B7010008B7010008B7010008EF
:10011000B7010008B7010008B7010008B7010008DF
:10012000B7010008B7010008B7010008B7010008CF
:10013000B7010008B7010008B7010008B7010008BF
:10014000B7010008B7010008B7010008B7010008AF
:10015000B7010008B7010008B7010008B70100089F
:10016000B7010008B7010008B7010008B70100088F
:10017000B7010008B7010008B7010008000000003F
:10018000B7010008B7010008DFF80CD000F0AAF9A9
:10019000004800475D160008F80400200648804724
:1001A00006480047FEE7FEE7FEE7FEE7FEE7FEE75C
:1001B000FEE7FEE7FEE7FEE73913000889010008C5
:1001C0002DE9F05F0546002092469B46884606468C
:1001D000814640241BE0284641464746224600F01F
:1001E000DCF853465A46C01A914110D311461846BE
:1001F000224600F0C3F82D1A67EB01084F4622464D
:100200000120002100F0BAF817EB00094E41201E32
:10021000A4F10104DFDC484631462A464346BDE8E6
:10022000F09FD2B201E000F8012B491EFBD27047CB
:100230000022F6E710B513460A4604461946FFF7B2
:10024000F0FF204610BD2DE9FE4F81EA030404F0C3
:10025000004421F0004100944FF0000B23F00043D4
:1002600050EA01045ED052EA03045BD0C3F30A549F
:10027000C1F30A552C44A4F2F3340194A0FB0254B8
:10028000C1F3130141F48011C3F3130343F480134A
:1002900001FB024400FB034E840A970A44EA81549E
:1002A00047EA8357A4FB076802958D0A05FB07857B
:1002B0004FEA932C04FB0C542705029D4FEA065885
:1002C00047EA1637B5EB08056EEB070C870E920E62
:1002D00047EA811742EA8312A7FB0201B6EB0B0142
:1002E00064EB00042B0D43EA0C335E1844EB1C5006
:1002F000DA465146E7FB0201C5F313044FEA0B331C
:1003000043EA14534FEA0432019C43EA0603A4F182
:100310000C040294009CCDE900B400F094F803B002
:10032000BDE8F08F00200146F9E70EB540F23341F9
:1003300002910021CDE900110A460B4600F083F836
:1003400003B000BD01F0004330B421F0004150EA99
:10035000010206D00A0DA2F56072C1F31301002A52
:1003600002DC30BC00207047440F44EAC104C100E5
:10037000E01830BC00EBC25000F01FB8202A04DBAC
:10038000203A00FA02F1002070479140C2F12003A8
:1003900020FA03F3194390407047202A04DB203AE7
:1003A00021FA02F00021704721FA02F3D040C2F195
:1003B000200291400843194670470029A8BF7047A2
:1003C000401C490008BF20F00100704710B4B0FA8B
:1003D00080FC00FA0CF050EA010404BF10BC704726
:1003E00049B1CCF1200421FA04F411FA0CF118BF40
:1003F000012121430843A3EB0C01CB1D4FEA00610F
:100400004FEA102042BF002010BC704700EBC350E1
:1004100010440029A4BF10BC7047401C490008BF0D
:1004200020F0010010BC704710B5141E73F10004D9
:1004300008DA401C41F1000192185B411A4301D1D6
:1004400020F0010010BD2DE9F04D92469B4611B100
:10045000B1FA81F202E0B0FA80F220329046FFF762
:100460008DFF04460F4640EA0A0041EA0B0153465D
:100470005A46084313D0114653EA010019D0C8F177
:1004800040025046FFF789FF05460E465046594642
:100490004246FFF773FF084305D0012004E02046E1
:1004A0003946BDE8F08D0020054346EAE0762C434E
:1004B00037430A986305E40AA0EB08000022FD0A0E
:1004C00044EA47540A3002D500200146E9E7010515
:1004D00010196941DDE9084500196941BDE8F04D91
:1004E000A2E70000064C074D06E0E06840F001037B
:1004F00094E8070098471034AC42F6D3FFF748FE63
:1005000098160008B8160008FEE7704710B50821D5
:10051000094800F01DF9094A094B002118B10120D2
:100520001060196003E01868064B18601160BDE8A0
:100530001040082000F028B80004024018000020F5
:10054000080000201000002010B51021094800F01C
:10055000FFF8094A094B002118B101201060196009
:1005600003E01868064B18601160BDE810401020C9
:1005700000F00AB8000402401C0000200C0000201B
:100580001400002070470000044910B50A680242B8
:1005900002D00860FFF7F6FF10BD0000143C0140D8
:1005A0002DE9F84FDFF87CB100224FF001084FF041
:1005B000030A4FF00F090BF1040E00BF0B6808FA95
:1005C00002F42340A3426ED14D68022D01D0122DBA
:1005D0000ED1D50800EB850CDCF820505607F70E3D
:1005E00009FA07F6B5430E69BE402E43CCF82060E9
:1005F000066855000F790AFA05FC07F0030726EA9A
:100600000C06AF40374307604E68012E05D0022E1E
:1006100003D0112E01D0122E0ED18668CF6826EAA3
:100620000C06AF40374387604668A6430C79C4F395
:100630000014944034434460C6688C6826EA0C0673
:10064000AC403443C4604C68E40065D5364C256842
:1006500045F480452560246822F0030504F48044B5
:100660000094324C2E19D6F8084895072F0F09FA36
:1006700007F5AC432E4DA84201D1002524E02D4DB5
:10068000A84201D101251FE02B4DA84201D102252E
:100690001AE02A4DA84201D1032515E0284DA842B1
:1006A00002D1042510E037E0264DA84201D10525EE
:1006B0000AE0254DA84201D1062505E0234DA842B8
:1006C00001D1072500E00825BD402543C6F808589C
:1006D000DBF800405D464E689C43F60300D51C43A2
:1006E0002C60DEF8004075464E689C43B60300D58A
:1006F0001C432C600B4D08352C684E689C43F60259
:1007000000D51C432C60074D0C352C684E689C436B
:10071000B60200D51C432C60521C102AFFF44EAFC9
:10072000BDE8F88F003C01404438024000300140F1
:10073000000002400004024000080240000C024099
:10074000001002400014024000180240001C024049
:100750000069084000D0012070470AB181617047EC
:100760000904FBE70148806870470000280000206A
:100770000248816802781144816070472800002097
:100780000B4810B5016841F400710160016841F443
:1007900080610160016841F480710160032000F014
:1007A0006FF8002000F006F800F024F8002010BDDB
:1007B000003C024070B50D4D04464FF47A71287824
:1007C000B1FBF0F00A490968B1FBF0F000F0C2FAA1
:1007D00048B9102C07D200222146501E00F030F8F4
:1007E00000206C6070BD012070BD0000280000205A
:1007F000340000200A4808B5016841F480410160D6
:10080000006800F4804000900548001F016841F036
:1008100080510160006800F08050009008BD000029
:1008200044380240002809DB00F01F0201219140FA
:100830004009800000F1E020C0F80011704700007E
:10084000F0B40E4B1B680C46C3F30223C3F107053B
:10085000042D00D90425191D072901D2002300E029
:10086000DB1E012606FA05F1491E214099409E40F3
:10087000761E16403143F0BC00F0D0BE0CED00E017
:10088000064900F0070208684FF6FF03184040EAE7
:100890000220034A10430860704700000CED00E09E
:1008A0000000FA052DE9F0470E46050065D0DFF897
:1008B0001481D8F80000F7B200F00F00B04207D260
:1008C00088F80070D8F8000000F00F00B04254D152
:1008D00028683D4C810712D5400703D5206840F4B5
:1008E000E05020602878000703D5206840F460407D
:1008F00020602068A96820F0F00008432060287874
:10090000C0072DD0304968680839012812D0022864
:1009100013D0032811D00968890700292DDA21682E
:1009200021F0030101432160FFF71CFF814641F2E2
:10093000883A0EE009688903EFE709688901ECE766
:10094000FFF710FFA0EB0901514502D90320BDE8D4
:10095000F0872068696800F00C00B0EB810FEFD1E0
:10096000D8F80010404601F00F01B14207D90770D6
:10097000006800F00F00B04201D00120E7E72878BE
:10098000400705D52068E96820F4E050084320605E
:100990002878000706D52068296920F4604040EADD
:1009A000C100206000F016F82168084AC1F3031165
:1009B000515CC840064908600020FFF7FBFE00209C
:1009C000C5E70000003C02400838024088160008D5
:1009D00034000020154810B5006810F00C021448CF
:1009E00013D01449042A0FD0082A0ED10F4C241F0B
:1009F0002268236802F03F025B0207D52068C0F33B
:100A00008810A0FB010106E0084610BD2168C1F373
:100A10008811A1FB00010023FFF7D2FB2168C1F37D
:100A20000141491C4900B0FBF1F010BD08380240FB
:100A30000024F40040787D012DE9F84F050076D0C0
:100A40002878DFF8F8B2BE4CC00749D0DBF80010B8
:100A50005846C1F38101012908D00068C0F3810024
:100A600002280AD1201D0068400206D520688003B4
:100A700036D568680028E2D032E06868B0F5803F7B
:100A800010D0B0F5A02F206810D020F48030206066
:100A9000206820F4802020606868A0B1FFF762FE23
:100AA00006460CE0206840F48030F4E740F48020F3
:100AB0002060F7E7FFF756FE801B642873D8206894
:100AC0008003F7D50CE0FFF74DFE064605E000BFBA
:100AD000FFF748FE801B6428F0D820688003F7D415
:100AE0002878DFF8608280074FF000093ED5DBF8F8
:100AF0000010584611F00C0F09D00068C0F38100B7
:100B000002280BD18D48001F0068400206D42068DF
:100B1000800715D5E868012809D111E0E868B8B167
:100B20000120C8F80000FFF71DFE064605E002E1BF
:100B3000FFF718FE801B0228C0D820688007F7D571
:100B40002068296920F0F80040EAC10020600DE02B
:100B5000C8F80090FFF706FE064604E0FFF702FE25
:100B6000801B02281FD820688007F7D42878000748
:100B700022D5724E744869696C3671B101210160E9
:100B8000FFF7F0FD074604E0FFF7ECFDC01B02286D
:100B900009D830688007F7D50EE0C0F80090FFF75D
:100BA000E1FD074605E083E0FFF7DCFDC01B0228FE
:100BB0007ED830688007F7D42878400768D5DFF8FA
:100BC0007CA100270AF1380ADAF80000C0000BD433
:100BD000DAF8001041F08051CAF80010DAF800008D
:100BE000012700F080500090584E3068C00510D4A6
:100BF000306840F480703060FFF7B4FD009005E08D
:100C0000FFF7B0FD0099401A022851D83068C0059E
:100C1000F6D54A4EA868683601280FD005283068F6
:100C200010D020F001003060306820F00400306007
:100C3000A868B8B1FFF796FD00900FE0306840F06B
:100C40000100F4E740F004003060F7E7FFF78AFDA9
:100C50000099411A41F28830814264D83068800797
:100C6000F4D50EE0FFF77EFD009007E0FFF77AFD78
:100C70000099411A41F28830814254D83068800787
:100C8000F4D42FB1DAF8001021F08051CAF8001026
:100C9000A869C0B3DBF80010C1F3810102294AD072
:100CA0000228484607D0C8F86000FFF75BFD00E067
:100CB00039E005463AE04746C8F86000FFF752FDC4
:100CC000064604E0FFF74EFD801B02282BD8206863
:100CD0008001F7D4D5E907010843A96A1C4A4908ED
:100CE00002EB01416A6A41EA8211084395F82C102F
:100CF00040EA01611148001F016001203866FFF7DA
:100D000031FD054605E014E0FFF72CFD401B0228ED
:100D100009D820688001F7D50BE000BFFFF722FD5E
:100D2000401B022802D90320BDE8F88F206880010B
:100D3000F4D40020F8E70120F6E70000083802406C
:100D40000038024000004742800E474200700040D9
:100D50000000FFFF10B5401EB0F1807F01D30120DD
:100D600010BD4FF0E02460610F21601700F056FCC9
:100D70000020A06107202061002010BD704770474F
:100D800070B590F83C20012A19D0012400F83C4F9E
:100D90000222427050F83C3C5A689D6822F070066E
:100DA0000A684968324325F0800529435A6050F8A3
:100DB0003C2C9160447000210170084670BD0220F7
:100DC00070BD10B5040003D094F83D0010B107E0E9
:100DD000012010BD002084F83C00204600F00CF8F3
:100DE000022084F83D00211D206800F07DFB0120D9
:100DF00084F83D00002010BD08B501681D48B1F120
:100E0000804F11D01C4A91421DD1016841F002016E
:100E100001600068002200F00200009011461D20D1
:100E2000FFF70EFD1D201FE0016841F00101016088
:100E30000068002200F00100009011461C20FFF71E
:100E4000FFFC1C2010E00D4A914211D1016841F0D5
:100E5000040101600068002200F0040000901146C7
:100E60001E20FFF7EDFC1E20BDE80840FFF7DABCAE
:100E700008BD000040380240000400400008004067
:100E80000168CA6842F00102CA600068816801F026
:100E90000701062903D0016841F00101016000202B
:100EA00070470168CA6822F00102CA600068016ADE
:100EB00041F21112114207D1016A9210114203D17D
:100EC000016821F0010101600020704770B50446FF
:100ED00090F83C00012817D0012584F83C500220EE
:100EE00084F83D002068826822F0770222F47F4275
:100EF00082600868502830D00DDC20284DD005DCF9
:100F000098B310283BD148E0022070BD302844D06F
:100F1000402834D139E0602828D0702806D0B0F5B8
:100F2000805F2CD0B0F5005F29D10AE0CB68D1E911
:100F30000121206800F03CFB2068816841F07701C6
:100F400009E0CB68D1E90121206800F031FB20687D
:100F5000816841F48041816011E0CA684968206875
:100F600000F038FB5021206807E016E0CA684968A5
:100F7000206800F040FB6021206800F023FB84F82B
:100F80003D50002084F83C0070BDCA684968206864
:100F900000F020FB40212068EFE722680146104660
:100FA000EBE7704770B50446006801694FF0000533
:100FB000C943890715D4C168C943890711D4E91EFB
:100FC000016101202077206880698007204602D0D7
:100FD000FFF7E7FF04E000F098F8204600F096F8ED
:100FE000257720680169C943490717D4C168C943F7
:100FF000490713D46FF004010161022020772068B3
:10100000806910F4407F204602D0FFF7CAFF04E059
:1010100000F07BF8204600F079F825772068016918
:10102000C943090716D4C168C943090712D46FF030
:1010300008010161042020772068C06980072046EC
:1010400002D0FFF7AEFF04E000F05FF8204600F0AA
:101050005DF8257720680169C943C90617D4C168BE
:10106000C943C90613D46FF010010161082020772D
:101070002068C06910F4407F204602D0FFF791FF3E
:1010800004E000F042F8204600F040F825772068A0
:101090000169C943C90708D1C168C943C90704D157
:1010A000891E0161204600F032F820680169C943B9
:1010B000090609D4C168C943090605D46FF0800147
:1010C00001612046FFF75AFE20680169C9434906BD
:1010D00009D4C168C943490605D46FF040010161D4
:1010E000204600F015F820680169C94389060BD431
:1010F000C168C943890607D46FF020010161204609
:10110000BDE87040FFF73BBE70BD70477047704749
:101110007047FEE770B586B014216846FFF788F87F
:1011200021480024016841F001010160016801F0DB
:1011300001010591016841F008010160016801F0B9
:1011400008010591016841F0020101600068174E35
:1011500000F002000590002218213046FFF7FDFA4A
:10116000182501200095CDE9010469463046039415
:10117000FFF716FA0E480095CDE9010469460D48BF
:10118000FFF70EFA002211460920FFF759FB09204C
:10119000FFF748FB002211460A20FFF751FB0A2007
:1011A000FFF740FB06B070BD30380240000C024033
:1011B000000031100004024010B586B00024114830
:1011C000009401940294039404944FF08041059498
:1011D00001602921C0E901141321C0E903148461CD
:1011E000FFF7EFFD4FF48050009069460548FFF788
:1011F0006DFE049404A903480594FFF7C1FD06B0F1
:1012000010BD00003800002010B586B00024124840
:10121000009401940294039404940E49059401608F
:1012200042F2CF01C0E9011442F20F71C0E9031488
:101230008461FFF7C6FD4FF4805000906946064870
:10124000FFF744FE049404A903480594FFF798FDB2
:1012500006B010BD000400407800002010B586B034
:1012600000241148009401940294039404940D49BD
:10127000059401602921C0E901140121C0E903148A
:101280008461FFF79EFD4FF4805000906946064848
:10129000FFF71CFE049404A903480594FFF770FDB2
:1012A00006B010BD00080040B8000020FEE77047FF
:1012B00070477047FFF75CBA30B593B0302168468D
:1012C000FEF7B6FF14210CA8FEF7B2FF1848002560
:1012D000016841F080510160006800F08050119079
:1012E0001448016841F4804101600068022400F460
:1012F00080401190012003901020049000940694E7
:101300000820CDE907505420CDE9090404200B90B2
:101310006846FFF791FB0CA90F2081E83100E0023D
:10132000CDE90F0502210CA8FFF7BCFA13B030BDC0
:1013300040380240007000401048016841F47001DC
:1013400001600F48016841F0010101600C4A002171
:101350000832116002680B4B1A400260031D0A4AF2
:101360001A60026822F48022026005480C30016095
:1013700002495806803908607047000088ED00E097
:1013800000380240FFFFF6FE103000240B4810B575
:101390000168491C01600A4C002208212046FFF721
:1013A000DCF9002210212046FFF7D7F90548FFF7A6
:1013B00078FDBDE810400348FFF7F4BD00000020B1
:1013C000000C02403800002010B529482DED068B96
:1013D0000168491C0160274900200860264C012251
:1013E00008212046FFF7B9F9012210212046FFF716
:1013F000B4F92248FFF744FD21480068FEF795FF45
:101400009FED208B53EC182BFEF71DFF9FED1F9BCC
:1014100053EC192BFEF717FF9FED1EAB53EC1A2B65
:10142000FEF711FFFEF78EFF00EE100A1B4880ED5D
:10143000000A1B480068FEF778FF53EC182BFEF7F4
:1014400002FF53EC192BFEF7FEFE53EC1A2BFEF7AE
:10145000FAFEFEF777FF00EE100A124880ED000A50
:101460001148BDEC068BBDE81040FFF79BBD0000A6
:101470000400002000000020000C02403800002082
:10148000100000202D431CEBE2361A3F0000000044
:1014900000407540000000000000E03F20000020F8
:1014A0001400002024000020780000200948006873
:1014B000012803D108480168491C016007480068F9
:1014C000012803D106480168491C01600548FFF75F
:1014D00069BD000018000020080000201C0000204A
:1014E0000C000020B8000020F0B50268254C264D05
:1014F000264E274F274B4FF0804CA04209D0604525
:1015000007D0A84205D0B04203D0B84201D09842DB
:1015100004D122F0700E4A6842EA0E02A0421BD0AB
:10152000604519D0A84217D0B04215D0B84213D0A8
:10153000984211D0184DA8420ED0184DA8420BD099
:10154000174DA84208D0174DA84205D0164DA84205
:1015500002D0164DA84203D122F44075CA682A432E
:101560004D6922F080022A4302608A68C2620A68DA
:101570008262A04201D0984201D109690163012130
:101580004161F0BD0000014000040040000800403F
:10159000000C0040000401400040014000440140B4
:1015A0000048014000180040001C0040002000409E
:1015B00010B5846842EA032224F47F440A4322439C
:1015C000826010BD826822F070020A4342F0070177
:1015D0008160704710B5036A046A24F00104046254
:1015E000846924F0F00444EA021423F00A020A4356
:1015F0008461026210BD10B5036A23F01003036218
:101600008369046A23F4704343EA023224F0A0039E
:1016100043EA01118261016210BDFEE70907090E6C
:10162000002804DB00F1E02080F80014704700F08F
:101630000F0000F1E02080F8141D704702E008C898
:10164000121F08C1002AFAD170477047002001E03C
:1016500001C1121F002AFBD170470000FFF790F86C
:10166000FFF72AFEFFF756FDFFF7A6FDFFF7CCFDBB
:10167000FFF7F4FD0348FFF703FC02484030FFF793
:10168000FFFBFEE7780000200000000000000000E3
:101690000102030406070809B8160008000000202C
:1016A000380000003C160008F01600083800002042
:1016B000C00400004C1600080000000000000000FC
:1016C000000000000000000000000000000000001A
:1016D000000000000000000000000000000000000A
:1016E0000100000010000000000000000024F400D1
:040000050800018965
:00000001FF
