:020000040800F2
:10000000300600209D010008FF3500082B33000852
:10001000FD350008410800080B3B00080000000007
:100020000000000000000000000000002136000871
:10003000CD0800080000000001360008A5360008C1
:10004000B7010008B7010008B7010008B7010008B0
:10005000B7010008B7010008B7010008511C0008EB
:10006000B70100088D1C0008C91C0008B701000872
:10007000B7010008B7010008B7010008B701000880
:10008000B7010008B7010008B7010008B701000870
:10009000B7010008B7010008B7010008051D0008F6
:1000A000B7010008B7010008B7010008B701000850
:1000B0007D370008C1370008CD370008B7010008B8
:1000C000B7010008B7010008B701000805360008AD
:1000D000B7010008B7010008B7010008B701000820
:1000E000B7010008B7010008B7010008B701000810
:1000F000B7010008B7010008B7010008B701000800
:10010000B7010008B7010008B7010008B7010008EF
:10011000B7010008B7010008B7010008B7010008DF
:1001200045080008B7010008B7010008B70100083A
:10013000B7010008B7010008B7010008B7010008BF
:10014000B7010008B7010008B7010008B7010008AF
:10015000B7010008B7010008B7010008B70100089F
:10016000B7010008B7010008B7010008B70100088F
:10017000B7010008B7010008B7010008000000003F
:10018000B7010008B7010008DFF80CD000F046FB0B
:10019000004800474D3B00083006002006488047D5
:1001A00006480047FEE7FEE7FEE7FEE7FEE7FEE75C
:1001B000FEE7FEE7FEE7FEE72937000889010008B1
:1001C0002DE9F05F0546002092469B46884606468C
:1001D000814640241BE0284641464746224600F01F
:1001E00066FA53465A46C01A914110D31146184632
:1001F000224600F04DFA2D1A67EB01084F462246C1
:100200000120002100F044FA17EB00094E41201EA6
:10021000A4F10104DFDC484631462A464346BDE8E6
:10022000F09FD2B201E000F8012B491EFBD27047CB
:100230000022F6E710B513460A4604461946FFF7B2
:10024000F0FF204610BD2DE9FE4F804681EA0300F5
:10025000C00F0C46009021F0004123F00045B8EBA0
:100260000200A94105D24046214690461C460B4655
:10027000024623F00040104347D0270DC7F30A0081
:10028000C3F30A510290401A019040286BDAC3F37D
:10029000130040F4801B0098924620B10023D2EB5B
:1002A000030A63EB0B0B01985946C0F1400250461C
:1002B00000F0EEF906460D4650465946019A00F008
:1002C00006FA10EB08006141002487EA115284EA23
:1002D000E7731A4340D0009A62B3019A012A4FEAA9
:1002E000075215DC001B61EB02014FF0004202EAED
:1002F0000752CDE90042001C41F5801132462B46E1
:1003000000F03DFA03B0BDE8F08F40462146F9E722
:10031000001B61EB0201001C41F5801300185B41DA
:100320002018A2F5001747EB030140EAD570B61973
:100330006D4111E06D084FEA360645EAC0754FEA97
:100340000752001B61EB0201001C41F580114908B6
:100350004FEA30000019514132462B4603B0BDE848
:10036000F04F00F0FDB90098012240000023D0EBCF
:10037000020263EBE073009821464FEAE074B8EBA9
:10038000000061EB0401E9E783F000435BE781F0E3
:10039000004158E72DE9FE4F81EA030404F00044D0
:1003A00021F0004100944FF0000B23F0004350EA8D
:1003B00001045ED052EA03045BD0C3F30A54C1F3D4
:1003C0000A552C44A4F2F3340194A0FB0254C1F367
:1003D000130141F48011C3F3130343F4801301FBB1
:1003E000024400FB034E840A970A44EA815447EA18
:1003F0008357A4FB076802958D0A05FB07854FEA22
:10040000932C04FB0C542705029D4FEA065847EA3B
:100410001637B5EB08056EEB070C870E920E47EA10
:10042000811742EA8312A7FB0201B6EB0B0164EBD2
:1004300000042B0D43EA0C335E1844EB1C50DA46E3
:100440005146E7FB0201C5F313044FEA0B3343EABD
:1004500014534FEA0432019C43EA0603A4F10C044E
:100460000294009CCDE900B400F089F903B0BDE826
:10047000F08F00200146F9E72DE9F04D81EA0304F1
:1004800004F0004B21F0004514464FF0000A23F021
:10049000004150EA050220D054EA01021DD0C5F304
:1004A0000A570246C5F31303C1F31300C1F30A56FA
:1004B00040F4801543F48013A7EB0608101BD646C2
:1004C00008F2FD3873EB050002D308F1010801E0E2
:1004D00092185B41B8F1000F03DA00200146BDE835
:1004E000F08D00204FF48011064684460EE0171B65
:1004F00073EB050705D3121B63EB050306434CEAB8
:10050000010C49084FEA300092185B4150EA01079C
:10051000EDD152EA030012D082EA040083EA050119
:10052000084305D0101BAB4106D20122002306E090
:1005300000224FF0004302E06FF0010253101AEB6B
:1005400006004CEB085110EB0A0041EB0B01BDE833
:10055000F04D00F005B90EB5C10F80EAE070084417
:10056000CA07002140F233438DE80E000A460B46CD
:1005700000F005F903B000BD0EB540F23341029121
:100580000021CDE900110A460B4600F0F8F803B04F
:1005900000BD70B5C1F30A5201F000450024C1F35B
:1005A000130140F2FF3341F480119A4201DA002036
:1005B00070BD40F233439A42A2F2334203DC52420E
:1005C00000F075F800E090402C43F1D0404270BD3F
:1005D00000F0004230F000400AD0C10D01F560711A
:1005E000C0F3160042EA0151C208400711437047A8
:1005F000002001467047000030B5041E71F1000470
:1006000004DB4FF00044404264EB0101141E73F11F
:10061000000405DB1C464FF00043524263EB040329
:100620008B4208BF824230BD30B5041E71F1000418
:1006300004DB4FF00044404264EB0101141E73F1EF
:10064000000405DB1C464FF00043524263EB0403F9
:10065000994208BF904230BD01F0004330B421F010
:10066000004150EA010206D00A0DA2F56072C1F302
:100670001301002A02DC30BC00207047440F44EA1A
:10068000C104C100E01830BC00EBC25000F031B82A
:10069000202A04DB203A00FA02F100207047914042
:1006A000C2F1200320FA03F3194390407047202A37
:1006B00004DB203A21FA02F00021704721FA02F30C
:1006C000D040C2F120029140084319467047202AC9
:1006D00006DBCB17203A41FA02F043EAE07306E06A
:1006E00041FA02F3D040C2F120029140084319467A
:1006F00070470029A8BF7047401C490008BF20F080
:100700000100704710B4B0FA80FC00FA0CF050EA17
:10071000010404BF10BC704749B1CCF1200421FA98
:1007200004F411FA0CF118BF012121430843A3EB93
:100730000C01CB1D4FEA00614FEA102042BF0020A0
:1007400010BC704700EBC35010440029A4BF10BC7C
:100750007047401C490008BF20F0010010BC7047E2
:1007600010B5141E73F1000408DA401C41F10001B9
:1007700092185B411A4301D120F0010010BD2DE910
:10078000F04D92469B4611B1B1FA81F202E0B0FA07
:1007900080F220329046FFF77BFF04460F4640EA86
:1007A0000A0041EA0B0153465A46084313D011464A
:1007B00053EA010019D0C8F140025046FFF777FF15
:1007C00005460E46504659464246FFF761FF08432C
:1007D00005D0012004E020463946BDE8F08D002018
:1007E000054346EAE0762C4337430A986305E40A5A
:1007F000A0EB08000022FD0A44EA47540A3002D563
:1008000000200146E9E7010510196941DDE90845C5
:1008100000196941BDE8F04DA2E70000064C074D04
:1008200006E0E06840F0010394E8070098471034C0
:10083000AC42F6D3FFF7ACFCF83C0008183D0008CA
:10084000FEE70000014801F08FBA0000D00100204F
:1008500001681823CAB2103AB2FBF3F2054B6FF3EA
:100860000901032A9B5CC36500D9091D81650846FF
:1008700070470000E03C000810B5014600208B697D
:100880008A6A4FF0C07453B1B3F5005F15D072B1EE
:10089000012A0CD0022A0AD0032A09D104E01AB195
:1008A000012A06D0022A03D1C96AC90100D5012054
:1008B00010BDC96AA142FAD010BD002AF7D0012AA2
:1008C000F2D0022AF3D0032AF3D010BD7047000003
:1008D00010B52DED040B2DED108BAEB0B0EE408AAF
:1008E000F0EE608A9FEDFD4B9FEDFE9BB0EE493A26
:1008F000F0EE693A9FEDFD1BB0EE412AF0EE612A61
:1009000003F07AF9B0EE40BAF0EE60BA9FEDF94B21
:100910009FEDF23B9FEDF12BB0EE491AF0EE691A14
:10092000B0EE480AF0EE680A03F066F9B0EE40FA5D
:10093000F0EE60FA9FEDF14B9FEDEE3B9FEDED2B5E
:100940009FEDE61BB0EE480AF0EE680A03F054F99A
:10095000B0EE40EAF0EE60EA9FEDEAABB0EE4A4A54
:10096000F0EE6A4A9FEDE53B9FEDE42B9FEDE11B26
:10097000B0EE480AF0EE680A03F03EF9B0EE40DA55
:10098000F0EE60DA9FEDE19BB0EE4A2AF0EE6A2AC3
:10099000B0EE494AF0EE694AB0EE493AF0EE693AF3
:1009A0009FEDD61BB0EE480AF0EE680A03F024F97A
:1009B000B0EE40CAF0EE60CA9FEDD68BB0EE493A79
:1009C000F0EE693AB0EE484AF0EE684A9FEDC92B66
:1009D0009FEDC81B9DED400B03F00EF9B0EE40AA51
:1009E000F0EE60AA9FEDCD4BB0EE483AF0EE683ADB
:1009F000B0EE482AF0EE682AB0EE491AF0EE691A15
:100A00009DED400B03F0F8F8B0EE409AF0EE609ADE
:100A10009FEDC43BB0EE434AF0EE634A9FEDBF2B1F
:100A2000B0EE481AF0EE681A9DED400B03F0E4F8C2
:100A3000B0EE408AF0EE608A9FEDA80B8DED280B9A
:100A40009FEDBA0B8DED220B9FEDBA0B8DED260BB2
:100A50009FEDA80B8DED200B9FEDB80B8DED1E0BC0
:100A60009FEDB80B8DED1C0B9FEDA40B53EC1A2BD7
:100A70008DED1A0B51EC1B0BFFF78CFC41EC100BAE
:100A800053EC192B8DED2A0B51EC1B0BFFF782FC5D
:100A900041EC100B53EC182B8DED180B51EC1B0B8C
:100AA000FFF778FC41EC100B53EC1A2B8DED160B75
:100AB00051EC1F0BFFF76EFC41EC100B53EC192BA4
:100AC0008DED140B51EC1F0BFFF764FC41EC100B88
:100AD00053EC182B8DED120B51EC1F0BFFF75AFC4A
:100AE00041EC100B53EC1A2B8DED100B51EC1E0B3F
:100AF000FFF750FC41EC100B53EC192B8DED0E0B56
:100B000051EC1E0BFFF746FC41EC100B53EC182B7D
:100B100051EC1E0BB0EE40FAF0EE60FAFFF73AFC33
:100B200041EC100B53EC1A2B8DED0A0B51EC1D0B05
:100B3000FFF730FC41EC100B53EC192B8DED080B3B
:100B400051EC1D0BFFF726FC41EC100B53EC182B5E
:100B50008DED060B51EC1D0BFFF71CFC41EC100B4F
:100B600053EC1A2B8DED040B51EC1C0BFFF712FC10
:100B700041EC1A0B53EC192B51EC1C0BFFF70AFC40
:100B800041EC1D0B53EC182B51EC1C0BFFF702FC36
:100B900041EC180B9DED2ABB9DED141B9DED180B30
:100BA00003F00CF8B0EE40EAF0EE60EA9DED121BA7
:100BB0009DED160B03F002F89DED0E1B02F0FEFFFB
:100BC000B0EE40CAF0EE60CAB0EE4F1AF0EE6F1A07
:100BD0009DED100B02F0F2FF9DED081B02F0EEFF01
:100BE000B0EE409AF0EE609A9DED061B9DED0A0B6B
:100BF00002F0E4FFB0EE4A1AF0EE6A1A02F0DEFFED
:100C0000B0EE40AAF0EE60AAB0EE4D1AF0EE6D1A0A
:100C10009DED040B02F0D2FFB0EE40DAF0EE60DAA8
:100C200053EC1D2B51EC180BFFF70DFB53EC1A2B5B
:100C3000FFF709FB53EC192BFFF705FB53EC1C2BBB
:100C4000FFF701FB53EC1E2BFFF7FDFA53EC1B2BB8
:100C5000FFF7F9FA41EC100B53EC1B2BB0EE40FA06
:100C6000F0EE60FA9DED1A0B51EC100BFFF792FBC2
:100C70009DED1C0B41EC1E0B53EC1B2B51EC100B90
:100C8000FFF788FB9DED1E0B41EC1B0B53EC1C2B5F
:100C900051EC100BFFF77EFB9DED200B41EC1C0B84
:100CA00053EC192B51EC100BFFF774FB9DED260B49
:100CB00041EC190B53EC1A2B51EC100BFFF76AFBAC
:100CC0009DED220B41EC1A0B53EC1D2B51EC100B3C
:100CD000FFF760FB41EC1D0B38E000000000000056
:100CE00000003EC000000000008046C00000000080
:100CF00000004EC0000000000000000000000000E6
:100D000000003E400000000000804640000000005F
:100D100000004E400000000000C0524000000000F3
:100D20000080564000000000000059400000000014
:100D3000000034C000000000000024C000000000DB
:100D40000000244000000000000034409DED280B0E
:100D500053EC182B51EC100BFFF71CFB53EC1D2B25
:100D6000FFF771FA53EC1A2BFFF76DFA53EC192BBE
:100D7000FFF769FA53EC1C2BFFF765FA53EC1B2BBA
:100D8000FFF761FA53EC1E2BFFF75DFAB0EE4F0A46
:100D9000F0EE6F0A53EC102BFFF76EFB2EB041EC18
:100DA000100BBDEC108B1FBD10B52DED040B2DED00
:100DB000108BAEB0B0EE408AF0EE608A9FEDFD4B36
:100DC0009FEDFE9BB0EE493AF0EE693A9FEDFD1BB8
:100DD000B0EE412AF0EE612A02F00EFFB0EE40BA0A
:100DE000F0EE60BA9FEDF94B9FEDF23B9FEDF12BDA
:100DF000B0EE491AF0EE691AB0EE480AF0EE680A51
:100E000002F0FAFEB0EE40FAF0EE60FA9FEDF14B20
:100E10009FEDEE3B9FEDED2B9FEDE61BB0EE480AFC
:100E2000F0EE680A02F0E8FEB0EE40EAF0EE60EAAA
:100E30009FEDEAABB0EE4A4AF0EE6A4A9FEDE53B21
:100E40009FEDE42B9FEDE11BB0EE480AF0EE680A3F
:100E500002F0D2FEB0EE40DAF0EE60DA9FEDE19BF8
:100E6000B0EE4A2AF0EE6A2AB0EE494AF0EE694A3C
:100E7000B0EE493AF0EE693A9FEDD61BB0EE480A63
:100E8000F0EE680A02F0B8FEB0EE40CAF0EE60CABA
:100E90009FEDD68BB0EE493AF0EE693AB0EE484A93
:100EA000F0EE684A9FEDC92B9FEDC81B9DED400BEE
:100EB00002F0A2FEB0EE40AAF0EE60AA9FEDCD4B8C
:100EC000B0EE483AF0EE683AB0EE482AF0EE682A02
:100ED000B0EE491AF0EE691A9DED400B02F08CFE5F
:100EE000B0EE409AF0EE609A9FEDC43BB0EE434AFC
:100EF000F0EE634A9FEDBF2BB0EE481AF0EE681A91
:100F00009DED400B02F078FEB0EE408AF0EE608A74
:100F10009FEDA80B8DED280B9FEDBA0B8DED240BEB
:100F20009FEDBA0B8DED220B9FEDA80B8DED260BDF
:100F30009FEDB80B8DED200B9FEDB80B8DED1E0BCB
:100F40009FEDA40B53EC1A2B8DED1C0B51EC1B0BDE
:100F5000FFF720FA41EC100B53EC192B8DED0C0B25
:100F600051EC1B0BFFF716FA41EC100B53EC182B4E
:100F70008DED120B51EC1B0BFFF70CFA41EC1B0B28
:100F800053EC1A2B51EC1F0BFFF704FA41EC100B3A
:100F900053EC192B8DED160B51EC1F0BFFF7FAF9E3
:100FA00041EC100B53EC182B8DED140B51EC1F0B77
:100FB000FFF7F0F941EC100B53EC1A2B8DED100BF1
:100FC00051EC1E0BFFF7E6F941EC100B53EC192B1B
:100FD0008DED180B51EC1E0BFFF7DCF941EC100BFB
:100FE00053EC182B8DED0E0B51EC1E0BFFF7D2F9C5
:100FF00041EC100B53EC1A2B8DED0A0B51EC1D0B31
:10100000FFF7C8F941EC1F0B53EC192B51EC1D0BEA
:10101000FFF7C0F941EC1E0B53EC182B51EC1D0BE4
:10102000FFF7B8F941EC100B53EC1A2B8DED040BC4
:1010300051EC1C0BFFF7AEF941EC1A0B53EC192BDA
:1010400051EC1C0BFFF7A6F941EC190B53EC182BD4
:1010500051EC1C0BFFF79EF941EC180BB0EE491A4E
:10106000F0EE691AB0EE4F0AF0EE6F0A02F0A6FD3C
:10107000B0EE40DAF0EE60DAB0EE4E1AF0EE6E1A34
:101080009DED180B02F09AFDB0EE481AF0EE681ACA
:1010900002F094FDB0EE40EAF0EE60EA9DED0E1B2A
:1010A0009DED160B02F08AFD9DED041B02F086FDFE
:1010B000B0EE40CAF0EE60CA9DED141B9DED0C0B26
:1010C00002F07CFD9DED0A1B02F078FDB0EE409A27
:1010D000F0EE609A9DED101B9DED120B02F06EFD7F
:1010E000B0EE408AF0EE608A53EC182B51EC1B0BEB
:1010F000FFF7A9F853EC192BFFF7A5F853EC1C2BBD
:10110000FFF7A1F853EC1E2BFFF79DF853EC1D2BB6
:10111000FFF799F853EC1A2BFFF795F89DED1C0B90
:1011200041EC1F0B53EC1A2B51EC100BFFF732F96B
:101130009DED1E0B41EC1D0B53EC1A2B51EC100BCB
:10114000FFF728F99DED200B41EC1A0B53EC1E2BF9
:1011500051EC100BFFF71EF99DED260B41EC1E0B19
:1011600053EC1C2B51EC100BFFF714F99DED220BE7
:1011700041EC1C0B53EC192B51EC100BFFF70AF947
:101180009DED240B41EC190B53EC182B51EC100B7B
:10119000FFF700F99DED280B41EC180B53EC1B2BCE
:1011A00051EC100BFFF7F6F853EC182BFFF74BF848
:1011B00038E000000000000000003EC00000000019
:1011C000008046C00000000000004EC0000000008B
:1011D000000000000000000000003E400000000091
:1011E000008046400000000000004E40000000006B
:1011F00000C0524000000000008056400000000087
:101200000000594000000000000034C00000000051
:10121000000024C000000000000024400000000086
:101220000000344053EC192BFFF70DF853EC1C2B46
:10123000FFF709F853EC1E2BFFF705F853EC1A2BB8
:10124000FFF701F853EC1D2BFEF7FDFF53EC1F2BAE
:10125000FFF712F92EB041EC100BBDEC108B1FBD47
:1012600010B52DED040B2DED108BAEB0B0EE408A15
:10127000F0EE608A9FEDFEABB0EE4A4AF0EE6A4AAD
:101280009FEDFD9BB0EE493AF0EE693A9FEDFC2BE5
:101290009FEDFD1B02F0B0FCB0EE40FAF0EE60FAFC
:1012A0009FEDFB4BB0EE4A3AF0EE6A3AB0EE4A2AB6
:1012B000F0EE6A2AB0EE491AF0EE691AB0EE480A6A
:1012C000F0EE680A02F098FCB0EE40EAF0EE60EA58
:1012D0009FEDF19BB0EE494AF0EE694A9FEDEC3B81
:1012E0009FEDEB2BB0EE4A1AF0EE6A1AB0EE480A08
:1012F000F0EE680A02F080FCB0EE40DAF0EE60DA60
:101300009FEDE7ABB0EE493AF0EE693AB0EE4A4AEB
:10131000F0EE6A4AB0EE492AF0EE692A9FEDDC1B36
:10132000B0EE480AF0EE680A02F066FCB0EE40CA81
:10133000F0EE60CA9FEDDC4B9FEDDD3BB0EE4A2A3C
:10134000F0EE6A2AB0EE491AF0EE691AB0EE480AD9
:10135000F0EE680A02F050FCB0EE40BAF0EE60BA6F
:101360009FEDCB4B9FEDD48BB0EE483AF0EE683A50
:101370009FEDD32B9FEDD41B9DED400B02F03CFC69
:10138000B0EE40AAF0EE60AA9FEDD14B9FEDC03BBE
:101390009FEDBF2BB0EE481AF0EE681A9DED400BA2
:1013A00002F02AFCB0EE409AF0EE609A9FEDCA4B34
:1013B0009FEDCB3B9FEDC62B9FEDB51B9DED400BED
:1013C00002F01AFCB0EE408AF0EE608A9FEDC60B88
:1013D0008DED280B9FEDC60B8DED220B9FEDC60BFF
:1013E0008DED260B9FEDAA0B8DED200B9FEDC40B11
:1013F0008DED1E0B9FEDC40B8DED1C0B9FEDC40BF3
:1014000053EC1A2B8DED1A0B51EC1F0BFEF7C2FF9C
:1014100041EC100B53EC192B8DED2A0B51EC1F0BEB
:10142000FEF7B8FF41EC100B53EC182B8DED180BA9
:1014300051EC1F0BFEF7AEFF41EC100B53EC1A2BD7
:101440008DED160B51EC1E0BFEF7A4FF41EC1F0BAC
:1014500053EC192B51EC1E0BFEF79CFF41EC100BCB
:1014600053EC182B8DED120B51EC1E0BFEF792FF77
:1014700041EC1E0B53EC1A2B51EC1D0BFEF78AFFAF
:1014800041EC100B53EC192B8DED0E0B51EC1D0B99
:10149000FEF780FF41EC100B53EC182B8DED0C0B7D
:1014A00051EC1D0BFEF776FF41EC100B53EC1A2BA1
:1014B0008DED0A0B51EC1C0BFEF76CFF41EC100B91
:1014C00053EC192B8DED080B51EC1C0BFEF762FF52
:1014D00041EC100B53EC182B8DED060B51EC1C0B53
:1014E000FEF758FF41EC100B53EC1A2B8DED040B5B
:1014F00051EC1B0BFEF74EFF41EC1A0B53EC192B72
:1015000051EC1B0BFEF746FF41EC190B53EC182B6B
:1015100051EC1B0BFEF73EFF41EC1B0B9DED2A8BA4
:10152000B0EE4F1AF0EE6F1A9DED180B02F046FB6D
:10153000B0EE40DAF0EE60DA9DED121B9DED160B79
:1015400002F03CFB9DED0E1B02F038FBB0EE40CAF2
:10155000F0EE60CA9DED0C1BB0EE4E0AF0EE6E0A86
:1015600002F02CFB9DED081B02F028FBB0EE40EAD8
:10157000F0EE60EA9DED061B9DED0A0B02F01EFBEE
:10158000B0EE4A1AF0EE6A1A02F018FBB0EE40AA6A
:10159000F0EE60AAB0EE491AF0EE691A9DED040B68
:1015A00002F00CFBB0EE409AF0EE609A53EC192B6F
:1015B00051EC1B0BFEF747FE53EC1A2BFEF743FED4
:1015C00053EC1E2BFEF73FFE53EC1C2BFEF73BFEAD
:1015D00053EC1D2BFEF737FE53EC182BFEF733FEB2
:1015E0009DED1A0B41EC1F0B53EC182B51EC100B1B
:1015F000FEF7D0FE9DED1C0B41EC1D0B53EC182BA0
:1016000051EC100BFEF7C6FE9DED1E0B41EC180BC6
:1016100053EC1C2B51EC100BFEF7BCFE9DED200B88
:1016200041EC1C0B53EC1E2B51EC100BFEF7B2FEE1
:101630009DED260B41EC1E0B53EC1A2B51EC100BBD
:10164000FEF7A8FE9DED220B41EC1A0B53EC192B73
:1016500051EC100BFEF79EFE9DED280B41EC190B93
:1016600053EC1B2B51EC100BFEF794FE54E00000E2
:1016700000000000000040C00000000000004CC05E
:1016800000000000000054C000000000000064C022
:1016900000000000000000000000000000004040CA
:1016A0000000000000004C4000000000000064400A
:1016B000000000000000544000000000000039C09D
:1016C00000000000000049C000000000000059C0F8
:1016D00000000000000039400000000000005940F8
:1016E00000000000000049400000000000003EC073
:1016F00000000000000034C000000000000024C012
:101700000000000000002440000000000000344001
:101710000000000000003E4053EC192BFEF793FD43
:1017200053EC1A2BFEF78FFD53EC1E2BFEF78BFDAF
:1017300053EC1C2BFEF787FD53EC182BFEF783FDB3
:1017400053EC1D2BFEF77FFD53EC1F2BFEF794FE91
:101750002EB041EC100BBDEC108B1FBD10B52DED64
:10176000040B2DED108BAEB0B0EE408AF0EE608A27
:101770009FEDFEABB0EE4A4AF0EE6A4A9FEDFD9B4C
:10178000B0EE493AF0EE693A9FEDFC2B9FEDFD1B60
:1017900002F032FAB0EE40BAF0EE60BA9FEDFB4BC9
:1017A000B0EE4A3AF0EE6A3AB0EE4A2AF0EE6A2A11
:1017B000B0EE491AF0EE691AB0EE480AF0EE680A87
:1017C00002F01AFAB0EE40FAF0EE60FA9FEDF19BEB
:1017D000B0EE494AF0EE694A9FEDEC3B9FEDEB2BF2
:1017E000B0EE4A1AF0EE6A1AB0EE480AF0EE680A55
:1017F00002F002FAB0EE40EAF0EE60EA9FEDE7ABED
:10180000B0EE493AF0EE693AB0EE4A4AF0EE6A4A72
:10181000B0EE492AF0EE692A9FEDDC1BB0EE480AD3
:10182000F0EE680A02F0E8F9B0EE40DAF0EE60DAC5
:101830009FEDDC4B9FEDDD3BB0EE4A2AF0EE6A2ACD
:10184000B0EE491AF0EE691AB0EE480AF0EE680AF6
:1018500002F0D2F9B0EE40CAF0EE60CA9FEDCB4B79
:101860009FEDD48BB0EE483AF0EE683A9FEDD32B63
:101870009FEDD41B9DED400B02F0BEF9B0EE40AAE7
:10188000F0EE60AA9FEDD14B9FEDC03B9FEDBF2BCB
:10189000B0EE481AF0EE681A9DED400B02F0ACF97C
:1018A000B0EE409AF0EE609A9FEDCA4B9FEDCB3BB5
:1018B0009FEDC62B9FEDB51B9DED400B02F09CF9F3
:1018C000B0EE408AF0EE608A9FEDC60B8DED280BDE
:1018D0009FEDC60B8DED240B9FEDC60B8DED220BFE
:1018E0009FEDAA0B8DED260B9FEDC40B8DED200B0C
:1018F0009FEDC40B8DED1E0B9FEDC40B53EC1A2B0B
:101900008DED1C0B51EC1B0BFEF744FD41EC100B55
:1019100053EC192B8DED0C0B51EC1B0BFEF73AFD24
:1019200041EC100B53EC182B8DED120B51EC1B0BF3
:10193000FEF730FD41EC1B0B53EC1A2B51EC1F0B47
:10194000FEF728FD41EC100B53EC192B8DED160B17
:1019500051EC1F0BFEF71EFD41EC100B53EC182B46
:101960008DED140B51EC1F0BFEF714FD41EC100B29
:1019700053EC1A2B8DED100B51EC1E0BFEF70AFDEC
:1019800041EC1F0B53EC192B51EC1E0BFEF702FD23
:1019900041EC100B53EC182B8DED0E0B51EC1E0B84
:1019A000FEF7F8FC41EC100B53EC1A2B8DED0A0BF3
:1019B00051EC1D0BFEF7EEFC41EC1E0B53EC192B0A
:1019C00051EC1D0BFEF7E6FC41EC100B53EC182B11
:1019D0008DED060B51EC1D0BFEF7DCFC41EC100B02
:1019E00053EC1A2B8DED040B51EC1C0BFEF7D2FCC3
:1019F00041EC1A0B53EC192B51EC1C0BFEF7CAFCF3
:101A000041EC190B53EC182B51EC1C0BFEF7C2FCEC
:101A100041EC180BB0EE491AF0EE691AB0EE4E0A1E
:101A2000F0EE6E0A02F0CAF8B0EE40DAF0EE60DADC
:101A30009DED061BB0EE4F0AF0EE6F0A02F0BEF805
:101A4000B0EE481AF0EE681A02F0B8F8B0EE40EACC
:101A5000F0EE60EA9DED0E1B9DED160B02F0AEF868
:101A60009DED041B02F0AAF8B0EE40CAF0EE60CA89
:101A70009DED141B9DED0C0B02F0A0F89DED0A1BD3
:101A800002F09CF8B0EE409AF0EE609A9DED101BCB
:101A90009DED120B02F092F8B0EE408AF0EE608AF3
:101AA00053EC182B51EC1B0BFEF7CDFB53EC192B11
:101AB000FEF7C9FB53EC1C2BFEF7C5FB53EC1E2BAA
:101AC000FEF7C1FB53EC1D2BFEF7BDFB53EC1A2BAD
:101AD000FEF7B9FB9DED1C0B41EC1F0B53EC1A2BD1
:101AE00051EC100BFEF756FC9DED1E0B41EC1D0B4F
:101AF00053EC1A2B51EC100BFEF74CFC9DED200B18
:101B000041EC1A0B53EC1E2B51EC100BFEF742FC70
:101B10009DED260B41EC1E0B53EC1C2B51EC100BD6
:101B2000FEF738FC9DED220B41EC1C0B53EC192BFE
:101B300051EC100BFEF72EFC9DED240B41EC190B24
:101B400053EC182B51EC100BFEF724FC9DED280BE9
:101B500041EC180B53EC1B2B51EC100BFEF71AFC4D
:101B600053EC182BFEF76FFB54E000000000000060
:101B7000000040C00000000000004CC00000000059
:101B8000000054C000000000000064C0000000001D
:101B900000000000000000000000404000000000C5
:101BA00000004C4000000000000064400000000005
:101BB0000000544000000000000039C00000000098
:101BC000000049C000000000000059C000000000F3
:101BD00000003940000000000000594000000000F3
:101BE000000049400000000000003EC0000000006E
:101BF000000034C000000000000024C0000000000D
:101C000000002440000000000000344000000000FC
:101C100000003E4053EC192BFEF715FB53EC1C2B38
:101C2000FEF711FB53EC1E2BFEF70DFB53EC1A2BAA
:101C3000FEF709FB53EC1D2BFEF705FB53EC1F2BA6
:101C4000FEF71AFC2EB041EC100BBDEC108B1FBD43
:101C500010B50221094800F0A7FA094A094B0021F2
:101C600018B101201060196003E01868064B186075
:101C70001160BDE81040022000F0B2B9000402403B
:101C800058000020000000201000002010B508219E
:101C9000094800F089FA094A094B002118B10120CE
:101CA0001060196003E01868064B18601160BDE809
:101CB0001040082000F094B90004024060000020A9
:101CC000080000201800002010B51021094800F07D
:101CD0006BFA094A094B002118B101201060196004
:101CE00003E01868064B18601160BDE81040102032
:101CF00000F076B900040240640000200C000020CF
:101D00001C00002010B52021094800F04DFA094AB6
:101D1000094B002118B101201060196003E0186818
:101D2000064B18601160BDE81040202000F058B943
:101D3000000402405C000020040000201400002089
:101D4000704790F83510022903D0802141650120A9
:101D50007047052180F835100068016821F0010105
:101D600001600020704700002DE9F84304464FF061
:101D70000009CDF8009063484FF41651A56D006836
:101D8000B0FBF1F72E6894F85C10082000FA01F11E
:101D900031420FD021680A6852070BD50A6822F039
:101DA00004020A6094F85C108840A860606D40F0FE
:101DB0000100606594F85C104FF0010808FA01F02A
:101DC000304208D021684969090604D5A860606DD1
:101DD00040F00200606594F85C10042088403042B6
:101DE00008D021680968890704D5A860606D40F0B3
:101DF0000400606594F85C1010208840304218D0D0
:101E000021680968090714D5A8602068016849039A
:101E100004D50068000308D5A16C07E00168C90576
:101E200003D4016821F008010160216C09B120464A
:101E3000884794F85C1020208840304231D02168D7
:101E40000968C9062DD5A86094F8350005282068D2
:101E5000016806D0490347D5006800031DD4616CB2
:101E60001CE021F0160101602068416921F0800129
:101E70004161206C08B9A06C20B12068016821F094
:101E80000801016094F85C103F208840A86084F845
:101E9000349084F83580216D1FE0E16B09B1204654
:101EA0008847606D00282BD0606DC00714D00520D6
:101EB00084F835002068016821F001010160009874
:101EC000401C0090B84203D820680068C007F6D1D3
:101ED00084F8349084F83580E16C002910D001B08A
:101EE0002046BDE8F04308470168C905D5D401681C
:101EF00021F01001016084F8349084F83580CCE73B
:101F0000BDE8F883740000202DE9F041044600F09C
:101F100055F906465CB1002584F83450022084F857
:101F200035002068016821F0010101600DE0012009
:101F3000BDE8F08100F042F9801B052805D920207A
:101F40006065032084F83500F2E720680068C00768
:101F5000F0D12268116820480140D4E901031843F8
:101F6000D4E903363343184363691843A36918431C
:101F7000E3691843236A18430843616A042903D1BB
:101F8000D4E90B1319430843106020684069666A5E
:101F900020F0070130460E43012704280CD1A06A27
:101FA0000643E06A40B12046FEF766FC20B14020BF
:101FB000606584F83570BAE7206846612046FEF710
:101FC00047FC94F85C203F2191408160656584F86E
:101FD00035700020ACE700003F8010F07047000033
:101FE000044910B50A68024202D00860FFF7F6FF04
:101FF00010BD0000143C01402DE9F84FDFF87CB122
:1020000000224FF001084FF0030A4FF00F090BF1C7
:10201000040E00BF0B6808FA02F42340A3426ED1FD
:102020004D68022D01D0122D0ED1D50800EB850C84
:10203000DCF820505607F70E09FA07F6B5430E698B
:10204000BE402E43CCF82060066855000F790AFA8E
:1020500005FC07F0030726EA0C06AF40374307608C
:102060004E68012E05D0022E03D0112E01D0122E63
:102070000ED18668CF6826EA0C06AF4037438760EA
:102080004668A6430C79C4F300149440344344607A
:10209000C6688C6826EA0C06AC403443C4604C68C1
:1020A000E40065D5364C256845F4804525602468F4
:1020B00022F0030504F480440094324C2E19D6F823
:1020C000084895072F0F09FA07F5AC432E4DA84293
:1020D00001D1002524E02D4DA84201D101251FE0AA
:1020E0002B4DA84201D102251AE02A4DA84201D168
:1020F000032515E0284DA84202D1042510E037E061
:10210000264DA84201D105250AE0254DA84201D15E
:10211000062505E0234DA84201D1072500E008254A
:10212000BD402543C6F80858DBF800405D464E68C0
:102130009C43F60300D51C432C60DEF80040754636
:102140004E689C43B60300D51C432C600B4D0835EC
:102150002C684E689C43F60200D51C432C60074D4A
:102160000C352C684E689C43B60200D51C432C608D
:10217000521C102AFFF44EAFBDE8F88F003C01401E
:102180004438024000300140000002400004024098
:1021900000080240000C02400010024000140240FF
:1021A00000180240001C02400069084000D00120D5
:1021B00070470AB1816170470904FBE701488068F4
:1021C00070470000680000200248816802781144CE
:1021D00081607047680000200B4810B5016841F429
:1021E00000710160016841F480610160016841F49F
:1021F00080710160032000F06FF8002000F006F805
:1022000000F024F8002010BD003C024070B50D4DD8
:1022100004464FF47A712878B1FBF0F00A49096856
:10222000B1FBF0F000F0DCFB48B9102C07D2002223
:102230002146501E00F030F800206C6070BD012077
:1022400070BD000068000020740000200A4808B536
:10225000016841F480410160006800F48040009012
:102260000548001F016841F080510160006800F0DE
:102270008050009008BD000044380240002809DB6F
:1022800000F01F02012191404009800000F1E02090
:10229000C0F8001170470000F0B40E4B1B680C46EC
:1022A000C3F30223C3F10705042D00D90425191D2A
:1022B000072901D2002300E0DB1E012606FA05F102
:1022C000491E214099409E40761E16403143F0BC85
:1022D00001F01CBC0CED00E0064900F007020868A4
:1022E0004FF6FF03184040EA0220034A10430860FB
:1022F000704700000CED00E00000FA052DE9F04702
:102300000E46050065D0DFF81481D8F80000F7B25A
:1023100000F00F00B04207D288F80070D8F8000033
:1023200000F00F00B04254D128683D4C810712D50F
:10233000400703D5206840F4E0502060287800076B
:1023400003D5206840F4604020602068A96820F030
:10235000F000084320602878C0072DD03049686815
:102360000839012812D0022813D0032811D0096897
:10237000890700292DDA216821F00301014321603A
:10238000FFF71CFF814641F2883A0EE00968890395
:10239000EFE709688901ECE7FFF710FFA0EB0901FF
:1023A000514502D90320BDE8F0872068696800F034
:1023B0000C00B0EB810FEFD1D8F80010404601F0CF
:1023C0000F01B14207D90770006800F00F00B0425A
:1023D00001D00120E7E72878400705D52068E968A3
:1023E00020F4E050084320602878000706D52068D4
:1023F000296920F4604040EAC100206000F016F82E
:102400002168084AC1F30311515CC84006490860BD
:102410000020FFF7FBFE0020C5E70000003C024063
:1024200008380240E83C000874000020154810B548
:10243000006810F00C02144813D01449042A0FD07D
:10244000082A0ED10F4C241F2268236802F03F0295
:102450005B0207D52068C0F38810A0FB010106E0ED
:10246000084610BD2168C1F38811A1FB00010023BB
:10247000FDF7A6FE2168C1F30141491C4900B0FBEC
:10248000F1F010BD083802400024F40040787D01CE
:102490002DE9F84F050076D02878DFF8F8B2BE4C69
:1024A000C00749D0DBF800105846C1F3810101296B
:1024B00008D00068C0F3810002280AD1201D0068FE
:1024C000400206D52068800336D568680028E2D02F
:1024D00032E06868B0F5803F10D0B0F5A02F2068DA
:1024E00010D020F480302060206820F4802020600C
:1024F0006868A0B1FFF762FE06460CE0206840F471
:102500008030F4E740F480202060F7E7FFF756FEC4
:10251000801B642873D820688003F7D50CE0FFF790
:102520004DFE064605E000BFFFF748FE801B64280D
:10253000F0D820688003F7D42878DFF8608280071D
:102540004FF000093ED5DBF80010584611F00C0F93
:1025500009D00068C0F3810002280BD18D48001F0C
:102560000068400206D42068800715D5E868012875
:1025700009D111E0E868B8B10120C8F80000FFF700
:102580001DFE064605E002E1FFF718FE801B02284B
:10259000C0D820688007F7D52068296920F0F800A6
:1025A00040EAC10020600DE0C8F80090FFF706FE89
:1025B000064604E0FFF702FE801B02281FD82068B1
:1025C0008007F7D42878000722D5724E74486969CD
:1025D0006C3671B101210160FFF7F0FD074604E0A0
:1025E000FFF7ECFDC01B022809D830688007F7D53B
:1025F0000EE0C0F80090FFF7E1FD074605E083E03C
:10260000FFF7DCFDC01B02287ED830688007F7D4B6
:102610002878400768D5DFF87CA100270AF1380A3E
:10262000DAF80000C0000BD4DAF8001041F0805155
:10263000CAF80010DAF80000012700F0805000907E
:10264000584E3068C00510D4306840F48070306057
:10265000FFF7B4FD009005E0FFF7B0FD0099401AC8
:10266000022851D83068C005F6D54A4EA8686836A9
:1026700001280FD00528306810D020F0010030600C
:10268000306820F004003060A868B8B1FFF796FD0C
:1026900000900FE0306840F00100F4E740F00400E3
:1026A0003060F7E7FFF78AFD0099411A41F2883060
:1026B000814264D830688007F4D50EE0FFF77EFDD4
:1026C000009007E0FFF77AFD0099411A41F2883047
:1026D000814254D830688007F4D42FB1DAF8001062
:1026E00021F08051CAF80010A869C0B3DBF80010CF
:1026F000C1F3810102294AD00228484607D0C8F810
:102700006000FFF75BFD00E039E005463AE0474630
:10271000C8F86000FFF752FD064604E0FFF74EFDE3
:10272000801B02282BD820688001F7D4D5E9070147
:102730000843A96A1C4A490802EB01416A6A41EA56
:102740008211084395F82C1040EA01611148001FDE
:10275000016001203866FFF731FD054605E014E011
:10276000FFF72CFD401B022809D820688001F7D50F
:102770000BE000BFFFF722FD401B022802D9032017
:10278000BDE8F88F20688001F4D40020F8E701202C
:10279000F6E70000083802400038024000004742D7
:1027A000800E4742007000400000FFFF70470000AD
:1027B00038B5016804464A688868C043430606D5B0
:1027C000C30704D1D3435B0601D4216C05E0830722
:1027D00008D4D3431B0605D4616C01B02046BDE884
:1027E00030400847830603D5430601D5C30551D4BD
:1027F000D3439B064ED443060AD494F85130032B9E
:1028000049D0636D43F004036365CB688B68009324
:10281000830609D4636D43F0010363658B680093FD
:102820000B6823F040030B60C00506D4606D40F0D8
:1028300008006065206880680090606D002829D0DD
:102840002068416821F0E0014160012084F85100D6
:10285000900701D4D00722D02068416821F00301FD
:102860004160114DE06C40B10565E06CFFF769FA1D
:1028700018B1606D40F040006065A06C002809D080
:102880000565A06CFFF75DFA002803D0606D40F08D
:102890004000606538BDC8688868009038BD204633
:1028A000FFF784FF38BD00001136000870B5040042
:1028B00005D00025A56294F8510010B106E0012072
:1028C00070BD84F85050204600F030F8022084F8A3
:1028D00051002068016821F040010160D4E9010144
:1028E0000843D4E903121143084361690843218B6B
:1028F00001F400710843E1690843216A0843A16AB1
:10290000084321680860A069042101EA1040616A57
:102910000843216848602068C16921F40061C161F1
:102920006565012084F85100002070BD70B586B047
:10293000064614216846FDF77BFC2449306888422E
:1029400041D123480025016841F4805101600068AD
:1029500000F4805005901E481438016841F00101D0
:1029600001600068694600F001000590F0200090C9
:102970000220CDE9010503200390052004901548AD
:10298000FFF73AFB154C144820604FF0C060C4E9D3
:1029900001054FF48060C4E9035080106561C4E90B
:1029A0000650256220466562FFF7AEFA08B1FFF7D0
:1029B000C7F9F464002211462320A663FFF76CFCDC
:1029C0002320FFF75BFC06B070BD00000030014023
:1029D000443802400000024010640240D001002050
:1029E00010B5401EB0F1807F01D3012010BD4FF023
:1029F000E02460610F21601701F088F80020A061D9
:102A000007202061002010BD7047704710B590F876
:102A10003C20012A22D0012280F83C20CA688C6820
:102A200022F4407222434C6822F4806222430C68F4
:102A300022F4006222430C6922F4805222434C6942
:102A400022F400522243C969002322F480420A433F
:102A500001684A6480F83C30002010BD022010BD9F
:102A600070B590F83C20012A19D0012400F83C4FA1
:102A70000222427050F83C3C5A689D6822F0700671
:102A80000A684968324325F0800529435A6050F8A6
:102A90003C2C9160447000210170084670BD0220FA
:102AA00070BD10B5040003D094F83D0010B107E0EC
:102AB000012010BD002084F83C00204600F00CF8F6
:102AC000022084F83D00211D206800F0B5FE0120A1
:102AD00084F83D00002010BD08B5016823488142FC
:102AE00009D12348016841F001010160006800F04C
:102AF0000100009008BD1E48001FB1F1804F11D0A9
:102B00001C4A91421DD1016841F002010160006838
:102B1000002200F00200009011461D20FFF7BCFBD0
:102B20001D201FE0016841F00101016000680022E2
:102B300000F00100009011461C20FFF7ADFB1C20A7
:102B400010E00D4A9142D5D1016841F004010160C5
:102B50000068002200F00400009011461E20FFF7DC
:102B60009BFB1E20BDE80840FFF788BB000001402A
:102B70004438024000040040000800400168CA6870
:102B800042F00102CA600068816801F0070106296D
:102B900003D0016841F00101016000207047016825
:102BA000CA6822F00102CA600068016A41F211128B
:102BB000114207D1016A9210114203D1016821F03C
:102BC000010101600020704770B5044690F83C0098
:102BD000012817D0012584F83C50022084F83D00DC
:102BE0002068826822F0770222F47F4282600868BF
:102BF000502830D00DDC20284DD005DC98B31028AB
:102C00003BD148E0022070BD302844D0402834D168
:102C100039E0602828D0702806D0B0F5805F2CD02D
:102C2000B0F5005F29D10AE0CB68D1E90121206825
:102C300000F073FE2068816841F0770109E0CB68FD
:102C4000D1E90121206800F068FE2068816841F424
:102C50008041816011E0CA684968206800F032FF55
:102C60005021206807E016E0CA684968206800F033
:102C70003AFF6021206800F05AFE84F83D500020A1
:102C800084F83C0070BDCA684968206800F01AFFEB
:102C900040212068EFE7226801461046EBE77047C5
:102CA00070B50446006801694FF00005C943890703
:102CB00015D4C168C943890711D4E91E01610120F7
:102CC0002077206880698007204602D0FFF7E7FF61
:102CD00004E000F0C3F8204600F045F925772068AD
:102CE0000169C943490717D4C168C943490713D4C7
:102CF0006FF004010161022020772068806910F4E0
:102D0000407F204602D0FFF7CAFF04E000F0A6F89B
:102D1000204600F028F9257720680169C943090792
:102D200016D4C168C943090712D46FF008010161C4
:102D3000042020772068C0698007204602D0FFF772
:102D4000AEFF04E000F08AF8204600F00CF9257789
:102D500020680169C943C90617D4C168C943C906B7
:102D600013D46FF010010161082020772068C0693A
:102D700010F4407F204602D0FFF791FF04E000F0FE
:102D80006DF8204600F0EFF8257720680169C94307
:102D9000C90708D1C168C943C90704D1891E0161A7
:102DA000204600F01BF920680169C943090609D4CF
:102DB000C168C943090605D46FF08001016120464E
:102DC000FFF722FE20680169C943490609D4C1689A
:102DD000C943490605D46FF040010161204600F067
:102DE000A3FA20680169C94389060BD4C168C943A5
:102DF000890607D46FF0200101612046BDE87040CC
:102E0000FFF703BE70BD000010B586B00446142164
:102E10006846FDF70DFA0E492068884216D10D4824
:102E20000021026842F010020260006800F0100009
:102E300005904FF4085000900220CDE901010120D7
:102E4000CDE9031069460448FFF7D6F806B010BD77
:102E5000000001403038024000100240704770B559
:102E6000044690F83C000D4601280DD0012684F858
:102E70003C60022084F83D0042B1042A18D0082AA0
:102E80002AD00C2A4DD139E0022070BD206800F014
:102E900057FD2068816941F00801816120688169DE
:102EA00021F004018161206881692A69114311E0E0
:102EB000206800F075FD2068816941F4006181613E
:102EC0002068816921F480618161206881692A69B3
:102ED00041EA0221816124E0206800F097FD20682A
:102EE000C16941F00801C1612068C16921F0040194
:102EF000C1612068C1692A69114311E0206800F0AE
:102F0000B9FD2068C16941F40061C1612068C169EF
:102F100021F48061C1612068C1692A6941EA022106
:102F2000C16184F83D60002084F83C0070BD10B59C
:102F3000040003D094F83D0010B107E0012010BD5B
:102F4000002084F83C00204600F00CF8022084F8B1
:102F50003D00211D206800F06FFC012084F83D0039
:102F6000002010BD7047704710B50268044631B1AB
:102F7000042908D0082925D00C2908D126E0D068DA
:102F800040F0020002E0D06840F00400D06001226E
:102F9000206800F0B5FC0F492068884202D00E4935
:102FA000884203D1416C41F400414164206881684A
:102FB00001F00701062903D0016841F00101016019
:102FC000002010BDD06840F00800DFE7D06840F076
:102FD0001000DBE7000001400004014010B5C149CA
:102FE0002DED088B0068096888427CD1BE4C012217
:102FF00002212046FFF7DDF8012208212046FFF7D5
:10300000D8F8012210212046FFF7D3F80122202111
:103010002046FFF7CEF8B3484038FFF7AFFDB34C7A
:103020002068FDF7A9FA9FEDB29B53EC192BFDF731
:10303000B1F99FEDB1AB53EC1A2BFDF7ABF99FED56
:10304000B0BB53EC1B2BFDF7A5F99FEDAF8B53ECF9
:10305000182BFDF711FAFDF7FFFA00EE100A84EDC8
:10306000040A6068FDF788FA53EC192BFDF792F912
:1030700053EC1A2BFDF78EF953EC1B2BFDF78AF955
:1030800053EC182BFDF7F8F9FDF7E6FA00EE100AFD
:1030900084ED050AA068FDF76FFA53EC192BFDF7D4
:1030A00079F953EC1A2BFDF775F953EC1B2BFDF74F
:1030B00071F953EC182BFDF7DFF9FDF7CDFA00EEAF
:1030C000100A84ED060AE068FDF756FA53EC192B56
:1030D000FDF760F953EC1A2BFDF75CF953EC1B2B51
:1030E000FDF758F900E0FAE053EC182BFDF7C4F9AE
:1030F000FDF7B2FA00EE100A84ED070A94ED0A0A11
:10310000D4ED040AB8EE401A9FED818B9FED829BAF
:10311000F4EEC10AF1EE10FA47DDB8EE401AD4ED34
:10312000050AF4EEC10AF1EE10FA3EDDB8EE401ADF
:10313000D4ED060AF4EEC10AF1EE10FA35DDB8EE70
:10314000400AD4ED070AF4EEC00AF1EE10FA2CDDC5
:10315000206BFDF700FA41EC1A0BE06AFDF7FBF972
:1031600041EC100BB0EE4A1AF0EE6A1AFEF778F84E
:1031700094ED0E1B51EC100B53EC112BFDF763F883
:1031800041EC100B84ED0E0B206BFDF7E4F941ECE4
:103190001A0BE06AFDF7DFF941EC100BB0EE4A1AAA
:1031A000F0EE6A1AFEF7DAFA4BE094ED040ADFED6E
:1031B0005C0A94ED051A20EE200AF3EE0E0A01EEE9
:1031C000600A94ED061A01EE200AD4ED070A9FED7D
:1031D000551A00EE810AD4ED040A94ED051A70EE3A
:1031E000810A94ED061A70EE810A94ED071A70EECA
:1031F000810A80EE201A84ED081A94ED080A10EE78
:10320000100AFDF7E5F941EC100B94ED0E1BFDF7EC
:103210005FFB94ED0E1B51EC100B53EC112BFDF7E3
:1032200012F841EC100B84ED0E0B94ED080A10EE31
:10323000100AFDF7CDF941EC100B94ED101BFDF7D2
:10324000B3FD94ED101B51EC100B53EC112BFCF75C
:10325000FAFF41EC100B53EC182B84ED100B94ED9E
:103260000E0B51EC100BFDF7DFF901D284ED0E8B44
:1032700094ED0E0B53EC192B51EC100BFDF7BCF930
:1032800001D284ED0E9B94ED100B53EC182B51ECF6
:10329000100BFDF7C9F901D284ED108B94ED100BE2
:1032A00053EC192B51EC100BFDF7A6F901D284ED6C
:1032B000109B94ED0E0B51EC100BFDF76AF90121F8
:1032C00000F0B0F994ED100B51EC100BFDF761F923
:1032D000BDEC088B0021BDE8104000F0A3B9BDECA7
:1032E000088B10BD50010020000C0240100000208F
:1032F0002D431CEBE2361A3F0000000000407540F1
:10330000000000000000E03F9A9999999999D93FEF
:103310000000000000C05840000000000000000055
:10332000000070C2000070427047FEE72DE9F041D6
:1033300086B014216846FCF77BFF374800240168FB
:1033400041F001010160016801F00101059101688E
:1033500041F002010160016801F00201059101687C
:1033600041F010010160016801F010010591016850
:1033700041F0080101600068284F00F008004FF498
:1033800090460590002231463846FEF712FFDFF8DE
:10339000908000223A214046FEF70BFF3A25214853
:1033A0000095CDE9010469461F48FEF725FE009609
:1033B0000126CDE90164694638460394FEF71CFEF8
:1033C0000095CDE90164694640460394FEF714FE7A
:1033D000002211460720FEF75FFF0720FEF74EFF91
:1033E000002211460920FEF757FF0920FEF746FF8D
:1033F000002211460A20FEF74FFF0A20FEF73EFF8B
:10340000002211461720FEF747FF1720FEF736FF70
:1034100006B0BDE8F08100003038024000100240E4
:10342000000C024000003110000402400948084925
:103430000160002141608160C16001614161816181
:103440000162416281620A21C162FFF72FBA000066
:10345000003001407800002010B596B000240F9491
:1034600010941194129413941C2168461494FCF740
:10347000DFFE202107A8FCF7DBFE2248204901607F
:103480001421C0E9011440F28F11C0E90314446112
:103490008461FFF706FB4FF480500F900FA9194885
:1034A000FFF792FB1748FFF742FD139413A9154845
:1034B0001494FFF7D5FA6020CDE900040294039438
:1034C00004940594002269460E480694FFF7C7FC51
:1034D000082269460B48FFF7C2FC07940894099438
:1034E0004FF400500A94CDE90B4007A905480E940B
:1034F000FFF78CFA0348FFF787FC16B010BD0000F9
:1035000000000140D000002010B586B00024114812
:10351000009401940294039404944FF08041059424
:1035200001602921C0E901141321C0E90314846159
:10353000FFF7B7FA4FF48050009069460548FFF74F
:1035400043FB049404A903480594FFF789FA06B0E5
:1035500010BD00001001002010B586B000241248F4
:10356000009401940294039404940E49059401601C
:1035700042F2CF01C0E9011440F2E731C0E903147F
:103580008461FFF78EFA4FF4805000906946064838
:10359000FFF71AFB049404A903480594FFF760FAA7
:1035A00006B010BD000400405001002010B586B0E8
:1035B00000241148009401940294039404940D494A
:1035C000059401602921C0E901140121C0E9031417
:1035D0008461FFF766FA4FF4805000906946064810
:1035E000FFF7F2FA049404A903480594FFF738FAA8
:1035F00006B010BD0008004090010020FEE77047B3
:10360000704700000148FFF7D3B8000078000020A1
:1036100010B5806B0021C187C186FFF7C7F810BDC8
:103620007047000070B5124CC0F1630201290AD046
:103630004FF4804532280FDB024608210D4800F088
:103640001BF800220DE04FF40065322802DB024631
:103650000021F3E7002100E00821064800F00CF803
:10366000012229462046BDE87040FEF7A2BD0000B9
:1036700000100240D0000020094B00685B6A5343F1
:103680006422B3FBF2F229B1042905D0082905D040
:10369000026470474263704782637047C263704739
:1036A00010000020FEF790BD30B593B03021684681
:1036B000FCF7BEFD14210CA8FCF7BAFD1848002544
:1036C000016841F080510160006800F08050119065
:1036D0001448016841F4804101600068022400F44C
:1036E00080401190012003901020049000940694D3
:1036F0000820CDE907505420CDE9090404200B909F
:103700006846FEF7C5FE0CA90F2081E83100E002F3
:10371000CDE90F0502210CA8FEF7F0FD13B030BD76
:1037200040380240007000401048016841F47001C8
:1037300001600F48016841F0010101600C4A00215D
:103740000832116002680B4B1A400260031D0A4ADE
:103750001A60026822F48022026005480C30016081
:1037600002495806803908607047000088ED00E083
:1037700000380240FFFFF6FE1030002410B50E4C5A
:10378000002202212046FEF714FD002208212046D7
:10379000FEF70FFD002210212046FEF70AFD002251
:1037A00020212046FEF705FD0448FFF7F8F9BDE8A3
:1037B00010400248FFF774BA000C024010010020CC
:1037C0000148FFF76DBA0000500100201148006861
:1037D000012803D110480168491C01600F480068A6
:1037E000012803D10E480168491C01600D4800689A
:1037F000012803D10C480168491C01600B4800688E
:10380000012803D10A480168491C01600948FFF7F3
:1038100047BA000058000020000000205C00002093
:103820000400002060000020080000206400002048
:103830000C00002090010020F0B50268254C264DB8
:10384000264E274F274B4FF0804CA04209D06045B1
:1038500007D0A84205D0B04203D0B84201D0984268
:1038600004D122F0700E4A6842EA0E02A0421BD038
:10387000604519D0A84217D0B04215D0B84213D035
:10388000984211D0184DA8420ED0184DA8420BD026
:10389000174DA84208D0174DA84205D0164DA84292
:1038A00002D0164DA84203D122F44075CA682A43BB
:1038B0004D6922F080022A4302608A68C2620A6867
:1038C0008262A04201D0984201D1096901630121BD
:1038D0004161F0BD000001400004004000080040CC
:1038E000000C004000040140004001400044014041
:1038F0000048014000180040001C0040002000402B
:1039000010B501F01F030121046A99408C43046241
:10391000016A9A401143016210BD10B5846842EA01
:10392000032224F47F440A432243826010BD82684C
:1039300022F070020A4342F00701816070470000E4
:10394000F0B5026A22F001020262036A42688469E9
:10395000124E24F073050C682C4323F002058B688B
:103960002B430D4DA84201D0B04205D123F00807EA
:10397000CB683B4323F00403A84201D0B04205D1F9
:103980004D6922F4407215438A692A43426084617A
:10399000496841630362F0BD00000140000401403A
:1039A000F0B5026A22F010020262026A436884697A
:1039B0000D6824F4E64444EA05248D6822F02002D0
:1039C00042EA05120F4D104EA84201D0B04206D176
:1039D000CF6822F0800242EA071222F04002A84299
:1039E00001D0B04207D14D6923F4406343EA850317
:1039F0008D6943EA8503436084614968816302629B
:103A0000F0BD00000000014000040140F0B5026A72
:103A100022F480720262026A4368C46922F400726E
:103A200024F073050C68124E2C438D6842EA05227F
:103A30000E4DA84201D0B04206D1CF6822F40062F8
:103A400042EA072222F48062A84201D0B04207D1A4
:103A50004D6923F4405343EA05138D6943EA051386
:103A60004360C4614968C1630262F0BD0000014067
:103A70000004014030B5026A22F480520262046AF6
:103A80004268C3690D6823F4E64343EA05238D6861
:103A900024F4005444EA0534084DA84202D0084DED
:103AA000A84204D14D6922F4804242EA8512426064
:103AB000C36149680164046230BD00000000014038
:103AC0000004014010B5036A046A24F00104046292
:103AD000846924F0F00444EA021423F00A020A4341
:103AE0008461026210BD10B5036A23F01003036203
:103AF0008369046A23F4704343EA023224F0A0038A
:103B000043EA01118261016210BDFEE70907090E57
:103B1000002804DB00F1E02080F80014704700F07A
:103B20000F0000F1E02080F8141D704702E008C883
:103B3000121F08C1002AFAD170477047002001E027
:103B400001C1121F002AFBD17047000008B5FEF723
:103B500043FBFFF7A9FDFFF7E9FB1648016841F4B5
:103B6000800101600068002200F48000009011468E
:103B70003820FEF791FB3820FEF780FBFFF7C4FCEE
:103B8000FFF7EAFCFFF712FDFFF750FCFFF764FCBC
:103B900000210948FFF7E8F908210748FFF7E4F991
:103BA00005488030FEF7EAFF0348C030FEF7E6FF25
:103BB000FEE7000030380240D000002010B52DEDA7
:103BC000048BB0EE418AF0EE618AB0EE409AF0EEDE
:103BD000609A53EC182B51EC190BFCF725FD06D21B
:103BE000B0EE490AF0EE690ABDEC048B10BDB0EEF0
:103BF000480AF0EE680AF7E710B52DED0C8BB0EE31
:103C000041AAF0EE61AAB0EE408AF0EE608AB0EE12
:103C1000449AF0EE649AB0EE43BAF0EE63BAB0EEB6
:103C200042CAF0EE62CA9FED2ADB53EC1A2B51EC2C
:103C3000180BFCF7E1FC06D2B0EE4D0AF0EE6D0A6F
:103C4000BDEC0C8B10BD53EC1C2B51EC180BFCF78E
:103C5000D3FC12D253EC1A2B51EC1C0BFCF794FB47
:103C600041EC190B53EC1A2B51EC180BFCF78CFBA5
:103C700041EC100B53EC192B22E053EC1B2B51ECB5
:103C8000180BFCF7B9FC02D29FED130BD8E753ECED
:103C9000192B51EC180BFCF7AFFCCDD253EC1B2BBE
:103CA00051EC190BFCF770FB41EC1A0B53EC192B80
:103CB00051EC180BFCF76BFB53EC1A2B41EC100B7F
:103CC00051EC100BFCF7D8FB41EC100BB8E70000EF
:103CD0000000000000000000000000000000F03FB5
:103CE000000610160006101600000000000000007C
:103CF0000102030406070809183D0008000000201F
:103D0000780000002C3B0008903D0008780000205F
:103D1000B80500003C3B0008000000000000000067
:103D20000000000000000000000000000000000093
:103D30000000000000000000000000000000000083
:103D40000000000000000000000000008F010000E3
:103D50005A00000000000000000000000000000009
:103D60000000000000805140000000000080514031
:103D70000000000000000000000000000000000043
:103D80000100000010000000000000000024F4000A
:040000050800018965
:00000001FF
