:020000040800F2
:10000000600500209D010008A3190008F7160008EC
:10001000A1190008E5050008471E000800000000BF
:10002000000000000000000000000000A719000808
:10003000E705000800000000A5190008DF19000806
:10004000B7010008B7010008B7010008B7010008B0
:10005000B7010008B7010008B7010008E90500086A
:1000600025060008610600089D060008B701000883
:10007000B7010008B7010008B7010008B701000880
:10008000B7010008B7010008B7010008B701000870
:10009000B7010008B7010008B7010008D906000839
:1000A000B7010008B7010008B7010008B701000850
:1000B000B91A0008FD1A0008091B0008B70100085A
:1000C000B7010008B7010008B7010008B701000830
:1000D000B7010008B7010008B7010008B701000820
:1000E000B7010008B7010008B7010008B701000810
:1000F000B7010008B7010008B7010008B701000800
:10010000B7010008B7010008B7010008B7010008EF
:10011000B7010008B7010008B7010008B7010008DF
:10012000B7010008B7010008B7010008B7010008CF
:10013000B7010008B7010008B7010008B7010008BF
:10014000B7010008B7010008B7010008B7010008AF
:10015000B7010008B7010008B7010008B70100089F
:10016000B7010008B7010008B7010008B70100088F
:10017000B7010008B7010008B7010008000000003F
:10018000B7010008B7010008DFF80CD000F018FA3A
:1001900000480047891E0008600500200648804787
:1001A00006480047FEE7FEE7FEE7FEE7FEE7FEE75C
:1001B000FEE7FEE7FEE7FEE7651A00088901000892
:1001C0002DE9F05F0546002092469B46884606468C
:1001D000814640241BE0284641464746224600F01F
:1001E0004BF953465A46C01A914110D3114618464E
:1001F000224600F032F92D1A67EB01084F462246DD
:100200000120002100F029F917EB00094E41201EC2
:10021000A4F10104DFDC484631462A464346BDE8E6
:10022000F09FD2B201E000F8012B491EFBD27047CB
:100230000022F6E710B513460A4604461946FFF7B2
:10024000F0FF204610BD2DE9FE4F81EA030404F0C3
:10025000004421F0004100944FF0000B23F00043D4
:1002600050EA01045ED052EA03045BD0C3F30A549F
:10027000C1F30A552C44A4F2F3340194A0FB0254B8
:10028000C1F3130141F48011C3F3130343F480134A
:1002900001FB024400FB034E840A970A44EA81549E
:1002A00047EA8357A4FB076802958D0A05FB07857B
:1002B0004FEA932C04FB0C542705029D4FEA065885
:1002C00047EA1637B5EB08056EEB070C870E920E62
:1002D00047EA811742EA8312A7FB0201B6EB0B0142
:1002E00064EB00042B0D43EA0C335E1844EB1C5006
:1002F000DA465146E7FB0201C5F313044FEA0B331C
:1003000043EA14534FEA0432019C43EA0603A4F182
:100310000C040294009CCDE900B400F003F903B092
:10032000BDE8F08F00200146F9E72DE9F04D81EAA4
:10033000030404F0004B21F0004514464FF0000A7E
:1003400023F0004150EA050220D054EA01021DD0FA
:10035000C5F30A570246C5F31303C1F31300C1F3F3
:100360000A5640F4801543F48013A7EB0608101BCF
:10037000D64608F2FD3873EB050002D308F10108F8
:1003800001E092185B41B8F1000F03DA002001464A
:10039000BDE8F08D00204FF48011064684460EE043
:1003A000171B73EB050705D3121B63EB050306430D
:1003B0004CEA010C49084FEA300092185B4150EAC0
:1003C0000107EDD152EA030012D082EA040083EA69
:1003D0000501084305D0101BAB4106D201220023C2
:1003E00006E000224FF0004302E06FF001025310DC
:1003F0001AEB06004CEB085110EB0A0041EB0B0125
:10040000BDE8F04D00F07FB80EB540F233410291E7
:100410000021CDE900110A460B4600F083F803B035
:1004200000BD01F0004330B421F0004150EA010268
:1004300006D00A0DA2F56072C1F31301002A02DC96
:1004400030BC00207047440F44EAC104C100E018EA
:1004500030BC00EBC25000F01FB8202A04DB203A69
:1004600000FA02F1002070479140C2F1200320FA07
:1004700003F3194390407047202A04DB203A21FA05
:1004800002F00021704721FA02F3D040C2F12002AD
:1004900091400843194670470029A8BF7047401C87
:1004A000490008BF20F00100704710B4B0FA80FC8A
:1004B00000FA0CF050EA010404BF10BC704749B1C7
:1004C000CCF1200421FA04F411FA0CF118BF012137
:1004D00021430843A3EB0C01CB1D4FEA00614FEA17
:1004E000102042BF002010BC704700EBC3501044E6
:1004F0000029A4BF10BC7047401C490008BF20F071
:10050000010010BC704710B5141E73F1000408DA26
:10051000401C41F1000192185B411A4301D120F0C7
:10052000010010BD2DE9F04D92469B4611B1B1FA84
:1005300081F202E0B0FA80F220329046FFF78DFFA0
:1005400004460F4640EA0A0041EA0B0153465A4668
:10055000084313D0114653EA010019D0C8F14002F4
:100560005046FFF789FF05460E465046594642461B
:10057000FFF773FF084305D0012004E02046394609
:10058000BDE8F08D0020054346EAE0762C43374372
:100590000A986305E40AA0EB08000022FD0A44EA79
:1005A00047540A3002D500200146E9E70105101939
:1005B0006941DDE9084500196941BDE8F04DA2E750
:1005C000064C074D06E0E06840F0010394E80700A0
:1005D00098471034AC42F6D3FFF7DAFDD41E00087A
:1005E000F41E0008FEE7704710B50221094800F02C
:1005F0005BF9094A094B002118B10120106019600C
:1006000003E01868064B18601160BDE81040022036
:1006100000F066B800040240400000200000002006
:100620001000002010B50421094800F03DF9094AE6
:10063000094B002118B101201060196003E018680F
:10064000064B18601160BDE81040042000F048B867
:100650000004024044000020040000201400002098
:1006600010B50821094800F01FF9094A094B00217B
:1006700018B101201060196003E01868064B18607B
:100680001160BDE81040082000F02AB800040240C4
:1006900048000020080000201800002010B510219C
:1006A000094800F001F9094A094B002118B101205D
:1006B0001060196003E01868064B18601160BDE80F
:1006C0001040102000F00CB8000402404C00002044
:1006D0000C0000201C000020202000F001B8704712
:1006E000044910B50A68024202D00860FFF7F7FF1C
:1006F00010BD0000143C01402DE9F84FDFF87CB13B
:1007000000224FF001084FF0030A4FF00F090BF1E0
:10071000040E00BF0B6808FA02F42340A3426ED116
:100720004D68022D01D0122D0ED1D50800EB850C9D
:10073000DCF820505607F70E09FA07F6B5430E69A4
:10074000BE402E43CCF82060066855000F790AFAA7
:1007500005FC07F0030726EA0C06AF4037430760A5
:100760004E68012E05D0022E03D0112E01D0122E7C
:100770000ED18668CF6826EA0C06AF403743876003
:100780004668A6430C79C4F3001494403443446093
:10079000C6688C6826EA0C06AC403443C4604C68DA
:1007A000E40065D5364C256845F48045256024680D
:1007B00022F0030504F480440094324C2E19D6F83C
:1007C000084895072F0F09FA07F5AC432E4DA842AC
:1007D00001D1002524E02D4DA84201D101251FE0C3
:1007E0002B4DA84201D102251AE02A4DA84201D181
:1007F000032515E0284DA84202D1042510E037E07A
:10080000264DA84201D105250AE0254DA84201D177
:10081000062505E0234DA84201D1072500E0082563
:10082000BD402543C6F80858DBF800405D464E68D9
:100830009C43F60300D51C432C60DEF8004075464F
:100840004E689C43B60300D51C432C600B4D083505
:100850002C684E689C43F60200D51C432C60074D63
:100860000C352C684E689C43B60200D51C432C60A6
:10087000521C102AFFF44EAFBDE8F88F003C014037
:1008800044380240003001400000024000040240B1
:1008900000080240000C0240001002400014024018
:1008A00000180240001C02400069084000D00120EE
:1008B00070470AB1816170470904FBE7014880680D
:1008C00070470000500000200248816802781144FF
:1008D00081607047500000200B4810B5016841F45A
:1008E00000710160016841F480610160016841F4B8
:1008F00080710160032000F06FF8002000F006F81E
:1009000000F024F8002010BD003C024070B50D4DF1
:1009100004464FF47A712878B1FBF0F00A4909686F
:10092000B1FBF0F000F0C2FA48B9102C07D2002257
:100930002146501E00F030F800206C6070BD012090
:1009400070BD0000500000205C0000200A4808B57F
:10095000016841F480410160006800F4804000902B
:100960000548001F016841F080510160006800F0F7
:100970008050009008BD000044380240002809DB88
:1009800000F01F02012191404009800000F1E020A9
:10099000C0F8001170470000F0B40E4B1B680C4605
:1009A000C3F30223C3F10705042D00D90425191D43
:1009B000072901D2002300E0DB1E012606FA05F11B
:1009C000491E214099409E40761E16403143F0BC9E
:1009D00001F03ABA0CED00E0064900F007020868A1
:1009E0004FF6FF03184040EA0220034A1043086014
:1009F000704700000CED00E00000FA052DE9F0471B
:100A00000E46050065D0DFF81481D8F80000F7B273
:100A100000F00F00B04207D288F80070D8F800004C
:100A200000F00F00B04254D128683D4C810712D528
:100A3000400703D5206840F4E05020602878000784
:100A400003D5206840F4604020602068A96820F049
:100A5000F000084320602878C0072DD0304968682E
:100A60000839012812D0022813D0032811D00968B0
:100A7000890700292DDA216821F003010143216053
:100A8000FFF71CFF814641F2883A0EE009688903AE
:100A9000EFE709688901ECE7FFF710FFA0EB090118
:100AA000514502D90320BDE8F0872068696800F04D
:100AB0000C00B0EB810FEFD1D8F80010404601F0E8
:100AC0000F01B14207D90770006800F00F00B04273
:100AD00001D00120E7E72878400705D52068E968BC
:100AE00020F4E050084320602878000706D52068ED
:100AF000296920F4604040EAC100206000F016F847
:100B00002168084AC1F30311515CC84006490860D6
:100B10000020FFF7FBFE0020C5E70000003C02407C
:100B200008380240C41E00085C000020154810B5BB
:100B3000006810F00C02144813D01449042A0FD096
:100B4000082A0ED10F4C241F2268236802F03F02AE
:100B50005B0207D52068C0F38810A0FB010106E006
:100B6000084610BD2168C1F38811A1FB00010023D4
:100B7000FFF726FB2168C1F30141491C4900B0FB86
:100B8000F1F010BD083802400024F40040787D01E7
:100B90002DE9F84F050076D02878DFF8F8B2BE4C82
:100BA000C00749D0DBF800105846C1F38101012984
:100BB00008D00068C0F3810002280AD1201D006817
:100BC000400206D52068800336D568680028E2D048
:100BD00032E06868B0F5803F10D0B0F5A02F2068F3
:100BE00010D020F480302060206820F48020206025
:100BF0006868A0B1FFF762FE06460CE0206840F48A
:100C00008030F4E740F480202060F7E7FFF756FEDD
:100C1000801B642873D820688003F7D50CE0FFF7A9
:100C20004DFE064605E000BFFFF748FE801B642826
:100C3000F0D820688003F7D42878DFF86082800736
:100C40004FF000093ED5DBF80010584611F00C0FAC
:100C500009D00068C0F3810002280BD18D48001F25
:100C60000068400206D42068800715D5E86801288E
:100C700009D111E0E868B8B10120C8F80000FFF719
:100C80001DFE064605E002E1FFF718FE801B022864
:100C9000C0D820688007F7D52068296920F0F800BF
:100CA00040EAC10020600DE0C8F80090FFF706FEA2
:100CB000064604E0FFF702FE801B02281FD82068CA
:100CC0008007F7D42878000722D5724E74486969E6
:100CD0006C3671B101210160FFF7F0FD074604E0B9
:100CE000FFF7ECFDC01B022809D830688007F7D554
:100CF0000EE0C0F80090FFF7E1FD074605E083E055
:100D0000FFF7DCFDC01B02287ED830688007F7D4CF
:100D10002878400768D5DFF87CA100270AF1380A57
:100D2000DAF80000C0000BD4DAF8001041F080516E
:100D3000CAF80010DAF80000012700F08050009097
:100D4000584E3068C00510D4306840F48070306070
:100D5000FFF7B4FD009005E0FFF7B0FD0099401AE1
:100D6000022851D83068C005F6D54A4EA8686836C2
:100D700001280FD00528306810D020F00100306025
:100D8000306820F004003060A868B8B1FFF796FD25
:100D900000900FE0306840F00100F4E740F00400FC
:100DA0003060F7E7FFF78AFD0099411A41F2883079
:100DB000814264D830688007F4D50EE0FFF77EFDED
:100DC000009007E0FFF77AFD0099411A41F2883060
:100DD000814254D830688007F4D42FB1DAF800107B
:100DE00021F08051CAF80010A869C0B3DBF80010E8
:100DF000C1F3810102294AD00228484607D0C8F829
:100E00006000FFF75BFD00E039E005463AE0474649
:100E1000C8F86000FFF752FD064604E0FFF74EFDFC
:100E2000801B02282BD820688001F7D4D5E9070160
:100E30000843A96A1C4A490802EB01416A6A41EA6F
:100E40008211084395F82C1040EA01611148001FF7
:100E5000016001203866FFF731FD054605E014E02A
:100E6000FFF72CFD401B022809D820688001F7D528
:100E70000BE000BFFFF722FD401B022802D9032030
:100E8000BDE8F88F20688001F4D40020F8E7012045
:100E9000F6E70000083802400038024000004742F0
:100EA000800E4742007000400000FFFF10B5401E5A
:100EB000B0F1807F01D3012010BD4FF0E0246061CC
:100EC0000F21601700F0C0FF0020A0610720206103
:100ED000002010BD7047704710B590F83C20012AE3
:100EE00022D0012280F83C20CA688C6822F440722B
:100EF00022434C6822F4806222430C6822F4006290
:100F000022430C6922F4805222434C6922F400529D
:100F10002243C969002322F480420A4301684A64DB
:100F200080F83C30002010BD022010BD70B590F854
:100F30003C20012A19D0012400F83C4F02224270C3
:100F400050F83C3C5A689D6822F070060A6849686F
:100F5000324325F0800529435A6050F83C2C9160BB
:100F6000447000210170084670BD022070BD10B5AC
:100F7000040003D094F83D0010B107E0012010BD3B
:100F8000002084F83C00204600F00CF8022084F891
:100F90003D00211D206800F0EDFD012084F83D009A
:100FA000002010BD08B501682348814209D12348BB
:100FB000016841F001010160006800F0010000904B
:100FC00008BD1E48001FB1F1804F11D01C4A91424C
:100FD0001DD1016841F0020101600068002200F0AB
:100FE0000200009011461D20FFF7D6FC1D201FE0D7
:100FF000016841F0010101600068002200F0010079
:10100000009011461C20FFF7C7FC1C2010E00D4A81
:101010009142D5D1016841F00401016000680022CD
:1010200000F00400009011461E20FFF7B5FC1E20C2
:10103000BDE80840FFF7A2BC000001404438024070
:1010400000040040000800400168CA6842F0010244
:10105000CA600068816801F00701062903D00168B1
:1010600041F001010160002070470168CA6822F068
:101070000102CA600068016A41F21112114207D1EF
:10108000016A9210114203D1016821F0010101604F
:101090000020704770B5044690F83C00012817D036
:1010A000012584F83C50022084F83D0020688268C5
:1010B00022F0770222F47F4282600868502830D004
:1010C0000DDC20284DD005DC98B310283BD148E03A
:1010D000022070BD302844D0402834D139E0602847
:1010E00028D0702806D0B0F5805F2CD0B0F5005F16
:1010F00029D10AE0CB68D1E90121206800F0ABFDDD
:101100002068816841F0770109E0CB68D1E90121CD
:10111000206800F0A0FD2068816841F48041816072
:1011200011E0CA684968206800F06AFE5021206812
:1011300007E016E0CA684968206800F072FE602186
:10114000206800F092FD84F83D50002084F83C00B7
:1011500070BDCA684968206800F052FE40212068CE
:10116000EFE7226801461046EBE7704770B504468A
:10117000006801694FF00005C943890715D4C168AB
:10118000C943890711D4E91E016101202077206835
:1011900080698007204602D0FFF7E7FF04E000F0F7
:1011A000C3F8204600F045F9257720680169C94356
:1011B000490717D4C168C943490713D46FF0040124
:1011C0000161022020772068806910F4407F20466A
:1011D00002D0FFF7CAFF04E000F0A6F8204600F0B6
:1011E00028F9257720680169C943090716D4C16821
:1011F000C943090712D46FF0080101610420207768
:101200002068C0698007204602D0FFF7AEFF04E0E7
:1012100000F08AF8204600F00CF925772068016973
:10122000C943C90617D4C168C943C90613D46FF0AE
:1012300010010161082020772068C06910F4407F08
:10124000204602D0FFF791FF04E000F06DF8204641
:1012500000F0EFF8257720680169C943C90708D174
:10126000C168C943C90704D1891E0161204600F045
:101270001BF920680169C943090609D4C168C9433B
:10128000090605D46FF0800101612046FFF722FEB8
:1012900020680169C943490609D4C168C9434906A0
:1012A00005D46FF040010161204600F023FA206868
:1012B0000169C94389060BD4C168C943890607D4AB
:1012C0006FF0200101612046BDE87040FFF703BECA
:1012D00070BD000010B586B0044614216846FEF7C4
:1012E000A7FF0E492068884216D10D4800210268E8
:1012F00042F010020260006800F0100005904FF408
:10130000285000900220CDE901010120CDE9031011
:1013100069460448FFF7F0F906B010BD000001402F
:101320003038024000100240704770B5044690F813
:101330003C000D4601280DD0012684F83C600220B7
:1013400084F83D0042B1042A18D0082A2AD00C2A79
:101350004DD139E0022070BD206800F08FFC20687C
:10136000816941F0080181612068816921F00401EF
:101370008161206881692A69114311E0206800F0C9
:10138000ADFC2068816941F4006181612068816958
:1013900021F480618161206881692A6941EA022122
:1013A000816124E0206800F0CFFC2068C16941F031
:1013B0000801C1612068C16921F00401C161206890
:1013C000C1692A69114311E0206800F0F1FC20682E
:1013D000C16941F40061C1612068C16921F4806183
:1013E000C1612068C1692A6941EA0221C16184F8AA
:1013F0003D60002084F83C0070BD10B5040003D0AF
:1014000094F83D0010B107E0012010BD002084F8E1
:101410003C00204600F00CF8022084F83D00211D1D
:10142000206800F0A7FB012084F83D00002010BDDB
:101430007047704710B50268044631B1042908D0DE
:10144000082925D00C2908D126E0D06840F00200F8
:1014500002E0D06840F00400D0600122206800F073
:10146000EDFB0F492068884202D00E49884203D123
:10147000416C41F4004141642068816801F007013A
:10148000062903D0016841F001010160002010BD70
:10149000D06840F00800DFE7D06840F01000DBE7DC
:1014A000000001400004014010B582492DED088B79
:1014B0000068096888427DD17F4C012202212046C4
:1014C000FFF7F7F9012204212046FFF7F2F9012284
:1014D00008212046FFF7EDF9012210212046FFF7F1
:1014E000E8F974484038FFF7AFFD744CE06A401CDF
:1014F000E0622068FEF788FF9FED718B53EC182B9C
:10150000FEF7A1FE9FED70AB53EC1A2BFEF79BFE8E
:101510009FED6F9B53EC192BFEF795FE9FED6EBB75
:1015200053EC1B2BFEF701FFFEF77BFF00EE100ACA
:1015300084ED040A6068FEF767FF53EC182BFEF792
:1015400082FE53EC1A2BFEF77EFE53EC192BFEF7AE
:101550007AFE53EC1B2BFEF7E8FEFEF762FF00EE6F
:10156000100A84ED050AA068FEF74EFF53EC182B15
:10157000FEF769FE53EC1A2BFEF765FE53EC192BB0
:10158000FEF761FE53EC1B2BFEF7CFFEFEF749FF83
:1015900000EE100A84ED060AE068FEF735FF53EC12
:1015A000182BFEF750FE53EC1A2BFEF74CFE53ECB3
:1015B000192B00E07BE0FEF746FE53EC1B2BFEF7F9
:1015C000B4FEFEF72EFF00EE100A84ED070A94ED3C
:1015D000040ADFED430A94ED051A434860EE200A41
:1015E000B3EE0E0A41EE400A94ED061A41EE000AEF
:1015F00094ED070A9FED3B1A40EE010A94ED040AB0
:1016000094ED051A30EE010A94ED061A30EE010A47
:1016100094ED071A30EE010A80EE801AB6EE000A49
:1016200084ED081AD4ED090A94ED081A41EE000A77
:10163000C4ED090AD4ED090A10EE901ADFED2B0A69
:10164000814201DDC4ED090AD4ED091A9FED281A83
:10165000F5EEC01AF1EE10FA01D284ED091AD4EDBC
:101660000A1A94ED082A42EE401AC4ED0A1A94EDC3
:101670000A0A10EE101A814201DDC4ED0A0A94ED47
:101680000A0AB5EEC00AF1EE10FA01D284ED0A1A88
:1016900094ED090A07480021BDEC088BBDEEC00A95
:1016A000803810EE102ABDE8104000F07DB9BDEC86
:1016B000088B10BDE0000020000C0240100000204C
:1016C0002D431CEBE2361A3F00000000004075403D
:1016D000000000000000E03F9A9999999999D93F3C
:1016E000000070C2000070420000C8420000C84202
:1016F000000000007047FEE7F0B587B0142168468F
:10170000FEF796FD36480024016841F002010160B1
:10171000016801F002010591016841F010010160CA
:10172000016801F010010591016841F001010160BB
:10173000016801F001010591016841F008010160B3
:101740000068284E00F00800059000221E21304657
:10175000FFF7AFF81E2524480095CDE90104234F7B
:1017600069463846FEF7C8FF01200095CDE901041F
:10177000694630460394FEF7BFFF202000901C48C6
:10178000CDE9010469463846FEF7B6FF002211464E
:101790000720FFF701F90720FFF7F0F800221146B4
:1017A0000820FFF7F9F80820FFF7E8F800221146B3
:1017B0000920FFF7F1F80920FFF7E0F800221146B1
:1017C0000A20FFF7E9F80A20FFF7D8F800221146AF
:1017D0001720FFF7E1F81720FFF7D0F807B0F0BDAA
:1017E00030380240000C024000003110000402407A
:1017F0000000111010B596B000240F9410941194AD
:10180000129413941C2168461494FEF711FD2021B4
:1018100007A8FEF70DFD2448224901601421C0E904
:10182000011440F28F11C0E9031444618461FFF791
:101830009EFB4FF480500F900FA91B48FFF72AFC26
:101840001948FFF7DAFD139413A917481494FFF70A
:101850006DFB6020CDE90004029403940494059488
:101860000022694610480694FFF75FFD042269468E
:101870000D48FFF75AFD082269460B48FFF755FD52
:101880000794089409944FF400500A94CDE90B4052
:1018900007A905480E94FFF71FFB0348FFF71AFD41
:1018A00016B010BD000001406000002010B586B0E9
:1018B00000241148009401940294039404944FF07E
:1018C0008041059401602921C0E901141321C0E978
:1018D00003148461FFF74BFB4FF48050009069467E
:1018E0000548FFF7D7FB049404A903480594FFF7C4
:1018F0001DFB06B010BD0000A000002010B586B092
:1019000000241248009401940294039404940E4914
:101910000594016042F2CF01C0E9011440F2E731C1
:10192000C0E903148461FFF722FB4FF4805000905C
:1019300069460648FFF7AEFB049404A903480594E2
:10194000FFF7F4FA06B010BD00040040E0000020EC
:1019500010B586B0002411480094019402940394B9
:1019600004940D49059401602921C0E90114012165
:10197000C0E903148461FFF7FAFA4FF48050009035
:1019800069460648FFF786FB049404A903480594BA
:10199000FFF7CCFA06B010BD00080040200100207F
:1019A000FEE7704770477047642A01DD642202E059
:1019B000002A00DA002240F28F135A43642392FB7C
:1019C000F3F2006829B1042905D0082905D0026482
:1019D00070474263704782637047C2637047FEF787
:1019E00073BF000030B593B030216846FEF720FC8D
:1019F00014210CA8FEF71CFC18480025016841F0D2
:101A000080510160006800F0805011901448016816
:101A100041F4804101600068022400F4804011908C
:101A20000120039010200490009406940820CDE932
:101A300007505420CDE9090404200B906846FFF7B5
:101A4000A7F80CA90F2081E83100E002CDE90F05CD
:101A500002210CA8FEF7D2FF13B030BD403802407F
:101A6000007000401048016841F4700101600F48A7
:101A7000016841F0010101600C4A00210832116047
:101A800002680B4B1A400260031D0A4A1A60026882
:101A900022F48022026005480C3001600249580699
:101AA000803908607047000088ED00E0003802408F
:101AB000FFFFF6FE1030002410B50E4C002202216C
:101AC0002046FEF7F6FE002204212046FEF7F1FE36
:101AD000002208212046FEF7ECFE002210212046BD
:101AE000FEF7E7FE0448FFF7C0FABDE810400248E1
:101AF000FFF73CBB000C0240A00000200148FFF7AC
:101B000035BB0000E000002011480068012803D127
:101B100010480168491C01600F480068012803D182
:101B20000E480168491C01600D480068012803D176
:101B30000C480168491C01600B480068012803D16A
:101B40000A480168491C01600948FFF70FBB000003
:101B5000400000200000002044000020040000207D
:101B600048000020080000204C0000200C0000204D
:101B700020010020F0B50268254C264D264E274F47
:101B8000274B4FF0804CA04209D0604507D0A842B7
:101B900005D0B04203D0B84201D0984204D122F01F
:101BA000700E4A6842EA0E02A0421BD0604519D06E
:101BB000A84217D0B04215D0B84213D0984211D0E5
:101BC000184DA8420ED0184DA8420BD0174DA84270
:101BD00008D0174DA84205D0164DA84202D0164D88
:101BE000A84203D122F44075CA682A434D6922F005
:101BF00080022A4302608A68C2620A688262A04246
:101C000001D0984201D10969016301214161F0BD10
:101C1000000001400004004000080040000C0040AB
:101C200000040140004001400044014000480140E0
:101C300000180040001C00400020004010B501F0DA
:101C40001F030121046A99408C430462016A9A408F
:101C50001143016210BD10B5846842EA032224F4E6
:101C60007F440A432243826010BD826822F07002E2
:101C70000A4342F00701816070470000F0B5026A34
:101C800022F001020262036A42688469124E24F063
:101C900073050C682C4323F002058B682B430D4D14
:101CA000A84201D0B04205D123F00807CB683B43DE
:101CB00023F00403A84201D0B04205D14D6922F4BB
:101CC000407215438A692A434260846149684163CE
:101CD0000362F0BD0000014000040140F0B5026A5B
:101CE00022F010020262026A436884690D6824F4DB
:101CF000E64444EA05248D6822F0200242EA0512F7
:101D00000F4D104EA84201D0B04206D1CF6822F04C
:101D1000800242EA071222F04002A84201D0B042FB
:101D200007D14D6923F4406343EA85038D6943EA93
:101D3000850343608461496881630262F0BD0000ED
:101D40000000014000040140F0B5026A22F48072F4
:101D50000262026A4368C46922F4007224F07305C7
:101D60000C68124E2C438D6842EA05220E4DA842A3
:101D700001D0B04206D1CF6822F4006242EA0722C5
:101D800022F48062A84201D0B04207D14D6923F409
:101D9000405343EA05138D6943EA05134360C46168
:101DA0004968C1630262F0BD0000014000040140C7
:101DB00030B5026A22F480520262046A4268C36942
:101DC0000D6823F4E64343EA05238D6824F40054A8
:101DD00044EA0534084DA84202D0084DA84204D177
:101DE0004D6922F4804242EA85124260C36149682B
:101DF0000164046230BD00000000014000040140A5
:101E000010B5036A046A24F001040462846924F0B2
:101E1000F00444EA021423F00A020A4384610262D5
:101E200010BD10B5036A23F0100303628369046ACE
:101E300023F4704343EA023224F0A00343EA011181
:101E40008261016210BDFEE70907090E002804DB6C
:101E500000F1E02080F80014704700F00F0000F15E
:101E6000E02080F8141D704702E008C8121F08C166
:101E7000002AFAD170477047002001E001C1121F0B
:101E8000002AFBD170470000FEF726FDFFF7AAFDF0
:101E9000FFF732FCFFF70AFDFFF730FDFFF758FDB3
:101EA000FFF7A8FC00210648FFF7C4FA0448803079
:101EB000FFF7CAF80248C030FFF7C6F8FEE7000097
:101EC0006000002000000000000000000102030488
:101ED00006070809F41E000800000020600000004A
:101EE000681E0008541F0008600000200005000064
:101EF000781E000800000000000000000000000044
:101F000000000000000000000000000000000000D1
:101F100000000000000000000000000000000000C1
:101F20000000000000000000000048420000000027
:101F300000000000000000000000000000000000A1
:101F40000000000001000000100000000000000080
:041F50000024F40075
:040000050800018965
:00000001FF
