:020000040800F2
:10000000780500209D010008AF250008072300089F
:10001000AD2500081D0800089B2A0008000000000C
:10002000000000000000000000000000B3250008F0
:100030001F08000800000000B12500083526000850
:10004000B7010008B7010008B7010008B7010008B0
:10005000B7010008B7010008B701000899110008AE
:10006000B7010008D511000811120008B7010008F7
:10007000B7010008B7010008B7010008B701000880
:10008000B7010008B7010008B7010008B701000870
:10009000B7010008B7010008B70100084D120008B9
:1000A000B7010008B7010008B7010008B701000850
:1000B0000D270008512700085D270008B701000838
:1000C000B7010008B7010008B7010008B701000830
:1000D000B7010008B7010008B7010008B701000820
:1000E000B7010008B7010008B7010008B701000810
:1000F000B7010008B7010008B7010008B701000800
:10010000B7010008B7010008B7010008B7010008EF
:10011000B7010008B7010008B7010008B7010008DF
:10012000B7010008B7010008B7010008B7010008CF
:10013000B7010008B7010008B7010008B7010008BF
:10014000B7010008B7010008B7010008B7010008AF
:10015000B7010008B7010008B7010008B70100089F
:10016000B7010008B7010008B7010008B70100088F
:10017000B7010008B7010008B7010008000000003F
:10018000B7010008B7010008DFF80CD000F034FB1D
:1001900000480047DD2A000878050020064880470F
:1001A00006480047FEE7FEE7FEE7FEE7FEE7FEE75C
:1001B000FEE7FEE7FEE7FEE7B92600088901000832
:1001C0002DE9F05F0546002092469B46884606468C
:1001D000814640241BE0284641464746224600F01F
:1001E00054FA53465A46C01A914110D31146184644
:1001F000224600F03BFA2D1A67EB01084F462246D3
:100200000120002100F032FA17EB00094E41201EB8
:10021000A4F10104DFDC484631462A464346BDE8E6
:10022000F09FD2B201E000F8012B491EFBD27047CB
:100230000022F6E710B513460A4604461946FFF7B2
:10024000F0FF204610BD2DE9FE4F804681EA0300F5
:10025000C00F0C46009021F0004123F00045B8EBA0
:100260000200A94105D24046214690461C460B4655
:10027000024623F00040104347D0270DC7F30A0081
:10028000C3F30A510290401A019040286BDAC3F37D
:10029000130040F4801B0098924620B10023D2EB5B
:1002A000030A63EB0B0B01985946C0F1400250461C
:1002B00000F0DCF906460D4650465946019A00F01A
:1002C000F4F910EB08006141002487EA115284EA36
:1002D000E7731A4340D0009A62B3019A012A4FEAA9
:1002E000075215DC001B61EB02014FF0004202EAED
:1002F0000752CDE90042001C41F5801132462B46E1
:1003000000F02BFA03B0BDE8F08F40462146F9E734
:10031000001B61EB0201001C41F5801300185B41DA
:100320002018A2F5001747EB030140EAD570B61973
:100330006D4111E06D084FEA360645EAC0754FEA97
:100340000752001B61EB0201001C41F580114908B6
:100350004FEA30000019514132462B4603B0BDE848
:10036000F04F00F0EBB90098012240000023D0EBE1
:10037000020263EBE073009821464FEAE074B8EBA9
:10038000000061EB0401E9E783F000435BE781F0E3
:10039000004158E72DE9FE4F81EA030404F00044D0
:1003A00021F0004100944FF0000B23F0004350EA8D
:1003B00001045ED052EA03045BD0C3F30A54C1F3D4
:1003C0000A552C44A4F2F3340194A0FB0254C1F367
:1003D000130141F48011C3F3130343F4801301FBB1
:1003E000024400FB034E840A970A44EA815447EA18
:1003F0008357A4FB076802958D0A05FB07854FEA22
:10040000932C04FB0C542705029D4FEA065847EA3B
:100410001637B5EB08056EEB070C870E920E47EA10
:10042000811742EA8312A7FB0201B6EB0B0164EBD2
:1004300000042B0D43EA0C335E1844EB1C50DA46E3
:100440005146E7FB0201C5F313044FEA0B3343EABD
:1004500014534FEA0432019C43EA0603A4F10C044E
:100460000294009CCDE900B400F077F903B0BDE838
:10047000F08F00200146F9E72DE9F04D81EA0304F1
:1004800004F0004B21F0004514464FF0000A23F021
:10049000004150EA050220D054EA01021DD0C5F304
:1004A0000A570246C5F31303C1F31300C1F30A56FA
:1004B00040F4801543F48013A7EB0608101BD646C2
:1004C00008F2FD3873EB050002D308F1010801E0E2
:1004D00092185B41B8F1000F03DA00200146BDE835
:1004E000F08D00204FF48011064684460EE0171B65
:1004F00073EB050705D3121B63EB050306434CEAB8
:10050000010C49084FEA300092185B4150EA01079C
:10051000EDD152EA030012D082EA040083EA050119
:10052000084305D0101BAB4106D20122002306E090
:1005300000224FF0004302E06FF0010253101AEB6B
:1005400006004CEB085110EB0A0041EB0B01BDE833
:10055000F04D00F0F3B80EB540F2334102910021A6
:10056000CDE900110A460B4600F0F7F803B000BDD4
:1005700070B5C1F30A5201F000450024C1F3130124
:1005800040F2FF3341F480119A4201DA002070BD3D
:1005900040F233439A42A2F2334203DC524200F06B
:1005A00074F800E090402C43F1D0404270BD00F060
:1005B000004230F000400AD0C10D01F56071C0F377
:1005C000160042EA0151C20840071143704700205B
:1005D0000146704730B5041E71F1000404DB4FF092
:1005E0000044404264EB0101141E73F1000405DB7A
:1005F0001C464FF00043524263EB04038B4208BF9A
:10060000824230BD30B5041E71F1000404DB4FF0AE
:100610000044404264EB0101141E73F1000405DB49
:100620001C464FF00043524263EB0403994208BF5B
:10063000904230BD01F0004330B421F0004150EA57
:10064000010206D00A0DA2F56072C1F31301002A5F
:1006500002DC30BC00207047440F44EAC104C100F2
:10066000E01830BC00EBC25000F031B8202A04DBA7
:10067000203A00FA02F1002070479140C2F12003B5
:1006800020FA03F3194390407047202A04DB203AF4
:1006900021FA02F00021704721FA02F3D040C2F1A2
:1006A00020029140084319467047202A06DBCB17E9
:1006B000203A41FA02F043EAE07306E041FA02F31D
:1006C000D040C2F1200291400843194670470029EA
:1006D000A8BF7047401C490008BF20F001007047C8
:1006E00010B4B0FA80FC00FA0CF050EA010404BF28
:1006F00010BC704749B1CCF1200421FA04F411FA7E
:100700000CF118BF012121430843A3EB0C01CB1DC1
:100710004FEA00614FEA102042BF002010BC704732
:1007200000EBC35010440029A4BF10BC7047401C0C
:10073000490008BF20F0010010BC704710B5141E1E
:1007400073F1000408DA401C41F1000192185B418A
:100750001A4301D120F0010010BD2DE9F04D924661
:100760009B4611B1B1FA81F202E0B0FA80F2203278
:100770009046FFF77BFF04460F4640EA0A0041EA35
:100780000B0153465A46084313D0114653EA010061
:1007900019D0C8F140025046FFF777FF05460E46D4
:1007A000504659464246FFF761FF084305D00120F5
:1007B00004E020463946BDE8F08D0020054346EAB6
:1007C000E0762C4337430A986305E40AA0EB08005F
:1007D0000022FD0A44EA47540A3002D500200146AF
:1007E000E9E7010510196941DDE90845001969418A
:1007F000BDE8F04DA2E70000064C074D06E0E068BA
:1008000040F0010394E8070098471034AC42F6D357
:10081000FFF7BEFC7C2C00089C2C0008FEE770470C
:1008200010B52DED040B2DED108BAEB0B0EE408A5F
:10083000F0EE608A9FEDFD4B9FEDFE9BB0EE493AD6
:10084000F0EE693A9FEDFD1BB0EE412AF0EE612A11
:1008500002F098F9B0EE40FAF0EE60FA9FEDF94B35
:100860009FEDF23B9FEDF12BB0EE491AF0EE691AC5
:10087000B0EE480AF0EE680A02F084F9B0EE40EA01
:10088000F0EE60EA9FEDF14B9FEDEE3B9FEDED2B1F
:100890009FEDE61BB0EE480AF0EE680A02F072F92E
:1008A000B0EE40DAF0EE60DA9FEDEAABB0EE4A4A25
:1008B000F0EE6A4A9FEDE53B9FEDE42B9FEDE11BD7
:1008C000B0EE480AF0EE680A02F05CF9B0EE40CAF9
:1008D000F0EE60CA9FEDE19BB0EE4A2AF0EE6A2A84
:1008E000B0EE494AF0EE694AB0EE493AF0EE693AA4
:1008F0009FEDD61BB0EE480AF0EE680A02F042F90E
:10090000B0EE40BAF0EE60BA9FEDD68BB0EE493A49
:10091000F0EE693AB0EE484AF0EE684A9FEDC92B16
:100920009FEDC81B9DED400B02F02CF9B0EE40AAE4
:10093000F0EE60AA9FEDCD4BB0EE483AF0EE683A8B
:10094000B0EE482AF0EE682AB0EE491AF0EE691AC5
:100950009DED400B02F016F9B0EE409AF0EE609A71
:100960009FEDC43BB0EE434AF0EE634A9FEDBF2BD0
:10097000B0EE481AF0EE681A9DED400B02F002F955
:10098000B0EE408AF0EE608A9FEDBC0B8DED280B37
:100990009FEDA60B8DED220B9FEDBA0B8DED260B77
:1009A0009FEDA80B8DED200B9FEDB80B8DED1E0B71
:1009B0009FEDA60B8DED1C0B9FEDB60B53EC1A2B88
:1009C0008DED1A0B51EC1F0BFFF7E4FC41EC100B03
:1009D00053EC192B8DED2A0B51EC1F0BFFF7DAFCB2
:1009E00041EC100B53EC182B8DED180B51EC1F0B39
:1009F000FFF7D0FC41EC100B53EC1A2B8DED160BCE
:100A000051EC1E0BFFF7C6FC41EC1F0B53EC192BEE
:100A100051EC1E0BFFF7BEFC41EC100B53EC182BF6
:100A20008DED120B51EC1E0BFFF7B4FC41EC100BDB
:100A300053EC1A2B8DED100B51EC1D0BFFF7AAFC9C
:100A400041EC100B53EC192B8DED0E0B51EC1D0BE3
:100A5000FFF7A0FC41EC100B53EC182B8DED0C0BA9
:100A600051EC1D0BFFF796FC41EC100B53EC1A2BCD
:100A70008DED0A0B51EC1C0BFFF78CFC41EC100BBD
:100A800053EC192B8DED080B51EC1C0BFFF782FC7E
:100A900041EC100B53EC182B8DED060B51EC1C0B9D
:100AA000FFF778FC41EC100B53EC1A2B8DED040B87
:100AB00051EC1B0BFFF76EFC41EC100B53EC192BA8
:100AC0008DED020B51EC1B0BFFF764FC41EC1A0B94
:100AD00053EC182B51EC1B0BFFF75CFC41EC190B92
:100AE0009DED2A8BB0EE4F1AF0EE6F1A9DED180BAC
:100AF00002F02AF8B0EE40EAF0EE60EA9DED121B3B
:100B00009DED160B02F020F89DED0E1B02F01CF877
:100B1000B0EE40DAF0EE60DA9DED0C1B9DED100BAF
:100B200002F012F89DED081B02F00EF8B0EE40CA7C
:100B3000F0EE60CA9DED061B9DED0A0B02F004F875
:100B40009DED021B02F000F8B0EE40BAF0EE60BA84
:100B5000B0EE4A1AF0EE6A1A9DED040B01F0F4FFB4
:100B6000B0EE40AAF0EE60AA53EC1A2B51EC190B30
:100B7000FFF769FB53EC1B2BFFF765FB53EC1C2BBA
:100B8000FFF761FB53EC1D2BFFF75DFB53EC1E2BB6
:100B9000FFF759FB53EC182BFFF755FB9DED1A0B94
:100BA00041EC1F0B53EC182B51EC100BFFF7F2FB31
:100BB0009DED1C0B41EC1E0B53EC182B51EC100B54
:100BC000FFF7E8FB9DED1E0B41EC180B53EC1D2BC2
:100BD00051EC100BFFF7DEFB9DED200B41EC1D0BE4
:100BE00053EC1C2B51EC100BFFF7D4FB9DED260BA7
:100BF00041EC1C0B53EC1B2B51EC100BFFF7CAFB09
:100C00009DED220B41EC1B0B53EC1A2B51EC100BFE
:100C1000FFF7C0FB9DED280B41EC1A0B53EC192B91
:100C200051EC100BFFF7B6FB38E0000000000000AD
:100C300000003EC000000000008046C00000000030
:100C400000004EC000000000000000000000000096
:100C500000003E4000000000008046400000000010
:100C600000004E400000000000C0524000000000A4
:100C700000805640000000000000594000000000C5
:100C8000000044C000000000000034C0000000006C
:100C900000003440000000000000444053EC1A2BD8
:100CA000FFF7D1FA53EC1B2BFFF7CDFA53EC1C2BBB
:100CB000FFF7C9FA53EC1D2BFFF7C5FA53EC182BBD
:100CC000FFF7C1FA53EC1E2BFFF7BDFA53EC1F2BB5
:100CD000FFF7D2FB2EB041EC100BBDEC108B1FBD0B
:100CE00010B52DED040B2DED108BAEB0B0EE408A9B
:100CF000F0EE608A9FEDFD4B9FEDFE9BB0EE493A12
:100D0000F0EE693A9FEDFD1BB0EE412AF0EE612A4C
:100D100001F038FFB0EE40BAF0EE60BA9FEDF94B4B
:100D20009FEDF23B9FEDF12BB0EE491AF0EE691A00
:100D3000B0EE480AF0EE680A01F024FFB0EE40FA87
:100D4000F0EE60FA9FEDF14B9FEDEE3B9FEDED2B4A
:100D50009FEDE61BB0EE480AF0EE680A01F012FFC4
:100D6000B0EE40EAF0EE60EA9FEDEAABB0EE4A4A40
:100D7000F0EE6A4A9FEDE53B9FEDE42B9FEDE11B12
:100D8000B0EE480AF0EE680A01F0FCFEB0EE40DA80
:100D9000F0EE60DA9FEDE19BB0EE4A2AF0EE6A2AAF
:100DA000B0EE494AF0EE694AB0EE493AF0EE693ADF
:100DB0009FEDD61BB0EE480AF0EE680A01F0E2FEA5
:100DC000B0EE40CAF0EE60CA9FEDD68BB0EE493A65
:100DD000F0EE693AB0EE484AF0EE684A9FEDC92B52
:100DE0009FEDC81B9DED400B01F0CCFEB0EE40AA7C
:100DF000F0EE60AA9FEDCD4BB0EE483AF0EE683AC7
:100E0000B0EE482AF0EE682AB0EE491AF0EE691A00
:100E10009DED400B01F0B6FEB0EE409AF0EE609A08
:100E20009FEDC43BB0EE434AF0EE634A9FEDBF2B0B
:100E3000B0EE481AF0EE681A9DED400B01F0A2FEEC
:100E4000B0EE408AF0EE608A9FEDBC0B8DED280B72
:100E50009FEDA60B8DED240B9FEDBA0B8DED220BB4
:100E60009FEDA80B8DED260B9FEDB80B8DED200BA4
:100E70009FEDA60B8DED1E0B9FEDB60B53EC1A2BC1
:100E80008DED1C0B51EC1B0BFFF784FA41EC100BA2
:100E900053EC192B8DED0C0B51EC1B0BFFF77AFA71
:100EA00041EC100B53EC182B8DED120B51EC1B0B7E
:100EB000FFF770FA41EC1B0B53EC1A2B51EC1F0B94
:100EC000FFF768FA41EC100B53EC192B8DED160B64
:100ED00051EC1F0BFFF75EFA41EC100B53EC182B93
:100EE0008DED140B51EC1F0BFFF754FA41EC100B76
:100EF00053EC1A2B8DED100B51EC1E0BFFF74AFA39
:100F000041EC100B53EC192B8DED180B51EC1E0B13
:100F1000FFF740FA41EC1F0B53EC182B51EC1E0B62
:100F2000FFF738FA41EC100B53EC1A2B8DED0A0B3E
:100F300051EC1D0BFFF72EFA41EC1E0B53EC192B55
:100F400051EC1D0BFFF726FA41EC100B53EC182B5C
:100F50008DED060B51EC1D0BFFF71CFA41EC100B4D
:100F600053EC1A2B8DED040B51EC1C0BFFF712FA0E
:100F700041EC1A0B53EC192B51EC1C0BFFF70AFA3E
:100F800041EC190B53EC182B51EC1C0BFFF702FA38
:100F900041EC180BB0EE491AF0EE691AB0EE4E0AA9
:100FA000F0EE6E0A01F0D0FDB0EE40DAF0EE60DA5D
:100FB0009DED061B9DED180B01F0C6FDB0EE481A25
:100FC000F0EE681A01F0C0FDB0EE408AF0EE608AE3
:100FD000B0EE4F1AF0EE6F1A9DED160B01F0B4FD56
:100FE0009DED041B01F0B0FDB0EE40EAF0EE60EACA
:100FF0009DED141B9DED0C0B01F0A6FD9DED0A1B54
:1010000001F0A2FDB0EE40CAF0EE60CA9DED101BEB
:101010009DED120B01F098FDB0EE409AF0EE609A53
:1010200053EC192B51EC1B0BFFF70DF953EC1C2B58
:10103000FFF709F953EC1E2BFFF705F953EC182BBA
:10104000FFF701F953EC1D2BFFF7FDF853EC1A2BBA
:10105000FFF7F9F89DED1C0B41EC1F0B53EC1A2B1D
:1010600051EC100BFFF796F99DED1E0B41EC1D0B9B
:1010700053EC1A2B51EC100BFFF78CF99DED200B64
:1010800041EC1A0B53EC182B51EC100BFFF782F9C3
:101090009DED260B41EC180B53EC1E2B51EC100B65
:1010A000FFF778F99DED220B41EC1E0B53EC1C2B46
:1010B00051EC100BFFF76EF99DED240B41EC1C0B6E
:1010C00053EC192B51EC100BFFF764F99DED280B35
:1010D00041EC190B53EC1B2B51EC100BFFF75AF999
:1010E00053EC192BFFF7AFF838E0000000000000C8
:1010F00000003EC000000000008046C0000000006C
:1011000000004EC0000000000000000000000000D1
:1011100000003E400000000000804640000000004B
:1011200000004E400000000000C0524000000000DF
:101130000080564000000000000059400000000000
:10114000000044C000000000000034C000000000A7
:1011500000003440000000000000444053EC1C2B11
:10116000FFF771F853EC1E2BFFF76DF853EC182BBB
:10117000FFF769F853EC1A2BFFF765F853EC1D2BBA
:10118000FFF761F853EC1F2BFFF776F92EB041EC17
:10119000100BBDEC108B1FBD10B50221094800F0EB
:1011A00059F9094A094B002118B101201060196052
:1011B00003E01868064B18601160BDE8104002207B
:1011C00000F064B800040240580000200000002035
:1011D0001000002010B50821094800F03BF9094A29
:1011E000094B002118B101201060196003E0186854
:1011F000064B18601160BDE81040082000F046B8AA
:1012000000040240600000200800002018000020B8
:1012100010B51021094800F01DF9094A094B0021B9
:1012200018B101201060196003E01868064B1860BF
:101230001160BDE81040102000F028B80004024002
:10124000640000200C0000201C00002010B52021AC
:10125000094800F0FFF8094A094B002118B10120A4
:101260001060196003E01868064B18601160BDE853
:101270001040202000F00AB8000402405C0000206A
:10128000040000201400002070470000044910B53D
:101290000A68024202D00860FFF7F6FF10BD0000A6
:1012A000143C01402DE9F84FDFF87CB100224FF0EB
:1012B00001084FF0030A4FF00F090BF1040E00BFB5
:1012C0000B6808FA02F42340A3426ED14D68022D48
:1012D00001D0122D0ED1D50800EB850CDCF8205082
:1012E0005607F70E09FA07F6B5430E69BE402E43BE
:1012F000CCF82060066855000F790AFA05FC07F063
:10130000030726EA0C06AF40374307604E68012EFC
:1013100005D0022E03D0112E01D0122E0ED18668D8
:10132000CF6826EA0C06AF40374387604668A6437D
:101330000C79C4F30014944034434460C6688C684C
:1013400026EA0C06AC403443C4604C68E40065D522
:10135000364C256845F480452560246822F0030555
:1013600004F480440094324C2E19D6F808489507AE
:101370002F0F09FA07F5AC432E4DA84201D10025E5
:1013800024E02D4DA84201D101251FE02B4DA8429C
:1013900001D102251AE02A4DA84201D1032515E00A
:1013A000284DA84202D1042510E037E0264DA8427E
:1013B00001D105250AE0254DA84201D1062505E009
:1013C000234DA84201D1072500E00825BD40254353
:1013D000C6F80858DBF800405D464E689C43F603AB
:1013E00000D51C432C60DEF8004075464E689C43D7
:1013F000B60300D51C432C600B4D08352C684E6895
:101400009C43F60200D51C432C60074D0C352C681C
:101410004E689C43B60200D51C432C60521C102A17
:10142000FFF44EAFBDE8F88F003C01404438024065
:101430000030014000000240000402400008024069
:10144000000C02400010024000140240001802404C
:10145000001C02400069084000D0012070470AB11A
:10146000816170470904FBE701488068704700000C
:10147000680000200248816802781144816070474A
:10148000680000200B4810B5016841F4007101604C
:10149000016841F480610160016841F4807101607C
:1014A000032000F06FF8002000F006F800F024F8A8
:1014B000002010BD003C024070B50D4D04464FF4B5
:1014C0007A712878B1FBF0F00A490968B1FBF0F0B5
:1014D00000F0C2FA48B9102C07D200222146501E53
:1014E00000F030F800206C6070BD012070BD00007D
:1014F00068000020740000200A4808B5016841F423
:1015000080410160006800F4804000900548001FA1
:10151000016841F080510160006800F08050009047
:1015200008BD000044380240002809DB00F01F021B
:10153000012191404009800000F1E020C0F8001135
:1015400070470000F0B40E4B1B680C46C3F3022337
:10155000C3F10705042D00D90425191D072901D25F
:10156000002300E0DB1E012606FA05F1491E21409A
:1015700099409E40761E16403143F0BC01F08EBA71
:101580000CED00E0064900F0070208684FF6FF0383
:10159000184040EA0220034A1043086070470000E8
:1015A0000CED00E00000FA052DE9F0470E460500BD
:1015B00065D0DFF81481D8F80000F7B200F00F0012
:1015C000B04207D288F80070D8F8000000F00F0091
:1015D000B04254D128683D4C810712D5400703D54D
:1015E000206840F4E05020602878000703D5206888
:1015F00040F4604020602068A96820F0F0000843B3
:1016000020602878C0072DD0304968680839012843
:1016100012D0022813D0032811D0096889070029A5
:101620002DDA216821F0030101432160FFF71CFF3F
:10163000814641F2883A0EE009688903EFE70968BC
:101640008901ECE7FFF710FFA0EB0901514502D932
:101650000320BDE8F0872068696800F00C00B0EB5B
:10166000810FEFD1D8F80010404601F00F01B142D0
:1016700007D90770006800F00F00B04201D00120C8
:10168000E7E72878400705D52068E96820F4E050AE
:10169000084320602878000706D52068296920F4CF
:1016A000604040EAC100206000F016F82168084A56
:1016B000C1F30311515CC840064908600020FFF7E0
:1016C000FBFE0020C5E70000003C02400838024055
:1016D0006C2C000874000020154810B5006810F04C
:1016E0000C02144813D01449042A0FD0082A0ED132
:1016F0000F4C241F2268236802F03F025B0207D5CB
:101700002068C0F38810A0FB010106E0084610BD68
:101710002168C1F38811A1FB00010023FEF750FDF1
:101720002168C1F30141491C4900B0FBF1F010BD33
:10173000083802400024F40040787D012DE9F84F7C
:10174000050076D02878DFF8F8B2BE4CC00749D043
:10175000DBF800105846C1F38101012908D0006868
:10176000C0F3810002280AD1201D0068400206D57E
:101770002068800336D568680028E2D032E06868C7
:10178000B0F5803F10D0B0F5A02F206810D020F425
:1017900080302060206820F4802020606868A0B13C
:1017A000FFF762FE06460CE0206840F48030F4E764
:1017B00040F480202060F7E7FFF756FE801B642886
:1017C00073D820688003F7D50CE0FFF74DFE06467E
:1017D00005E000BFFFF748FE801B6428F0D82068B2
:1017E0008003F7D42878DFF8608280074FF0000983
:1017F0003ED5DBF80010584611F00C0F09D00068F8
:10180000C0F3810002280BD18D48001F0068400200
:1018100006D42068800715D5E868012809D111E0B1
:10182000E868B8B10120C8F80000FFF71DFE0646C1
:1018300005E002E1FFF718FE801B0228C0D82068EF
:101840008007F7D52068296920F0F80040EAC10038
:1018500020600DE0C8F80090FFF706FE064604E0A1
:10186000FFF702FE801B02281FD820688007F7D4EC
:101870002878000722D5724E744869696C3671B1B8
:1018800001210160FFF7F0FD074604E0FFF7ECFDE2
:10189000C01B022809D830688007F7D50EE0C0F8D1
:1018A0000090FFF7E1FD074605E083E0FFF7DCFD70
:1018B000C01B02287ED830688007F7D428784007FC
:1018C00068D5DFF87CA100270AF1380ADAF80000B1
:1018D000C0000BD4DAF8001041F08051CAF80010B3
:1018E000DAF80000012700F080500090584E306870
:1018F000C00510D4306840F480703060FFF7B4FD4C
:10190000009005E0FFF7B0FD0099401A022851D879
:101910003068C005F6D54A4EA868683601280FD051
:101920000528306810D020F001003060306820F0C9
:1019300004003060A868B8B1FFF796FD00900FE092
:10194000306840F00100F4E740F004003060F7E751
:10195000FFF78AFD0099411A41F28830814264D82C
:1019600030688007F4D50EE0FFF77EFD009007E0B9
:10197000FFF77AFD0099411A41F28830814254D82C
:1019800030688007F4D42FB1DAF8001021F08051CC
:10199000CAF80010A869C0B3DBF80010C1F38101D8
:1019A00002294AD00228484607D0C8F86000FFF74D
:1019B0005BFD00E039E005463AE04746C8F86000C4
:1019C000FFF752FD064604E0FFF74EFD801B02289C
:1019D0002BD820688001F7D4D5E907010843A96A0C
:1019E0001C4A490802EB01416A6A41EA8211084334
:1019F00095F82C1040EA01611148001F0160012098
:101A00003866FFF731FD054605E014E0FFF72CFDD1
:101A1000401B022809D820688001F7D50BE000BFE1
:101A2000FFF722FD401B022802D90320BDE8F88FF2
:101A300020688001F4D40020F8E70120F6E70000D8
:101A4000083802400038024000004742800E4742FA
:101A5000007000400000FFFF10B5401EB0F1807F15
:101A600001D3012010BD4FF0E02460610F21601709
:101A700001F014F80020A06107202061002010BDB3
:101A80007047704710B590F83C20012A22D00122FF
:101A900080F83C20CA688C6822F4407222434C686B
:101AA00022F4806222430C6822F4006222430C6913
:101AB00022F4805222434C6922F400522243C96925
:101AC000002322F480420A4301684A6480F83C30D3
:101AD000002010BD022010BD70B590F83C20012AF6
:101AE00019D0012400F83C4F0222427050F83C3CCF
:101AF0005A689D6822F070060A684968324325F0EA
:101B0000800529435A6050F83C2C916044700021B4
:101B10000170084670BD022070BD10B5040003D0EE
:101B200094F83D0010B107E0012010BD002084F8BA
:101B30003C00204600F00CF8022084F83D00211DF6
:101B4000206800F041FE012084F83D00002010BD17
:101B500008B501682348814209D12348016841F052
:101B600001010160006800F00100009008BD1E48FE
:101B7000001FB1F1804F11D01C4A91421DD1016864
:101B800041F0020101600068002200F002000090B4
:101B900011461D20FFF7D6FC1D201FE0016841F013
:101BA000010101600068002200F001000090114670
:101BB0001C20FFF7C7FC1C2010E00D4A9142D5D134
:101BC000016841F0040101600068002200F0040097
:101BD000009011461E20FFF7B5FC1E20BDE808400E
:101BE000FFF7A2BC0000014044380240000400405E
:101BF000000800400168CA6842F00102CA6000683B
:101C0000816801F00701062903D0016841F0010154
:101C10000160002070470168CA6822F00102CA60B2
:101C20000068016A41F21112114207D1016A921053
:101C3000114203D1016821F00101016000207047C9
:101C400070B5044690F83C00012817D0012584F8AF
:101C50003C50022084F83D002068826822F0770220
:101C600022F47F4282600868502830D00DDC2028A2
:101C70004DD005DC98B310283BD148E0022070BD60
:101C8000302844D0402834D139E0602828D070284A
:101C900006D0B0F5805F2CD0B0F5005F29D10AE006
:101CA000CB68D1E90121206800F0FFFD2068816840
:101CB00041F0770109E0CB68D1E90121206800F00B
:101CC000F4FD2068816841F48041816011E0CA68B8
:101CD0004968206800F0BEFE5021206807E016E049
:101CE000CA684968206800F0C6FE6021206800F0DC
:101CF000E6FD84F83D50002084F83C0070BDCA68C1
:101D00004968206800F0A6FE40212068EFE72268BD
:101D100001461046EBE7704770B50446006801695C
:101D20004FF00005C943890715D4C168C943890725
:101D300011D4E91E016101202077206880698007A5
:101D4000204602D0FFF7E7FF04E000F0C3F820468A
:101D500000F045F9257720680169C943490717D480
:101D6000C168C943490713D46FF00401016102201F
:101D700020772068806910F4407F204602D0FFF76A
:101D8000CAFF04E000F0A6F8204600F028F9257705
:101D900020680169C943090716D4C168C943090706
:101DA00012D46FF008010161042020772068C06917
:101DB0008007204602D0FFF7AEFF04E000F08AF86B
:101DC000204600F00CF9257720680169C943C9064F
:101DD00017D4C168C943C90613D46FF0100101615B
:101DE000082020772068C06910F4407F204602D088
:101DF000FFF791FF04E000F06DF8204600F0EFF8E7
:101E0000257720680169C943C90708D1C168C9435A
:101E1000C90704D1891E0161204600F01BF9206822
:101E20000169C943090609D4C168C943090605D433
:101E30006FF0800101612046FFF722FE20680169F2
:101E4000C943490609D4C168C943490605D46FF09E
:101E500040010161204600F055FA20680169C9433C
:101E600089060BD4C168C943890607D46FF02001E5
:101E700001612046BDE87040FFF703BE70BD000061
:101E800010B586B0044614216846FEF7D1F90E4914
:101E90002068884216D10D480021026842F01002E5
:101EA0000260006800F0100005904FF408500090A8
:101EB0000220CDE901010120CDE903106946044863
:101EC000FFF7F0F906B010BD0000014030380240C5
:101ED00000100240704770B5044690F83C000D4673
:101EE00001280DD0012684F83C60022084F83D00D2
:101EF00042B1042A18D0082A2AD00C2A4DD139E040
:101F0000022070BD206800F0E3FC2068816941F088
:101F1000080181612068816921F0040181612068E4
:101F200081692A69114311E0206800F001FD2068F1
:101F3000816941F4006181612068816921F48061D7
:101F40008161206881692A6941EA0221816124E076
:101F5000206800F023FD2068C16941F00801C161DB
:101F60002068C16921F00401C1612068C1692A6942
:101F7000114311E0206800F045FD2068C16941F47B
:101F80000061C1612068C16921F48061C16120687C
:101F9000C1692A6941EA0221C16184F83D600020DB
:101FA00084F83C0070BD10B5040003D094F83D00E7
:101FB00010B107E0012010BD002084F83C0020464D
:101FC00000F00CF8022084F83D00211D206800F08C
:101FD000FBFB012084F83D00002010BD70477047D6
:101FE00010B50268044631B1042908D0082925D06B
:101FF0000C2908D126E0D06840F0020002E0D06849
:1020000040F00400D0600122206800F041FC0F493C
:102010002068884202D00E49884203D1416C41F4C5
:10202000004141642068816801F00701062903D05E
:10203000016841F001010160002010BDD06840F04E
:102040000800DFE7D06840F01000DBE70000014047
:102050000004014070B59A492DED0C8B00680968A9
:102060009FED98BB9FED998B9A4C88427DD19A4DFC
:10207000012202212846FFF7F2F901220821284611
:10208000FFF7EDF9012210212846FFF7E8F90122B8
:1020900020212846FFF7E3F989484038FFF7AAFDD9
:1020A0002068FEF758FA9FED8DCB53EC1C2BFEF702
:1020B00071F99FED8C9B53EC192BFEF76BF99FED9B
:1020C0008BAB53EC1A2BFEF765F99FED8ADB53ECD3
:1020D0001D2BFEF7D1F9FEF7ADFA00EE100A84EDE4
:1020E000040A6068FEF737FA53EC1C2BFEF752F92E
:1020F00053EC192BFEF74EF953EC1A2BFEF74AF965
:1021000053EC1D2BFEF7B8F9FEF794FA00EE100A17
:1021100084ED050AA068FEF71EFA53EC1C2BFEF7AF
:1021200039F953EC192BFEF735F953EC1A2BFEF75E
:1021300031F953EC1D2BFEF79FF9FEF77BFA00EE09
:10214000100A84ED060AE068FEF705FA53EC1C2B32
:10215000FEF720F953EC192BFEF71CF953EC1A2B60
:10216000FEF718F953EC1D2B00E0A5E0FEF784F90B
:10217000FEF760FA00EE100A84ED070A94ED040AF7
:10218000DFED5E0A94ED051A20EE200AF3EE0E0A4A
:1021900001EE600A94ED061A01EE200AD4ED070A5A
:1021A0009FED571A00EE810AD4ED040A94ED051A4A
:1021B00070EE810A94ED061A70EE810A94ED071A0A
:1021C00070EE810A80EE201A84ED081A84ED0E8BE1
:1021D00094ED080A10EE100AFEF7E9F941EC100B35
:1021E00094ED0A1BFEF71CFB94ED0A1B51EC100B3F
:1021F00053EC112BFEF727F841EC100B53EC1B2B83
:1022000084ED0A0B94ED0A0B51EC100BFEF7FAF972
:1022100001D284ED0ABB94ED0A0B53EC182B51EC60
:10222000100BFEF7D7F901D284ED0A8B84ED108BE9
:1022300094ED080A10EE100AFEF7B9F941EC100B04
:1022400094ED0C1BFEF74CFD94ED0C1B51EC100BA8
:1022500053EC112BFDF7F7FF41EC100B53EC1B2B4C
:1022600084ED0C0B94ED0C0B51EC100BFEF7CAF93E
:1022700001D284ED0CBB94ED0C0B53EC182B51ECFC
:10228000100BFEF7A7F901D284ED0C8B94ED0A0B2D
:1022900051EC100BFEF76CF9012100F08BF994ED75
:1022A0000C0B51EC100BFEF763F9BDEC0C8B00210D
:1022B000BDE8704000F07EB9BDEC0C8B70BD000035
:1022C000F80000200000000000C05840000000009E
:1022D0000000000010000020000C02402D431CEB09
:1022E000E2361A3F00000000004075400000000088
:1022F0000000E03F9A9999999999D93F000070C2DE
:10230000000070427047FEE72DE9F04186B01421CD
:102310006846FDF78DFF37480024016841F002014F
:102320000160016801F002010591016841F01001AE
:102330000160016801F010010591016841F001019F
:102340000160016801F001010591016841F0080197
:1023500001600068284F00F008004FF49046059097
:10236000002231463846FFF77AF8DFF890800022E5
:102370003A214046FFF773F83A2521480095CDE908
:10238000010469461F48FEF78DFF00960126CDE93E
:102390000164694638460394FEF784FF0095CDE951
:1023A0000164694640460394FEF77CFF0022114613
:1023B0000720FFF7C7F80720FFF7B6F800221146FD
:1023C0000920FFF7BFF80920FFF7AEF800221146F9
:1023D0000A20FFF7B7F80A20FFF7A6F800221146F7
:1023E0001720FFF7AFF81720FFF79EF806B0BDE8FB
:1023F000F08100003038024000100240000C024022
:10240000000031100004024010B596B000240F9473
:1024100010941194129413941C2168461494FDF79F
:1024200007FF202107A8FDF703FF2248204901608C
:102430001421C0E9011440F28F11C0E90314446172
:102440008461FFF76AFB4FF480500F900FA9194881
:10245000FFF7F6FB1748FFF7A6FD139413A91548DD
:102460001494FFF739FB6020CDE900040294039433
:1024700004940594002269460E480694FFF72BFD4C
:10248000082269460B48FFF726FD07940894099433
:102490004FF400500A94CDE90B4007A905480E946B
:1024A000FFF7F0FA0348FFF7EBFC16B010BD000091
:1024B000000001407800002010B586B000241148CB
:1024C000009401940294039404944FF08041059485
:1024D00001602921C0E901141321C0E903148461BA
:1024E000FFF71BFB4FF48050009069460548FFF74B
:1024F000A7FB049404A903480594FFF7EDFA06B07E
:1025000010BD0000B800002010B586B000241248AD
:10251000009401940294039404940E49059401607C
:1025200042F2CF01C0E9011440F2E731C0E90314DF
:102530008461FFF7F2FA4FF4805000906946064834
:10254000FFF77EFB049404A903480594FFF7C4FA3F
:1025500006B010BD00040040F800002010B586B0A1
:1025600000241148009401940294039404940D49AA
:10257000059401602921C0E901140121C0E9031477
:102580008461FFF7CAFA4FF480500090694606480C
:10259000FFF756FB049404A903480594FFF79CFA3F
:1025A00006B010BD0008004038010020FEE770476B
:1025B0007047704770B5124CC0F1630201290AD010
:1025C0004FF4804532280FDB024608210D4800F009
:1025D0001BF800220DE04FF40065322802DB0246B2
:1025E0000021F3E7002100E00821064800F00CF884
:1025F000012229462046BDE87040FEF730BF0000AA
:102600000010024078000020094B00685B6A5343C9
:102610006422B3FBF2F229B1042905D0082905D0C0
:10262000026470474263704782637047C2637047B9
:1026300010000020FEF71EBF30B593B03021684671
:10264000FDF7F6FD14210CA8FDF7F2FD1848002552
:10265000016841F080510160006800F080501190E5
:102660001448016841F4804101600068022400F4CC
:102670008040119001200390102004900094069453
:102680000820CDE907505420CDE9090404200B901F
:102690006846FFF753F80CA90F2081E83100E002EB
:1026A000CDE90F0502210CA8FEF77EFF13B030BD67
:1026B00040380240007000401048016841F4700149
:1026C00001600F48016841F0010101600C4A0021DE
:1026D0000832116002680B4B1A400260031D0A4A5F
:1026E0001A60026822F48022026005480C30016002
:1026F00002495806803908607047000088ED00E004
:1027000000380240FFFFF6FE1030002410B50E4CDA
:10271000002202212046FEF7A2FE002208212046C8
:10272000FEF79DFE002210212046FEF798FE0022B3
:1027300020212046FEF793FE0448FFF76CFABDE81F
:1027400010400248FFF7E8BA000C0240B800002031
:102750000148FFF7E1BA0000F800002011480068C6
:10276000012803D110480168491C01600F48006826
:10277000012803D10E480168491C01600D4800681A
:10278000012803D10C480168491C01600B4800680E
:10279000012803D10A480168491C01600948FFF774
:1027A000BBBA000058000020000000205C000020A0
:1027B00004000020600000200800002064000020C9
:1027C0000C00002038010020F0B50268254C264D91
:1027D000264E274F274B4FF0804CA04209D0604532
:1027E00007D0A84205D0B04203D0B84201D09842E9
:1027F00004D122F0700E4A6842EA0E02A0421BD0B9
:10280000604519D0A84217D0B04215D0B84213D0B5
:10281000984211D0184DA8420ED0184DA8420BD0A6
:10282000174DA84208D0174DA84205D0164DA84212
:1028300002D0164DA84203D122F44075CA682A433B
:102840004D6922F080022A4302608A68C2620A68E7
:102850008262A04201D0984201D10969016301213D
:102860004161F0BD0000014000040040000800404C
:10287000000C0040000401400040014000440140C1
:102880000048014000180040001C004000200040AB
:1028900010B501F01F030121046A99408C430462C2
:1028A000016A9A401143016210BD10B5846842EA82
:1028B000032224F47F440A432243826010BD8268CD
:1028C00022F070020A4342F0070181607047000065
:1028D000F0B5026A22F001020262036A426884696A
:1028E000124E24F073050C682C4323F002058B680C
:1028F0002B430D4DA84201D0B04205D123F008076B
:10290000CB683B4323F00403A84201D0B04205D179
:102910004D6922F4407215438A692A4342608461FA
:10292000496841630362F0BD0000014000040140BA
:10293000F0B5026A22F010020262026A43688469FA
:102940000D6824F4E64444EA05248D6822F0200250
:1029500042EA05120F4D104EA84201D0B04206D1F6
:10296000CF6822F0800242EA071222F04002A84219
:1029700001D0B04207D14D6923F4406343EA850397
:102980008D6943EA8503436084614968816302621B
:10299000F0BD00000000014000040140F0B5026AF3
:1029A00022F480720262026A4368C46922F40072EF
:1029B00024F073050C68124E2C438D6842EA052200
:1029C0000E4DA84201D0B04206D1CF6822F4006279
:1029D00042EA072222F48062A84201D0B04207D125
:1029E0004D6923F4405343EA05138D6943EA051307
:1029F0004360C4614968C1630262F0BD00000140E8
:102A00000004014030B5026A22F480520262046A76
:102A10004268C3690D6823F4E64343EA05238D68E1
:102A200024F4005444EA0534084DA84202D0084D6D
:102A3000A84204D14D6922F4804242EA85124260E4
:102A4000C36149680164046230BD000000000140B8
:102A50000004014010B5036A046A24F00104046212
:102A6000846924F0F00444EA021423F00A020A43C1
:102A70008461026210BD10B5036A23F01003036283
:102A80008369046A23F4704343EA023224F0A0030A
:102A900043EA01118261016210BDFEE70907090ED8
:102AA000002804DB00F1E02080F80014704700F0FB
:102AB0000F0000F1E02080F8141D704702E008C804
:102AC000121F08C1002AFAD170477047002001E0A8
:102AD00001C1121F002AFBD170470000FEF7D2FC93
:102AE000FFF7AAFDFFF710FCFFF7E6FCFFF70CFD70
:102AF000FFF734FDFFF788FC00211148FFF770FA5B
:102B000008210F48FFF76CFA0D488030FFF772F884
:102B10000B48C030FFF76EF8094D4FF4AF742868CA
:102B20004463084E0122D1023046FEF798FC286823
:102B3000C463012291033046FEF791FCFEE70000DA
:102B4000780000200010024010B52DED048BB0EE8F
:102B5000418AF0EE618AB0EE409AF0EE609A53EC52
:102B6000182B51EC190BFDF74DFD06D2B0EE490ABA
:102B7000F0EE690ABDEC048B10BDB0EE480AF0EE31
:102B8000680AF7E710B52DED0C8BB0EE41AAF0EE18
:102B900061AAB0EE408AF0EE608AB0EE449AF0EEA0
:102BA000649AB0EE43BAF0EE63BAB0EE42CAF0EE09
:102BB00062CA9FED2ADB53EC1A2B51EC180BFDF780
:102BC00009FD06D2B0EE4D0AF0EE6D0ABDEC0C8B9D
:102BD00010BD53EC1C2B51EC180BFDF7FBFC12D273
:102BE00053EC1A2B51EC1C0BFDF7CEFB41EC190BEF
:102BF00053EC1A2B51EC180BFDF7C6FB41EC100BF4
:102C000053EC192B22E053EC1B2B51EC180BFDF766
:102C1000E1FC02D29FED130BD8E753EC192B51ECDA
:102C2000180BFDF7D7FCCDD253EC1B2B51EC190B35
:102C3000FDF7AAFB41EC1A0B53EC192B51EC180BC6
:102C4000FDF7A5FB53EC1A2B41EC100B51EC100BCC
:102C5000FDF712FC41EC100BB8E70000000000008B
:102C600000000000000000000000F03F0000000035
:102C70000000000001020304060708099C2C00085C
:102C80000000002078000000BC2A0008142D000875
:102C90007800002000050000CC2A00080000000099
:102CA0000000000000000000000000000000000024
:102CB0000000000000000000000000000000000014
:102CC0000000000000000000000000000000000004
:102CD0008F01000000000000008051400000000053
:102CE00000805140000000000000000000000000D3
:102CF00000000000000000000000000000000000D4
:102D000000000000010000001000000000000000B2
:042D10000024F400A7
:040000050800018965
:00000001FF
